{"contracts/LootBoxOpen.sol":{"LootBoxOpen":{"abi":[{"inputs":[{"internalType":"address","name":"_boxVerifier","type":"address"},{"internalType":"address","name":"_paymentToken","type":"address"},{"internalType":"uint256","name":"_boxPrice","type":"uint256"}],"stateMutability":"nonpayable","type":"constructor"},{"anonymous":false,"inputs":[{"indexed":true,"internalType":"address","name":"buyer","type":"address"},{"indexed":true,"internalType":"uint256","name":"boxId","type":"uint256"},{"indexed":false,"internalType":"uint256","name":"boxType","type":"uint256"}],"name":"BoxMinted","type":"event"},{"anonymous":false,"inputs":[{"indexed":true,"internalType":"bytes32","name":"boxCommitment","type":"bytes32"},{"indexed":true,"internalType":"bytes32","name":"outcomeCommitment","type":"bytes32"},{"indexed":false,"internalType":"bytes32","name":"nullifier","type":"bytes32"},{"indexed":false,"internalType":"uint256","name":"vrfOutput","type":"uint256"}],"name":"BoxOpened","type":"event"},{"anonymous":false,"inputs":[{"indexed":true,"internalType":"uint256","name":"boxId","type":"uint256"},{"indexed":false,"internalType":"bytes32","name":"noteHash","type":"bytes32"}],"name":"BoxRegistered","type":"event"},{"anonymous":false,"inputs":[{"indexed":true,"internalType":"bytes32","name":"noteHash","type":"bytes32"},{"indexed":false,"internalType":"bytes","name":"encryptedNote","type":"bytes"}],"name":"NoteCreated","type":"event"},{"anonymous":false,"inputs":[{"indexed":true,"internalType":"bytes32","name":"noteHash","type":"bytes32"},{"indexed":true,"internalType":"bytes32","name":"nullifier","type":"bytes32"}],"name":"NoteSpent","type":"event"},{"anonymous":false,"inputs":[{"indexed":false,"internalType":"uint256","name":"newPrice","type":"uint256"}],"name":"PriceUpdated","type":"event"},{"inputs":[],"name":"admin","outputs":[{"internalType":"address","name":"","type":"address"}],"stateMutability":"view","type":"function"},{"inputs":[{"internalType":"uint256","name":"","type":"uint256"}],"name":"boxOwner","outputs":[{"internalType":"address","name":"","type":"address"}],"stateMutability":"view","type":"function"},{"inputs":[],"name":"boxPrice","outputs":[{"internalType":"uint256","name":"","type":"uint256"}],"stateMutability":"view","type":"function"},{"inputs":[{"internalType":"uint256","name":"","type":"uint256"}],"name":"boxTypes","outputs":[{"internalType":"uint256","name":"","type":"uint256"}],"stateMutability":"view","type":"function"},{"inputs":[],"name":"boxVerifier","outputs":[{"internalType":"contract ILootBoxVerifier","name":"","type":"address"}],"stateMutability":"view","type":"function"},{"inputs":[{"internalType":"bytes32","name":"","type":"bytes32"}],"name":"encryptedNotes","outputs":[{"internalType":"bytes","name":"","type":"bytes"}],"stateMutability":"view","type":"function"},{"inputs":[{"internalType":"uint256","name":"boxId","type":"uint256"}],"name":"getBoxInfo","outputs":[{"internalType":"address","name":"owner","type":"address"},{"internalType":"uint256","name":"boxType","type":"uint256"},{"internalType":"bool","name":"registered","type":"bool"}],"stateMutability":"view","type":"function"},{"inputs":[{"internalType":"address","name":"user","type":"address"}],"name":"getMyBoxes","outputs":[{"internalType":"uint256[]","name":"","type":"uint256[]"}],"stateMutability":"view","type":"function"},{"inputs":[{"internalType":"bytes32","name":"noteHash","type":"bytes32"}],"name":"getNoteState","outputs":[{"internalType":"enum NFTNoteBase.NoteState","name":"","type":"uint8"}],"stateMutability":"view","type":"function"},{"inputs":[{"internalType":"bytes32","name":"nullifier","type":"bytes32"}],"name":"isNullifierUsed","outputs":[{"internalType":"bool","name":"","type":"bool"}],"stateMutability":"view","type":"function"},{"inputs":[{"internalType":"uint256","name":"boxType","type":"uint256"}],"name":"mintBox","outputs":[{"internalType":"uint256","name":"","type":"uint256"}],"stateMutability":"nonpayable","type":"function"},{"inputs":[],"name":"nextBoxId","outputs":[{"internalType":"uint256","name":"","type":"uint256"}],"stateMutability":"view","type":"function"},{"inputs":[{"internalType":"bytes32","name":"","type":"bytes32"}],"name":"notes","outputs":[{"internalType":"enum NFTNoteBase.NoteState","name":"","type":"uint8"}],"stateMutability":"view","type":"function"},{"inputs":[{"internalType":"bytes32","name":"","type":"bytes32"}],"name":"nullifiers","outputs":[{"internalType":"bool","name":"","type":"bool"}],"stateMutability":"view","type":"function"},{"inputs":[{"internalType":"uint256[2]","name":"a","type":"uint256[2]"},{"internalType":"uint256[2][2]","name":"b","type":"uint256[2][2]"},{"internalType":"uint256[2]","name":"c","type":"uint256[2]"},{"internalType":"bytes32","name":"boxCommitment","type":"bytes32"},{"internalType":"bytes32","name":"outcomeCommitment","type":"bytes32"},{"internalType":"uint256","name":"vrfOutput","type":"uint256"},{"internalType":"uint256","name":"boxId","type":"uint256"},{"internalType":"bytes32","name":"nullifier","type":"bytes32"},{"internalType":"bytes","name":"encryptedNote","type":"bytes"}],"name":"openBox","outputs":[],"stateMutability":"nonpayable","type":"function"},{"inputs":[],"name":"paymentToken","outputs":[{"internalType":"contract IERC20","name":"","type":"address"}],"stateMutability":"view","type":"function"},{"inputs":[{"internalType":"bytes32","name":"noteHash","type":"bytes32"},{"internalType":"uint256","name":"boxId","type":"uint256"},{"internalType":"bytes","name":"encryptedNote","type":"bytes"}],"name":"registerBox","outputs":[],"stateMutability":"nonpayable","type":"function"},{"inputs":[{"internalType":"uint256","name":"","type":"uint256"}],"name":"registeredBoxes","outputs":[{"internalType":"bool","name":"","type":"bool"}],"stateMutability":"view","type":"function"},{"inputs":[{"internalType":"uint256","name":"_price","type":"uint256"}],"name":"setBoxPrice","outputs":[],"stateMutability":"nonpayable","type":"function"},{"inputs":[{"internalType":"address","name":"to","type":"address"}],"name":"withdrawTokens","outputs":[],"stateMutability":"nonpayable","type":"function"}],"evm":{"bytecode":{"linkReferences":{},"object":"6080604052600160075534801561001557600080fd5b5060405161143238038061143283398101604081905261003491610097565b600380546001600160a01b039485166001600160a01b03199182161790915560048054939094169281169290921790925560069190915560058054909116331790556100d3565b80516001600160a01b038116811461009257600080fd5b919050565b6000806000606084860312156100ac57600080fd5b6100b58461007b565b92506100c36020850161007b565b9150604084015190509250925092565b611350806100e26000396000f3fe608060405234801561001057600080fd5b506004361061012c5760003560e01c8063537e5ec3116100ad57806385de26b71161007157806385de26b714610357578063987631cf1461037a578063a64828581461039d578063f7dbea3e146103a6578063f851a440146103b957600080fd5b8063537e5ec3146102805780635ebad5001461029357806376482f931461029c57806379494afe146102bc57806383091c371461032757600080fd5b80633155003e116100f45780633155003e146101ee578063368ac949146102035780633a931a1d1461021657806346c151b71461024457806349df728c1461026d57600080fd5b806314107a941461013157806316d599da1461015a57806322dc7b4c146101855780632997e86b146101b85780633013ce29146101db575b600080fd5b61014461013f366004610d51565b6103cc565b6040516101519190610d6a565b60405180910390f35b60035461016d906001600160a01b031681565b6040516001600160a01b039091168152602001610151565b6101a8610193366004610d51565b60009081526001602052604090205460ff1690565b6040519015158152602001610151565b6101a86101c6366004610d51565b60016020526000908152604090205460ff1681565b60045461016d906001600160a01b031681565b6102016101fc366004610e84565b610466565b005b610201610211366004610f24565b61057b565b610236610224366004610d51565b600a6020526000908152604090205481565b604051908152602001610151565b61016d610252366004610d51565b6009602052600090815260409020546001600160a01b031681565b61020161027b366004611011565b61079d565b61023661028e366004610d51565b61091e565b61023660075481565b6102af6102aa366004611011565b610a79565b6040516101519190611041565b6103006102ca366004610d51565b600090815260096020908152604080832054600a83528184205460089093529220546001600160a01b0390921692909160ff1690565b604080516001600160a01b0390941684526020840192909252151590820152606001610151565b61034a610335366004610d51565b60009081526020819052604090205460ff1690565b604051610151919061109b565b61034a610365366004610d51565b60006020819052908152604090205460ff1681565b6101a8610388366004610d51565b60086020526000908152604090205460ff1681565b61023660065481565b6102016103b4366004610d51565b610ae5565b60055461016d906001600160a01b031681565b600260205260009081526040902080546103e5906110c3565b80601f0160208091040260200160405190810160405280929190818152602001828054610411906110c3565b801561045e5780601f106104335761010080835404028352916020019161045e565b820191906000526020600020905b81548152906001019060200180831161044157829003601f168201915b505050505081565b6000828152600960205260409020546001600160a01b031633146104c15760405162461bcd60e51b815260206004820152600d60248201526c2737ba103137bc1037bbb732b960991b60448201526064015b60405180910390fd5b60008281526008602052604090205460ff16156105195760405162461bcd60e51b8152602060048201526016602482015275109bde08185b1c9958591e481c9959da5cdd195c995960521b60448201526064016104b8565b6000828152600860205260409020805460ff1916600117905561053c8382610b67565b817f3d29ad57fc73dc07b9ccb2a0643dce94386a0c036debb3fd9629380f24d1549d8460405161056e91815260200190565b60405180910390a2505050565b85600160008281526020819052604090205460ff1660028111156105a1576105a1611085565b146105fa5760405162461bcd60e51b8152602060048201526024808201527f4e6f746520646f6573206e6f74206578697374206f7220616c726561647920736044820152631c195b9d60e21b60648201526084016104b8565b600083815260016020526040902054839060ff16156106545760405162461bcd60e51b8152602060048201526016602482015275139d5b1b1a599a595c88185b1c9958591e481d5cd95960521b60448201526064016104b8565b6040805160a08101825289815260208101899052808201889052606081018790526080810186905260035491516334baeab960e01b815290916001600160a01b0316906334baeab9906106b1908f908f908f908790600401611126565b602060405180830381865afa1580156106ce573d6000803e3d6000fd5b505050506040513d601f19601f820116820180604052508101906106f291906111aa565b61073e5760405162461bcd60e51b815260206004820152601960248201527f496e76616c696420626f78206f70656e696e672070726f6f660000000000000060448201526064016104b8565b6107488986610c35565b6107528885610b67565b604080518681526020810189905289918b917f38180a7ab5649602b72ad14b2b983f746cab7252c34493e50c4de8504f8ff18b910160405180910390a3505050505050505050505050565b6005546001600160a01b031633146107e45760405162461bcd60e51b815260206004820152600a60248201526927b7363c9030b236b4b760b11b60448201526064016104b8565b600480546040516370a0823160e01b815230928101929092526000916001600160a01b03909116906370a0823190602401602060405180830381865afa158015610832573d6000803e3d6000fd5b505050506040513d601f19601f8201168201806040525081019061085691906111cc565b9050600081116108a05760405162461bcd60e51b81526020600482015260156024820152744e6f20746f6b656e7320746f20776974686472617760581b60448201526064016104b8565b6004805460405163a9059cbb60e01b81526001600160a01b03858116938201939093526024810184905291169063a9059cbb906044016020604051808303816000875af11580156108f5573d6000803e3d6000fd5b505050506040513d601f19601f8201168201806040525081019061091991906111aa565b505050565b600480546006546040516323b872dd60e01b8152339381019390935230602484015260448301526000916001600160a01b03909116906323b872dd906064016020604051808303816000875af115801561097c573d6000803e3d6000fd5b505050506040513d601f19601f820116820180604052508101906109a091906111aa565b6109dd5760405162461bcd60e51b815260206004820152600e60248201526d14185e5b595b9d0819985a5b195960921b60448201526064016104b8565b60078054600091826109ee836111e5565b90915550600081815260096020908152604080832080546001600160a01b03191633908117909155600a8352818420889055808452600b83528184208054600181018255908552938390209093018490555186815292935083927f72c53221606c87ca0297d0ca75a8e5a8570f1aafd457cf9adb2ad19588fbf3f7910160405180910390a392915050565b6001600160a01b0381166000908152600b6020908152604091829020805483518184028101840190945280845260609392830182828015610ad957602002820191906000526020600020905b815481526020019060010190808311610ac5575b50505050509050919050565b6005546001600160a01b03163314610b2c5760405162461bcd60e51b815260206004820152600a60248201526927b7363c9030b236b4b760b11b60448201526064016104b8565b60068190556040518181527f66cbca4f3c64fecf1dcb9ce094abcf7f68c3450a1d4e3a8e917dd621edb4ebe09060200160405180910390a150565b60008281526020819052604081205460ff166002811115610b8a57610b8a611085565b14610bcd5760405162461bcd60e51b81526020600482015260136024820152724e6f746520616c72656164792065786973747360681b60448201526064016104b8565b600082815260208181526040808320805460ff1916600117905560029091529020610bf8828261125a565b50817f11d80dbc601487e7d7ccb4dd72ca753222f44df72d69e388df7c549cfebe312682604051610c299190610d6a565b60405180910390a25050565b600160008381526020819052604090205460ff166002811115610c5a57610c5a611085565b14610c985760405162461bcd60e51b815260206004820152600e60248201526d139bdd19481b9bdd081d985b1a5960921b60448201526064016104b8565b60008181526001602052604090205460ff1615610cf05760405162461bcd60e51b8152602060048201526016602482015275139d5b1b1a599a595c88185b1c9958591e481d5cd95960521b60448201526064016104b8565b600082815260208181526040808320805460ff19908116600217909155848452600192839052818420805490911690921790915551829184917f039fa62302b0f0fccb244fbd909ec86e1a28d4b765b936467c70873d3fcb14979190a35050565b600060208284031215610d6357600080fd5b5035919050565b600060208083528351808285015260005b81811015610d9757858101830151858201604001528201610d7b565b506000604082860101526040601f19601f8301168501019250505092915050565b634e487b7160e01b600052604160045260246000fd5b6040805190810167ffffffffffffffff81118282101715610df157610df1610db8565b60405290565b600082601f830112610e0857600080fd5b813567ffffffffffffffff80821115610e2357610e23610db8565b604051601f8301601f19908116603f01168101908282118183101715610e4b57610e4b610db8565b81604052838152866020858801011115610e6457600080fd5b836020870160208301376000602085830101528094505050505092915050565b600080600060608486031215610e9957600080fd5b8335925060208401359150604084013567ffffffffffffffff811115610ebe57600080fd5b610eca86828701610df7565b9150509250925092565b600082601f830112610ee557600080fd5b610eed610dce565b806040840185811115610eff57600080fd5b845b81811015610f19578035845260209384019301610f01565b509095945050505050565b60008060008060008060008060006101c08a8c031215610f4357600080fd5b610f4d8b8b610ed4565b98508a605f8b0112610f5e57600080fd5b610f66610dce565b8060c08c018d811115610f7857600080fd5b60408d015b81811015610f9f57610f8f8f82610ed4565b8452602090930192604001610f7d565b50819a50610fad8e82610ed4565b99505050506101008a013595506101208a013594506101408a013593506101608a013592506101808a013591506101a08a013567ffffffffffffffff811115610ff557600080fd5b6110018c828d01610df7565b9150509295985092959850929598565b60006020828403121561102357600080fd5b81356001600160a01b038116811461103a57600080fd5b9392505050565b6020808252825182820181905260009190848201906040850190845b818110156110795783518352928401929184019160010161105d565b50909695505050505050565b634e487b7160e01b600052602160045260246000fd5b60208101600383106110bd57634e487b7160e01b600052602160045260246000fd5b91905290565b600181811c908216806110d757607f821691505b6020821081036110f757634e487b7160e01b600052602260045260246000fd5b50919050565b8060005b6002811015611120578151845260209384019390910190600101611101565b50505050565b6101a0810161113582876110fd565b60408083018660005b6002811015611165576111528383516110fd565b918301916020919091019060010161113e565b5050505061117660c08301856110fd565b61010082018360005b600581101561119e57815183526020928301929091019060010161117f565b50505095945050505050565b6000602082840312156111bc57600080fd5b8151801515811461103a57600080fd5b6000602082840312156111de57600080fd5b5051919050565b60006001820161120557634e487b7160e01b600052601160045260246000fd5b5060010190565b601f82111561091957600081815260208120601f850160051c810160208610156112335750805b601f850160051c820191505b818110156112525782815560010161123f565b505050505050565b815167ffffffffffffffff81111561127457611274610db8565b6112888161128284546110c3565b8461120c565b602080601f8311600181146112bd57600084156112a55750858301515b600019600386901b1c1916600185901b178555611252565b600085815260208120601f198616915b828110156112ec578886015182559484019460019091019084016112cd565b508582101561130a5787850151600019600388901b60f8161c191681555b5050505050600190811b0190555056fea264697066735822122019d0a43b2280afed247b333c825ab7190b9d8d7c2db0b832d961bf391784581764736f6c63430008140033","opcodes":"PUSH1 0x80 PUSH1 0x40 MSTORE PUSH1 0x1 PUSH1 0x7 SSTORE CALLVALUE DUP1 ISZERO PUSH2 0x15 JUMPI PUSH1 0x0 DUP1 REVERT JUMPDEST POP PUSH1 0x40 MLOAD PUSH2 0x1432 CODESIZE SUB DUP1 PUSH2 0x1432 DUP4 CODECOPY DUP2 ADD PUSH1 0x40 DUP2 SWAP1 MSTORE PUSH2 0x34 SWAP2 PUSH2 0x97 JUMP JUMPDEST PUSH1 0x3 DUP1 SLOAD PUSH1 0x1 PUSH1 0x1 PUSH1 0xA0 SHL SUB SWAP5 DUP6 AND PUSH1 0x1 PUSH1 0x1 PUSH1 0xA0 SHL SUB NOT SWAP2 DUP3 AND OR SWAP1 SWAP2 SSTORE PUSH1 0x4 DUP1 SLOAD SWAP4 SWAP1 SWAP5 AND SWAP3 DUP2 AND SWAP3 SWAP1 SWAP3 OR SWAP1 SWAP3 SSTORE PUSH1 0x6 SWAP2 SWAP1 SWAP2 SSTORE PUSH1 0x5 DUP1 SLOAD SWAP1 SWAP2 AND CALLER OR SWAP1 SSTORE PUSH2 0xD3 JUMP JUMPDEST DUP1 MLOAD PUSH1 0x1 PUSH1 0x1 PUSH1 0xA0 SHL SUB DUP2 AND DUP2 EQ PUSH2 0x92 JUMPI PUSH1 0x0 DUP1 REVERT JUMPDEST SWAP2 SWAP1 POP JUMP JUMPDEST PUSH1 0x0 DUP1 PUSH1 0x0 PUSH1 0x60 DUP5 DUP7 SUB SLT ISZERO PUSH2 0xAC JUMPI PUSH1 0x0 DUP1 REVERT JUMPDEST PUSH2 0xB5 DUP5 PUSH2 0x7B JUMP JUMPDEST SWAP3 POP PUSH2 0xC3 PUSH1 0x20 DUP6 ADD PUSH2 0x7B JUMP JUMPDEST SWAP2 POP PUSH1 0x40 DUP5 ADD MLOAD SWAP1 POP SWAP3 POP SWAP3 POP SWAP3 JUMP JUMPDEST PUSH2 0x1350 DUP1 PUSH2 0xE2 PUSH1 0x0 CODECOPY PUSH1 0x0 RETURN INVALID PUSH1 0x80 PUSH1 0x40 MSTORE CALLVALUE DUP1 ISZERO PUSH2 0x10 JUMPI PUSH1 0x0 DUP1 REVERT JUMPDEST POP PUSH1 0x4 CALLDATASIZE LT PUSH2 0x12C JUMPI PUSH1 0x0 CALLDATALOAD PUSH1 0xE0 SHR DUP1 PUSH4 0x537E5EC3 GT PUSH2 0xAD JUMPI DUP1 PUSH4 0x85DE26B7 GT PUSH2 0x71 JUMPI DUP1 PUSH4 0x85DE26B7 EQ PUSH2 0x357 JUMPI DUP1 PUSH4 0x987631CF EQ PUSH2 0x37A JUMPI DUP1 PUSH4 0xA6482858 EQ PUSH2 0x39D JUMPI DUP1 PUSH4 0xF7DBEA3E EQ PUSH2 0x3A6 JUMPI DUP1 PUSH4 0xF851A440 EQ PUSH2 0x3B9 JUMPI PUSH1 0x0 DUP1 REVERT JUMPDEST DUP1 PUSH4 0x537E5EC3 EQ PUSH2 0x280 JUMPI DUP1 PUSH4 0x5EBAD500 EQ PUSH2 0x293 JUMPI DUP1 PUSH4 0x76482F93 EQ PUSH2 0x29C JUMPI DUP1 PUSH4 0x79494AFE EQ PUSH2 0x2BC JUMPI DUP1 PUSH4 0x83091C37 EQ PUSH2 0x327 JUMPI PUSH1 0x0 DUP1 REVERT JUMPDEST DUP1 PUSH4 0x3155003E GT PUSH2 0xF4 JUMPI DUP1 PUSH4 0x3155003E EQ PUSH2 0x1EE JUMPI DUP1 PUSH4 0x368AC949 EQ PUSH2 0x203 JUMPI DUP1 PUSH4 0x3A931A1D EQ PUSH2 0x216 JUMPI DUP1 PUSH4 0x46C151B7 EQ PUSH2 0x244 JUMPI DUP1 PUSH4 0x49DF728C EQ PUSH2 0x26D JUMPI PUSH1 0x0 DUP1 REVERT JUMPDEST DUP1 PUSH4 0x14107A94 EQ PUSH2 0x131 JUMPI DUP1 PUSH4 0x16D599DA EQ PUSH2 0x15A JUMPI DUP1 PUSH4 0x22DC7B4C EQ PUSH2 0x185 JUMPI DUP1 PUSH4 0x2997E86B EQ PUSH2 0x1B8 JUMPI DUP1 PUSH4 0x3013CE29 EQ PUSH2 0x1DB JUMPI JUMPDEST PUSH1 0x0 DUP1 REVERT JUMPDEST PUSH2 0x144 PUSH2 0x13F CALLDATASIZE PUSH1 0x4 PUSH2 0xD51 JUMP JUMPDEST PUSH2 0x3CC JUMP JUMPDEST PUSH1 0x40 MLOAD PUSH2 0x151 SWAP2 SWAP1 PUSH2 0xD6A JUMP JUMPDEST PUSH1 0x40 MLOAD DUP1 SWAP2 SUB SWAP1 RETURN JUMPDEST PUSH1 0x3 SLOAD PUSH2 0x16D SWAP1 PUSH1 0x1 PUSH1 0x1 PUSH1 0xA0 SHL SUB AND DUP2 JUMP JUMPDEST PUSH1 0x40 MLOAD PUSH1 0x1 PUSH1 0x1 PUSH1 0xA0 SHL SUB SWAP1 SWAP2 AND DUP2 MSTORE PUSH1 0x20 ADD PUSH2 0x151 JUMP JUMPDEST PUSH2 0x1A8 PUSH2 0x193 CALLDATASIZE PUSH1 0x4 PUSH2 0xD51 JUMP JUMPDEST PUSH1 0x0 SWAP1 DUP2 MSTORE PUSH1 0x1 PUSH1 0x20 MSTORE PUSH1 0x40 SWAP1 KECCAK256 SLOAD PUSH1 0xFF AND SWAP1 JUMP JUMPDEST PUSH1 0x40 MLOAD SWAP1 ISZERO ISZERO DUP2 MSTORE PUSH1 0x20 ADD PUSH2 0x151 JUMP JUMPDEST PUSH2 0x1A8 PUSH2 0x1C6 CALLDATASIZE PUSH1 0x4 PUSH2 0xD51 JUMP JUMPDEST PUSH1 0x1 PUSH1 0x20 MSTORE PUSH1 0x0 SWAP1 DUP2 MSTORE PUSH1 0x40 SWAP1 KECCAK256 SLOAD PUSH1 0xFF AND DUP2 JUMP JUMPDEST PUSH1 0x4 SLOAD PUSH2 0x16D SWAP1 PUSH1 0x1 PUSH1 0x1 PUSH1 0xA0 SHL SUB AND DUP2 JUMP JUMPDEST PUSH2 0x201 PUSH2 0x1FC CALLDATASIZE PUSH1 0x4 PUSH2 0xE84 JUMP JUMPDEST PUSH2 0x466 JUMP JUMPDEST STOP JUMPDEST PUSH2 0x201 PUSH2 0x211 CALLDATASIZE PUSH1 0x4 PUSH2 0xF24 JUMP JUMPDEST PUSH2 0x57B JUMP JUMPDEST PUSH2 0x236 PUSH2 0x224 CALLDATASIZE PUSH1 0x4 PUSH2 0xD51 JUMP JUMPDEST PUSH1 0xA PUSH1 0x20 MSTORE PUSH1 0x0 SWAP1 DUP2 MSTORE PUSH1 0x40 SWAP1 KECCAK256 SLOAD DUP2 JUMP JUMPDEST PUSH1 0x40 MLOAD SWAP1 DUP2 MSTORE PUSH1 0x20 ADD PUSH2 0x151 JUMP JUMPDEST PUSH2 0x16D PUSH2 0x252 CALLDATASIZE PUSH1 0x4 PUSH2 0xD51 JUMP JUMPDEST PUSH1 0x9 PUSH1 0x20 MSTORE PUSH1 0x0 SWAP1 DUP2 MSTORE PUSH1 0x40 SWAP1 KECCAK256 SLOAD PUSH1 0x1 PUSH1 0x1 PUSH1 0xA0 SHL SUB AND DUP2 JUMP JUMPDEST PUSH2 0x201 PUSH2 0x27B CALLDATASIZE PUSH1 0x4 PUSH2 0x1011 JUMP JUMPDEST PUSH2 0x79D JUMP JUMPDEST PUSH2 0x236 PUSH2 0x28E CALLDATASIZE PUSH1 0x4 PUSH2 0xD51 JUMP JUMPDEST PUSH2 0x91E JUMP JUMPDEST PUSH2 0x236 PUSH1 0x7 SLOAD DUP2 JUMP JUMPDEST PUSH2 0x2AF PUSH2 0x2AA CALLDATASIZE PUSH1 0x4 PUSH2 0x1011 JUMP JUMPDEST PUSH2 0xA79 JUMP JUMPDEST PUSH1 0x40 MLOAD PUSH2 0x151 SWAP2 SWAP1 PUSH2 0x1041 JUMP JUMPDEST PUSH2 0x300 PUSH2 0x2CA CALLDATASIZE PUSH1 0x4 PUSH2 0xD51 JUMP JUMPDEST PUSH1 0x0 SWAP1 DUP2 MSTORE PUSH1 0x9 PUSH1 0x20 SWAP1 DUP2 MSTORE PUSH1 0x40 DUP1 DUP4 KECCAK256 SLOAD PUSH1 0xA DUP4 MSTORE DUP2 DUP5 KECCAK256 SLOAD PUSH1 0x8 SWAP1 SWAP4 MSTORE SWAP3 KECCAK256 SLOAD PUSH1 0x1 PUSH1 0x1 PUSH1 0xA0 SHL SUB SWAP1 SWAP3 AND SWAP3 SWAP1 SWAP2 PUSH1 0xFF AND SWAP1 JUMP JUMPDEST PUSH1 0x40 DUP1 MLOAD PUSH1 0x1 PUSH1 0x1 PUSH1 0xA0 SHL SUB SWAP1 SWAP5 AND DUP5 MSTORE PUSH1 0x20 DUP5 ADD SWAP3 SWAP1 SWAP3 MSTORE ISZERO ISZERO SWAP1 DUP3 ADD MSTORE PUSH1 0x60 ADD PUSH2 0x151 JUMP JUMPDEST PUSH2 0x34A PUSH2 0x335 CALLDATASIZE PUSH1 0x4 PUSH2 0xD51 JUMP JUMPDEST PUSH1 0x0 SWAP1 DUP2 MSTORE PUSH1 0x20 DUP2 SWAP1 MSTORE PUSH1 0x40 SWAP1 KECCAK256 SLOAD PUSH1 0xFF AND SWAP1 JUMP JUMPDEST PUSH1 0x40 MLOAD PUSH2 0x151 SWAP2 SWAP1 PUSH2 0x109B JUMP JUMPDEST PUSH2 0x34A PUSH2 0x365 CALLDATASIZE PUSH1 0x4 PUSH2 0xD51 JUMP JUMPDEST PUSH1 0x0 PUSH1 0x20 DUP2 SWAP1 MSTORE SWAP1 DUP2 MSTORE PUSH1 0x40 SWAP1 KECCAK256 SLOAD PUSH1 0xFF AND DUP2 JUMP JUMPDEST PUSH2 0x1A8 PUSH2 0x388 CALLDATASIZE PUSH1 0x4 PUSH2 0xD51 JUMP JUMPDEST PUSH1 0x8 PUSH1 0x20 MSTORE PUSH1 0x0 SWAP1 DUP2 MSTORE PUSH1 0x40 SWAP1 KECCAK256 SLOAD PUSH1 0xFF AND DUP2 JUMP JUMPDEST PUSH2 0x236 PUSH1 0x6 SLOAD DUP2 JUMP JUMPDEST PUSH2 0x201 PUSH2 0x3B4 CALLDATASIZE PUSH1 0x4 PUSH2 0xD51 JUMP JUMPDEST PUSH2 0xAE5 JUMP JUMPDEST PUSH1 0x5 SLOAD PUSH2 0x16D SWAP1 PUSH1 0x1 PUSH1 0x1 PUSH1 0xA0 SHL SUB AND DUP2 JUMP JUMPDEST PUSH1 0x2 PUSH1 0x20 MSTORE PUSH1 0x0 SWAP1 DUP2 MSTORE PUSH1 0x40 SWAP1 KECCAK256 DUP1 SLOAD PUSH2 0x3E5 SWAP1 PUSH2 0x10C3 JUMP JUMPDEST DUP1 PUSH1 0x1F ADD PUSH1 0x20 DUP1 SWAP2 DIV MUL PUSH1 0x20 ADD PUSH1 0x40 MLOAD SWAP1 DUP2 ADD PUSH1 0x40 MSTORE DUP1 SWAP3 SWAP2 SWAP1 DUP2 DUP2 MSTORE PUSH1 0x20 ADD DUP3 DUP1 SLOAD PUSH2 0x411 SWAP1 PUSH2 0x10C3 JUMP JUMPDEST DUP1 ISZERO PUSH2 0x45E JUMPI DUP1 PUSH1 0x1F LT PUSH2 0x433 JUMPI PUSH2 0x100 DUP1 DUP4 SLOAD DIV MUL DUP4 MSTORE SWAP2 PUSH1 0x20 ADD SWAP2 PUSH2 0x45E JUMP JUMPDEST DUP3 ADD SWAP2 SWAP1 PUSH1 0x0 MSTORE PUSH1 0x20 PUSH1 0x0 KECCAK256 SWAP1 JUMPDEST DUP2 SLOAD DUP2 MSTORE SWAP1 PUSH1 0x1 ADD SWAP1 PUSH1 0x20 ADD DUP1 DUP4 GT PUSH2 0x441 JUMPI DUP3 SWAP1 SUB PUSH1 0x1F AND DUP3 ADD SWAP2 JUMPDEST POP POP POP POP POP DUP2 JUMP JUMPDEST PUSH1 0x0 DUP3 DUP2 MSTORE PUSH1 0x9 PUSH1 0x20 MSTORE PUSH1 0x40 SWAP1 KECCAK256 SLOAD PUSH1 0x1 PUSH1 0x1 PUSH1 0xA0 SHL SUB AND CALLER EQ PUSH2 0x4C1 JUMPI PUSH1 0x40 MLOAD PUSH3 0x461BCD PUSH1 0xE5 SHL DUP2 MSTORE PUSH1 0x20 PUSH1 0x4 DUP3 ADD MSTORE PUSH1 0xD PUSH1 0x24 DUP3 ADD MSTORE PUSH13 0x2737BA103137BC1037BBB732B9 PUSH1 0x99 SHL PUSH1 0x44 DUP3 ADD MSTORE PUSH1 0x64 ADD JUMPDEST PUSH1 0x40 MLOAD DUP1 SWAP2 SUB SWAP1 REVERT JUMPDEST PUSH1 0x0 DUP3 DUP2 MSTORE PUSH1 0x8 PUSH1 0x20 MSTORE PUSH1 0x40 SWAP1 KECCAK256 SLOAD PUSH1 0xFF AND ISZERO PUSH2 0x519 JUMPI PUSH1 0x40 MLOAD PUSH3 0x461BCD PUSH1 0xE5 SHL DUP2 MSTORE PUSH1 0x20 PUSH1 0x4 DUP3 ADD MSTORE PUSH1 0x16 PUSH1 0x24 DUP3 ADD MSTORE PUSH22 0x109BDE08185B1C9958591E481C9959DA5CDD195C9959 PUSH1 0x52 SHL PUSH1 0x44 DUP3 ADD MSTORE PUSH1 0x64 ADD PUSH2 0x4B8 JUMP JUMPDEST PUSH1 0x0 DUP3 DUP2 MSTORE PUSH1 0x8 PUSH1 0x20 MSTORE PUSH1 0x40 SWAP1 KECCAK256 DUP1 SLOAD PUSH1 0xFF NOT AND PUSH1 0x1 OR SWAP1 SSTORE PUSH2 0x53C DUP4 DUP3 PUSH2 0xB67 JUMP JUMPDEST DUP2 PUSH32 0x3D29AD57FC73DC07B9CCB2A0643DCE94386A0C036DEBB3FD9629380F24D1549D DUP5 PUSH1 0x40 MLOAD PUSH2 0x56E SWAP2 DUP2 MSTORE PUSH1 0x20 ADD SWAP1 JUMP JUMPDEST PUSH1 0x40 MLOAD DUP1 SWAP2 SUB SWAP1 LOG2 POP POP POP JUMP JUMPDEST DUP6 PUSH1 0x1 PUSH1 0x0 DUP3 DUP2 MSTORE PUSH1 0x20 DUP2 SWAP1 MSTORE PUSH1 0x40 SWAP1 KECCAK256 SLOAD PUSH1 0xFF AND PUSH1 0x2 DUP2 GT ISZERO PUSH2 0x5A1 JUMPI PUSH2 0x5A1 PUSH2 0x1085 JUMP JUMPDEST EQ PUSH2 0x5FA JUMPI PUSH1 0x40 MLOAD PUSH3 0x461BCD PUSH1 0xE5 SHL DUP2 MSTORE PUSH1 0x20 PUSH1 0x4 DUP3 ADD MSTORE PUSH1 0x24 DUP1 DUP3 ADD MSTORE PUSH32 0x4E6F746520646F6573206E6F74206578697374206F7220616C72656164792073 PUSH1 0x44 DUP3 ADD MSTORE PUSH4 0x1C195B9D PUSH1 0xE2 SHL PUSH1 0x64 DUP3 ADD MSTORE PUSH1 0x84 ADD PUSH2 0x4B8 JUMP JUMPDEST PUSH1 0x0 DUP4 DUP2 MSTORE PUSH1 0x1 PUSH1 0x20 MSTORE PUSH1 0x40 SWAP1 KECCAK256 SLOAD DUP4 SWAP1 PUSH1 0xFF AND ISZERO PUSH2 0x654 JUMPI PUSH1 0x40 MLOAD PUSH3 0x461BCD PUSH1 0xE5 SHL DUP2 MSTORE PUSH1 0x20 PUSH1 0x4 DUP3 ADD MSTORE PUSH1 0x16 PUSH1 0x24 DUP3 ADD MSTORE PUSH22 0x139D5B1B1A599A595C88185B1C9958591E481D5CD959 PUSH1 0x52 SHL PUSH1 0x44 DUP3 ADD MSTORE PUSH1 0x64 ADD PUSH2 0x4B8 JUMP JUMPDEST PUSH1 0x40 DUP1 MLOAD PUSH1 0xA0 DUP2 ADD DUP3 MSTORE DUP10 DUP2 MSTORE PUSH1 0x20 DUP2 ADD DUP10 SWAP1 MSTORE DUP1 DUP3 ADD DUP9 SWAP1 MSTORE PUSH1 0x60 DUP2 ADD DUP8 SWAP1 MSTORE PUSH1 0x80 DUP2 ADD DUP7 SWAP1 MSTORE PUSH1 0x3 SLOAD SWAP2 MLOAD PUSH4 0x34BAEAB9 PUSH1 0xE0 SHL DUP2 MSTORE SWAP1 SWAP2 PUSH1 0x1 PUSH1 0x1 PUSH1 0xA0 SHL SUB AND SWAP1 PUSH4 0x34BAEAB9 SWAP1 PUSH2 0x6B1 SWAP1 DUP16 SWAP1 DUP16 SWAP1 DUP16 SWAP1 DUP8 SWAP1 PUSH1 0x4 ADD PUSH2 0x1126 JUMP JUMPDEST PUSH1 0x20 PUSH1 0x40 MLOAD DUP1 DUP4 SUB DUP2 DUP7 GAS STATICCALL ISZERO DUP1 ISZERO PUSH2 0x6CE JUMPI RETURNDATASIZE PUSH1 0x0 DUP1 RETURNDATACOPY RETURNDATASIZE PUSH1 0x0 REVERT JUMPDEST POP POP POP POP PUSH1 0x40 MLOAD RETURNDATASIZE PUSH1 0x1F NOT PUSH1 0x1F DUP3 ADD AND DUP3 ADD DUP1 PUSH1 0x40 MSTORE POP DUP2 ADD SWAP1 PUSH2 0x6F2 SWAP2 SWAP1 PUSH2 0x11AA JUMP JUMPDEST PUSH2 0x73E JUMPI PUSH1 0x40 MLOAD PUSH3 0x461BCD PUSH1 0xE5 SHL DUP2 MSTORE PUSH1 0x20 PUSH1 0x4 DUP3 ADD MSTORE PUSH1 0x19 PUSH1 0x24 DUP3 ADD MSTORE PUSH32 0x496E76616C696420626F78206F70656E696E672070726F6F6600000000000000 PUSH1 0x44 DUP3 ADD MSTORE PUSH1 0x64 ADD PUSH2 0x4B8 JUMP JUMPDEST PUSH2 0x748 DUP10 DUP7 PUSH2 0xC35 JUMP JUMPDEST PUSH2 0x752 DUP9 DUP6 PUSH2 0xB67 JUMP JUMPDEST PUSH1 0x40 DUP1 MLOAD DUP7 DUP2 MSTORE PUSH1 0x20 DUP2 ADD DUP10 SWAP1 MSTORE DUP10 SWAP2 DUP12 SWAP2 PUSH32 0x38180A7AB5649602B72AD14B2B983F746CAB7252C34493E50C4DE8504F8FF18B SWAP2 ADD PUSH1 0x40 MLOAD DUP1 SWAP2 SUB SWAP1 LOG3 POP POP POP POP POP POP POP POP POP POP POP POP JUMP JUMPDEST PUSH1 0x5 SLOAD PUSH1 0x1 PUSH1 0x1 PUSH1 0xA0 SHL SUB AND CALLER EQ PUSH2 0x7E4 JUMPI PUSH1 0x40 MLOAD PUSH3 0x461BCD PUSH1 0xE5 SHL DUP2 MSTORE PUSH1 0x20 PUSH1 0x4 DUP3 ADD MSTORE PUSH1 0xA PUSH1 0x24 DUP3 ADD MSTORE PUSH10 0x27B7363C9030B236B4B7 PUSH1 0xB1 SHL PUSH1 0x44 DUP3 ADD MSTORE PUSH1 0x64 ADD PUSH2 0x4B8 JUMP JUMPDEST PUSH1 0x4 DUP1 SLOAD PUSH1 0x40 MLOAD PUSH4 0x70A08231 PUSH1 0xE0 SHL DUP2 MSTORE ADDRESS SWAP3 DUP2 ADD SWAP3 SWAP1 SWAP3 MSTORE PUSH1 0x0 SWAP2 PUSH1 0x1 PUSH1 0x1 PUSH1 0xA0 SHL SUB SWAP1 SWAP2 AND SWAP1 PUSH4 0x70A08231 SWAP1 PUSH1 0x24 ADD PUSH1 0x20 PUSH1 0x40 MLOAD DUP1 DUP4 SUB DUP2 DUP7 GAS STATICCALL ISZERO DUP1 ISZERO PUSH2 0x832 JUMPI RETURNDATASIZE PUSH1 0x0 DUP1 RETURNDATACOPY RETURNDATASIZE PUSH1 0x0 REVERT JUMPDEST POP POP POP POP PUSH1 0x40 MLOAD RETURNDATASIZE PUSH1 0x1F NOT PUSH1 0x1F DUP3 ADD AND DUP3 ADD DUP1 PUSH1 0x40 MSTORE POP DUP2 ADD SWAP1 PUSH2 0x856 SWAP2 SWAP1 PUSH2 0x11CC JUMP JUMPDEST SWAP1 POP PUSH1 0x0 DUP2 GT PUSH2 0x8A0 JUMPI PUSH1 0x40 MLOAD PUSH3 0x461BCD PUSH1 0xE5 SHL DUP2 MSTORE PUSH1 0x20 PUSH1 0x4 DUP3 ADD MSTORE PUSH1 0x15 PUSH1 0x24 DUP3 ADD MSTORE PUSH21 0x4E6F20746F6B656E7320746F207769746864726177 PUSH1 0x58 SHL PUSH1 0x44 DUP3 ADD MSTORE PUSH1 0x64 ADD PUSH2 0x4B8 JUMP JUMPDEST PUSH1 0x4 DUP1 SLOAD PUSH1 0x40 MLOAD PUSH4 0xA9059CBB PUSH1 0xE0 SHL DUP2 MSTORE PUSH1 0x1 PUSH1 0x1 PUSH1 0xA0 SHL SUB DUP6 DUP2 AND SWAP4 DUP3 ADD SWAP4 SWAP1 SWAP4 MSTORE PUSH1 0x24 DUP2 ADD DUP5 SWAP1 MSTORE SWAP2 AND SWAP1 PUSH4 0xA9059CBB SWAP1 PUSH1 0x44 ADD PUSH1 0x20 PUSH1 0x40 MLOAD DUP1 DUP4 SUB DUP2 PUSH1 0x0 DUP8 GAS CALL ISZERO DUP1 ISZERO PUSH2 0x8F5 JUMPI RETURNDATASIZE PUSH1 0x0 DUP1 RETURNDATACOPY RETURNDATASIZE PUSH1 0x0 REVERT JUMPDEST POP POP POP POP PUSH1 0x40 MLOAD RETURNDATASIZE PUSH1 0x1F NOT PUSH1 0x1F DUP3 ADD AND DUP3 ADD DUP1 PUSH1 0x40 MSTORE POP DUP2 ADD SWAP1 PUSH2 0x919 SWAP2 SWAP1 PUSH2 0x11AA JUMP JUMPDEST POP POP POP JUMP JUMPDEST PUSH1 0x4 DUP1 SLOAD PUSH1 0x6 SLOAD PUSH1 0x40 MLOAD PUSH4 0x23B872DD PUSH1 0xE0 SHL DUP2 MSTORE CALLER SWAP4 DUP2 ADD SWAP4 SWAP1 SWAP4 MSTORE ADDRESS PUSH1 0x24 DUP5 ADD MSTORE PUSH1 0x44 DUP4 ADD MSTORE PUSH1 0x0 SWAP2 PUSH1 0x1 PUSH1 0x1 PUSH1 0xA0 SHL SUB SWAP1 SWAP2 AND SWAP1 PUSH4 0x23B872DD SWAP1 PUSH1 0x64 ADD PUSH1 0x20 PUSH1 0x40 MLOAD DUP1 DUP4 SUB DUP2 PUSH1 0x0 DUP8 GAS CALL ISZERO DUP1 ISZERO PUSH2 0x97C JUMPI RETURNDATASIZE PUSH1 0x0 DUP1 RETURNDATACOPY RETURNDATASIZE PUSH1 0x0 REVERT JUMPDEST POP POP POP POP PUSH1 0x40 MLOAD RETURNDATASIZE PUSH1 0x1F NOT PUSH1 0x1F DUP3 ADD AND DUP3 ADD DUP1 PUSH1 0x40 MSTORE POP DUP2 ADD SWAP1 PUSH2 0x9A0 SWAP2 SWAP1 PUSH2 0x11AA JUMP JUMPDEST PUSH2 0x9DD JUMPI PUSH1 0x40 MLOAD PUSH3 0x461BCD PUSH1 0xE5 SHL DUP2 MSTORE PUSH1 0x20 PUSH1 0x4 DUP3 ADD MSTORE PUSH1 0xE PUSH1 0x24 DUP3 ADD MSTORE PUSH14 0x14185E5B595B9D0819985A5B1959 PUSH1 0x92 SHL PUSH1 0x44 DUP3 ADD MSTORE PUSH1 0x64 ADD PUSH2 0x4B8 JUMP JUMPDEST PUSH1 0x7 DUP1 SLOAD PUSH1 0x0 SWAP2 DUP3 PUSH2 0x9EE DUP4 PUSH2 0x11E5 JUMP JUMPDEST SWAP1 SWAP2 SSTORE POP PUSH1 0x0 DUP2 DUP2 MSTORE PUSH1 0x9 PUSH1 0x20 SWAP1 DUP2 MSTORE PUSH1 0x40 DUP1 DUP4 KECCAK256 DUP1 SLOAD PUSH1 0x1 PUSH1 0x1 PUSH1 0xA0 SHL SUB NOT AND CALLER SWAP1 DUP2 OR SWAP1 SWAP2 SSTORE PUSH1 0xA DUP4 MSTORE DUP2 DUP5 KECCAK256 DUP9 SWAP1 SSTORE DUP1 DUP5 MSTORE PUSH1 0xB DUP4 MSTORE DUP2 DUP5 KECCAK256 DUP1 SLOAD PUSH1 0x1 DUP2 ADD DUP3 SSTORE SWAP1 DUP6 MSTORE SWAP4 DUP4 SWAP1 KECCAK256 SWAP1 SWAP4 ADD DUP5 SWAP1 SSTORE MLOAD DUP7 DUP2 MSTORE SWAP3 SWAP4 POP DUP4 SWAP3 PUSH32 0x72C53221606C87CA0297D0CA75A8E5A8570F1AAFD457CF9ADB2AD19588FBF3F7 SWAP2 ADD PUSH1 0x40 MLOAD DUP1 SWAP2 SUB SWAP1 LOG3 SWAP3 SWAP2 POP POP JUMP JUMPDEST PUSH1 0x1 PUSH1 0x1 PUSH1 0xA0 SHL SUB DUP2 AND PUSH1 0x0 SWAP1 DUP2 MSTORE PUSH1 0xB PUSH1 0x20 SWAP1 DUP2 MSTORE PUSH1 0x40 SWAP2 DUP3 SWAP1 KECCAK256 DUP1 SLOAD DUP4 MLOAD DUP2 DUP5 MUL DUP2 ADD DUP5 ADD SWAP1 SWAP5 MSTORE DUP1 DUP5 MSTORE PUSH1 0x60 SWAP4 SWAP3 DUP4 ADD DUP3 DUP3 DUP1 ISZERO PUSH2 0xAD9 JUMPI PUSH1 0x20 MUL DUP3 ADD SWAP2 SWAP1 PUSH1 0x0 MSTORE PUSH1 0x20 PUSH1 0x0 KECCAK256 SWAP1 JUMPDEST DUP2 SLOAD DUP2 MSTORE PUSH1 0x20 ADD SWAP1 PUSH1 0x1 ADD SWAP1 DUP1 DUP4 GT PUSH2 0xAC5 JUMPI JUMPDEST POP POP POP POP POP SWAP1 POP SWAP2 SWAP1 POP JUMP JUMPDEST PUSH1 0x5 SLOAD PUSH1 0x1 PUSH1 0x1 PUSH1 0xA0 SHL SUB AND CALLER EQ PUSH2 0xB2C JUMPI PUSH1 0x40 MLOAD PUSH3 0x461BCD PUSH1 0xE5 SHL DUP2 MSTORE PUSH1 0x20 PUSH1 0x4 DUP3 ADD MSTORE PUSH1 0xA PUSH1 0x24 DUP3 ADD MSTORE PUSH10 0x27B7363C9030B236B4B7 PUSH1 0xB1 SHL PUSH1 0x44 DUP3 ADD MSTORE PUSH1 0x64 ADD PUSH2 0x4B8 JUMP JUMPDEST PUSH1 0x6 DUP2 SWAP1 SSTORE PUSH1 0x40 MLOAD DUP2 DUP2 MSTORE PUSH32 0x66CBCA4F3C64FECF1DCB9CE094ABCF7F68C3450A1D4E3A8E917DD621EDB4EBE0 SWAP1 PUSH1 0x20 ADD PUSH1 0x40 MLOAD DUP1 SWAP2 SUB SWAP1 LOG1 POP JUMP JUMPDEST PUSH1 0x0 DUP3 DUP2 MSTORE PUSH1 0x20 DUP2 SWAP1 MSTORE PUSH1 0x40 DUP2 KECCAK256 SLOAD PUSH1 0xFF AND PUSH1 0x2 DUP2 GT ISZERO PUSH2 0xB8A JUMPI PUSH2 0xB8A PUSH2 0x1085 JUMP JUMPDEST EQ PUSH2 0xBCD JUMPI PUSH1 0x40 MLOAD PUSH3 0x461BCD PUSH1 0xE5 SHL DUP2 MSTORE PUSH1 0x20 PUSH1 0x4 DUP3 ADD MSTORE PUSH1 0x13 PUSH1 0x24 DUP3 ADD MSTORE PUSH19 0x4E6F746520616C726561647920657869737473 PUSH1 0x68 SHL PUSH1 0x44 DUP3 ADD MSTORE PUSH1 0x64 ADD PUSH2 0x4B8 JUMP JUMPDEST PUSH1 0x0 DUP3 DUP2 MSTORE PUSH1 0x20 DUP2 DUP2 MSTORE PUSH1 0x40 DUP1 DUP4 KECCAK256 DUP1 SLOAD PUSH1 0xFF NOT AND PUSH1 0x1 OR SWAP1 SSTORE PUSH1 0x2 SWAP1 SWAP2 MSTORE SWAP1 KECCAK256 PUSH2 0xBF8 DUP3 DUP3 PUSH2 0x125A JUMP JUMPDEST POP DUP2 PUSH32 0x11D80DBC601487E7D7CCB4DD72CA753222F44DF72D69E388DF7C549CFEBE3126 DUP3 PUSH1 0x40 MLOAD PUSH2 0xC29 SWAP2 SWAP1 PUSH2 0xD6A JUMP JUMPDEST PUSH1 0x40 MLOAD DUP1 SWAP2 SUB SWAP1 LOG2 POP POP JUMP JUMPDEST PUSH1 0x1 PUSH1 0x0 DUP4 DUP2 MSTORE PUSH1 0x20 DUP2 SWAP1 MSTORE PUSH1 0x40 SWAP1 KECCAK256 SLOAD PUSH1 0xFF AND PUSH1 0x2 DUP2 GT ISZERO PUSH2 0xC5A JUMPI PUSH2 0xC5A PUSH2 0x1085 JUMP JUMPDEST EQ PUSH2 0xC98 JUMPI PUSH1 0x40 MLOAD PUSH3 0x461BCD PUSH1 0xE5 SHL DUP2 MSTORE PUSH1 0x20 PUSH1 0x4 DUP3 ADD MSTORE PUSH1 0xE PUSH1 0x24 DUP3 ADD MSTORE PUSH14 0x139BDD19481B9BDD081D985B1A59 PUSH1 0x92 SHL PUSH1 0x44 DUP3 ADD MSTORE PUSH1 0x64 ADD PUSH2 0x4B8 JUMP JUMPDEST PUSH1 0x0 DUP2 DUP2 MSTORE PUSH1 0x1 PUSH1 0x20 MSTORE PUSH1 0x40 SWAP1 KECCAK256 SLOAD PUSH1 0xFF AND ISZERO PUSH2 0xCF0 JUMPI PUSH1 0x40 MLOAD PUSH3 0x461BCD PUSH1 0xE5 SHL DUP2 MSTORE PUSH1 0x20 PUSH1 0x4 DUP3 ADD MSTORE PUSH1 0x16 PUSH1 0x24 DUP3 ADD MSTORE PUSH22 0x139D5B1B1A599A595C88185B1C9958591E481D5CD959 PUSH1 0x52 SHL PUSH1 0x44 DUP3 ADD MSTORE PUSH1 0x64 ADD PUSH2 0x4B8 JUMP JUMPDEST PUSH1 0x0 DUP3 DUP2 MSTORE PUSH1 0x20 DUP2 DUP2 MSTORE PUSH1 0x40 DUP1 DUP4 KECCAK256 DUP1 SLOAD PUSH1 0xFF NOT SWAP1 DUP2 AND PUSH1 0x2 OR SWAP1 SWAP2 SSTORE DUP5 DUP5 MSTORE PUSH1 0x1 SWAP3 DUP4 SWAP1 MSTORE DUP2 DUP5 KECCAK256 DUP1 SLOAD SWAP1 SWAP2 AND SWAP1 SWAP3 OR SWAP1 SWAP2 SSTORE MLOAD DUP3 SWAP2 DUP5 SWAP2 PUSH32 0x39FA62302B0F0FCCB244FBD909EC86E1A28D4B765B936467C70873D3FCB1497 SWAP2 SWAP1 LOG3 POP POP JUMP JUMPDEST PUSH1 0x0 PUSH1 0x20 DUP3 DUP5 SUB SLT ISZERO PUSH2 0xD63 JUMPI PUSH1 0x0 DUP1 REVERT JUMPDEST POP CALLDATALOAD SWAP2 SWAP1 POP JUMP JUMPDEST PUSH1 0x0 PUSH1 0x20 DUP1 DUP4 MSTORE DUP4 MLOAD DUP1 DUP3 DUP6 ADD MSTORE PUSH1 0x0 JUMPDEST DUP2 DUP2 LT ISZERO PUSH2 0xD97 JUMPI DUP6 DUP2 ADD DUP4 ADD MLOAD DUP6 DUP3 ADD PUSH1 0x40 ADD MSTORE DUP3 ADD PUSH2 0xD7B JUMP JUMPDEST POP PUSH1 0x0 PUSH1 0x40 DUP3 DUP7 ADD ADD MSTORE PUSH1 0x40 PUSH1 0x1F NOT PUSH1 0x1F DUP4 ADD AND DUP6 ADD ADD SWAP3 POP POP POP SWAP3 SWAP2 POP POP JUMP JUMPDEST PUSH4 0x4E487B71 PUSH1 0xE0 SHL PUSH1 0x0 MSTORE PUSH1 0x41 PUSH1 0x4 MSTORE PUSH1 0x24 PUSH1 0x0 REVERT JUMPDEST PUSH1 0x40 DUP1 MLOAD SWAP1 DUP2 ADD PUSH8 0xFFFFFFFFFFFFFFFF DUP2 GT DUP3 DUP3 LT OR ISZERO PUSH2 0xDF1 JUMPI PUSH2 0xDF1 PUSH2 0xDB8 JUMP JUMPDEST PUSH1 0x40 MSTORE SWAP1 JUMP JUMPDEST PUSH1 0x0 DUP3 PUSH1 0x1F DUP4 ADD SLT PUSH2 0xE08 JUMPI PUSH1 0x0 DUP1 REVERT JUMPDEST DUP2 CALLDATALOAD PUSH8 0xFFFFFFFFFFFFFFFF DUP1 DUP3 GT ISZERO PUSH2 0xE23 JUMPI PUSH2 0xE23 PUSH2 0xDB8 JUMP JUMPDEST PUSH1 0x40 MLOAD PUSH1 0x1F DUP4 ADD PUSH1 0x1F NOT SWAP1 DUP2 AND PUSH1 0x3F ADD AND DUP2 ADD SWAP1 DUP3 DUP3 GT DUP2 DUP4 LT OR ISZERO PUSH2 0xE4B JUMPI PUSH2 0xE4B PUSH2 0xDB8 JUMP JUMPDEST DUP2 PUSH1 0x40 MSTORE DUP4 DUP2 MSTORE DUP7 PUSH1 0x20 DUP6 DUP9 ADD ADD GT ISZERO PUSH2 0xE64 JUMPI PUSH1 0x0 DUP1 REVERT JUMPDEST DUP4 PUSH1 0x20 DUP8 ADD PUSH1 0x20 DUP4 ADD CALLDATACOPY PUSH1 0x0 PUSH1 0x20 DUP6 DUP4 ADD ADD MSTORE DUP1 SWAP5 POP POP POP POP POP SWAP3 SWAP2 POP POP JUMP JUMPDEST PUSH1 0x0 DUP1 PUSH1 0x0 PUSH1 0x60 DUP5 DUP7 SUB SLT ISZERO PUSH2 0xE99 JUMPI PUSH1 0x0 DUP1 REVERT JUMPDEST DUP4 CALLDATALOAD SWAP3 POP PUSH1 0x20 DUP5 ADD CALLDATALOAD SWAP2 POP PUSH1 0x40 DUP5 ADD CALLDATALOAD PUSH8 0xFFFFFFFFFFFFFFFF DUP2 GT ISZERO PUSH2 0xEBE JUMPI PUSH1 0x0 DUP1 REVERT JUMPDEST PUSH2 0xECA DUP7 DUP3 DUP8 ADD PUSH2 0xDF7 JUMP JUMPDEST SWAP2 POP POP SWAP3 POP SWAP3 POP SWAP3 JUMP JUMPDEST PUSH1 0x0 DUP3 PUSH1 0x1F DUP4 ADD SLT PUSH2 0xEE5 JUMPI PUSH1 0x0 DUP1 REVERT JUMPDEST PUSH2 0xEED PUSH2 0xDCE JUMP JUMPDEST DUP1 PUSH1 0x40 DUP5 ADD DUP6 DUP2 GT ISZERO PUSH2 0xEFF JUMPI PUSH1 0x0 DUP1 REVERT JUMPDEST DUP5 JUMPDEST DUP2 DUP2 LT ISZERO PUSH2 0xF19 JUMPI DUP1 CALLDATALOAD DUP5 MSTORE PUSH1 0x20 SWAP4 DUP5 ADD SWAP4 ADD PUSH2 0xF01 JUMP JUMPDEST POP SWAP1 SWAP6 SWAP5 POP POP POP POP POP JUMP JUMPDEST PUSH1 0x0 DUP1 PUSH1 0x0 DUP1 PUSH1 0x0 DUP1 PUSH1 0x0 DUP1 PUSH1 0x0 PUSH2 0x1C0 DUP11 DUP13 SUB SLT ISZERO PUSH2 0xF43 JUMPI PUSH1 0x0 DUP1 REVERT JUMPDEST PUSH2 0xF4D DUP12 DUP12 PUSH2 0xED4 JUMP JUMPDEST SWAP9 POP DUP11 PUSH1 0x5F DUP12 ADD SLT PUSH2 0xF5E JUMPI PUSH1 0x0 DUP1 REVERT JUMPDEST PUSH2 0xF66 PUSH2 0xDCE JUMP JUMPDEST DUP1 PUSH1 0xC0 DUP13 ADD DUP14 DUP2 GT ISZERO PUSH2 0xF78 JUMPI PUSH1 0x0 DUP1 REVERT JUMPDEST PUSH1 0x40 DUP14 ADD JUMPDEST DUP2 DUP2 LT ISZERO PUSH2 0xF9F JUMPI PUSH2 0xF8F DUP16 DUP3 PUSH2 0xED4 JUMP JUMPDEST DUP5 MSTORE PUSH1 0x20 SWAP1 SWAP4 ADD SWAP3 PUSH1 0x40 ADD PUSH2 0xF7D JUMP JUMPDEST POP DUP2 SWAP11 POP PUSH2 0xFAD DUP15 DUP3 PUSH2 0xED4 JUMP JUMPDEST SWAP10 POP POP POP POP PUSH2 0x100 DUP11 ADD CALLDATALOAD SWAP6 POP PUSH2 0x120 DUP11 ADD CALLDATALOAD SWAP5 POP PUSH2 0x140 DUP11 ADD CALLDATALOAD SWAP4 POP PUSH2 0x160 DUP11 ADD CALLDATALOAD SWAP3 POP PUSH2 0x180 DUP11 ADD CALLDATALOAD SWAP2 POP PUSH2 0x1A0 DUP11 ADD CALLDATALOAD PUSH8 0xFFFFFFFFFFFFFFFF DUP2 GT ISZERO PUSH2 0xFF5 JUMPI PUSH1 0x0 DUP1 REVERT JUMPDEST PUSH2 0x1001 DUP13 DUP3 DUP14 ADD PUSH2 0xDF7 JUMP JUMPDEST SWAP2 POP POP SWAP3 SWAP6 SWAP9 POP SWAP3 SWAP6 SWAP9 POP SWAP3 SWAP6 SWAP9 JUMP JUMPDEST PUSH1 0x0 PUSH1 0x20 DUP3 DUP5 SUB SLT ISZERO PUSH2 0x1023 JUMPI PUSH1 0x0 DUP1 REVERT JUMPDEST DUP2 CALLDATALOAD PUSH1 0x1 PUSH1 0x1 PUSH1 0xA0 SHL SUB DUP2 AND DUP2 EQ PUSH2 0x103A JUMPI PUSH1 0x0 DUP1 REVERT JUMPDEST SWAP4 SWAP3 POP POP POP JUMP JUMPDEST PUSH1 0x20 DUP1 DUP3 MSTORE DUP3 MLOAD DUP3 DUP3 ADD DUP2 SWAP1 MSTORE PUSH1 0x0 SWAP2 SWAP1 DUP5 DUP3 ADD SWAP1 PUSH1 0x40 DUP6 ADD SWAP1 DUP5 JUMPDEST DUP2 DUP2 LT ISZERO PUSH2 0x1079 JUMPI DUP4 MLOAD DUP4 MSTORE SWAP3 DUP5 ADD SWAP3 SWAP2 DUP5 ADD SWAP2 PUSH1 0x1 ADD PUSH2 0x105D JUMP JUMPDEST POP SWAP1 SWAP7 SWAP6 POP POP POP POP POP POP JUMP JUMPDEST PUSH4 0x4E487B71 PUSH1 0xE0 SHL PUSH1 0x0 MSTORE PUSH1 0x21 PUSH1 0x4 MSTORE PUSH1 0x24 PUSH1 0x0 REVERT JUMPDEST PUSH1 0x20 DUP2 ADD PUSH1 0x3 DUP4 LT PUSH2 0x10BD JUMPI PUSH4 0x4E487B71 PUSH1 0xE0 SHL PUSH1 0x0 MSTORE PUSH1 0x21 PUSH1 0x4 MSTORE PUSH1 0x24 PUSH1 0x0 REVERT JUMPDEST SWAP2 SWAP1 MSTORE SWAP1 JUMP JUMPDEST PUSH1 0x1 DUP2 DUP2 SHR SWAP1 DUP3 AND DUP1 PUSH2 0x10D7 JUMPI PUSH1 0x7F DUP3 AND SWAP2 POP JUMPDEST PUSH1 0x20 DUP3 LT DUP2 SUB PUSH2 0x10F7 JUMPI PUSH4 0x4E487B71 PUSH1 0xE0 SHL PUSH1 0x0 MSTORE PUSH1 0x22 PUSH1 0x4 MSTORE PUSH1 0x24 PUSH1 0x0 REVERT JUMPDEST POP SWAP2 SWAP1 POP JUMP JUMPDEST DUP1 PUSH1 0x0 JUMPDEST PUSH1 0x2 DUP2 LT ISZERO PUSH2 0x1120 JUMPI DUP2 MLOAD DUP5 MSTORE PUSH1 0x20 SWAP4 DUP5 ADD SWAP4 SWAP1 SWAP2 ADD SWAP1 PUSH1 0x1 ADD PUSH2 0x1101 JUMP JUMPDEST POP POP POP POP JUMP JUMPDEST PUSH2 0x1A0 DUP2 ADD PUSH2 0x1135 DUP3 DUP8 PUSH2 0x10FD JUMP JUMPDEST PUSH1 0x40 DUP1 DUP4 ADD DUP7 PUSH1 0x0 JUMPDEST PUSH1 0x2 DUP2 LT ISZERO PUSH2 0x1165 JUMPI PUSH2 0x1152 DUP4 DUP4 MLOAD PUSH2 0x10FD JUMP JUMPDEST SWAP2 DUP4 ADD SWAP2 PUSH1 0x20 SWAP2 SWAP1 SWAP2 ADD SWAP1 PUSH1 0x1 ADD PUSH2 0x113E JUMP JUMPDEST POP POP POP POP PUSH2 0x1176 PUSH1 0xC0 DUP4 ADD DUP6 PUSH2 0x10FD JUMP JUMPDEST PUSH2 0x100 DUP3 ADD DUP4 PUSH1 0x0 JUMPDEST PUSH1 0x5 DUP2 LT ISZERO PUSH2 0x119E JUMPI DUP2 MLOAD DUP4 MSTORE PUSH1 0x20 SWAP3 DUP4 ADD SWAP3 SWAP1 SWAP2 ADD SWAP1 PUSH1 0x1 ADD PUSH2 0x117F JUMP JUMPDEST POP POP POP SWAP6 SWAP5 POP POP POP POP POP JUMP JUMPDEST PUSH1 0x0 PUSH1 0x20 DUP3 DUP5 SUB SLT ISZERO PUSH2 0x11BC JUMPI PUSH1 0x0 DUP1 REVERT JUMPDEST DUP2 MLOAD DUP1 ISZERO ISZERO DUP2 EQ PUSH2 0x103A JUMPI PUSH1 0x0 DUP1 REVERT JUMPDEST PUSH1 0x0 PUSH1 0x20 DUP3 DUP5 SUB SLT ISZERO PUSH2 0x11DE JUMPI PUSH1 0x0 DUP1 REVERT JUMPDEST POP MLOAD SWAP2 SWAP1 POP JUMP JUMPDEST PUSH1 0x0 PUSH1 0x1 DUP3 ADD PUSH2 0x1205 JUMPI PUSH4 0x4E487B71 PUSH1 0xE0 SHL PUSH1 0x0 MSTORE PUSH1 0x11 PUSH1 0x4 MSTORE PUSH1 0x24 PUSH1 0x0 REVERT JUMPDEST POP PUSH1 0x1 ADD SWAP1 JUMP JUMPDEST PUSH1 0x1F DUP3 GT ISZERO PUSH2 0x919 JUMPI PUSH1 0x0 DUP2 DUP2 MSTORE PUSH1 0x20 DUP2 KECCAK256 PUSH1 0x1F DUP6 ADD PUSH1 0x5 SHR DUP2 ADD PUSH1 0x20 DUP7 LT ISZERO PUSH2 0x1233 JUMPI POP DUP1 JUMPDEST PUSH1 0x1F DUP6 ADD PUSH1 0x5 SHR DUP3 ADD SWAP2 POP JUMPDEST DUP2 DUP2 LT ISZERO PUSH2 0x1252 JUMPI DUP3 DUP2 SSTORE PUSH1 0x1 ADD PUSH2 0x123F JUMP JUMPDEST POP POP POP POP POP POP JUMP JUMPDEST DUP2 MLOAD PUSH8 0xFFFFFFFFFFFFFFFF DUP2 GT ISZERO PUSH2 0x1274 JUMPI PUSH2 0x1274 PUSH2 0xDB8 JUMP JUMPDEST PUSH2 0x1288 DUP2 PUSH2 0x1282 DUP5 SLOAD PUSH2 0x10C3 JUMP JUMPDEST DUP5 PUSH2 0x120C JUMP JUMPDEST PUSH1 0x20 DUP1 PUSH1 0x1F DUP4 GT PUSH1 0x1 DUP2 EQ PUSH2 0x12BD JUMPI PUSH1 0x0 DUP5 ISZERO PUSH2 0x12A5 JUMPI POP DUP6 DUP4 ADD MLOAD JUMPDEST PUSH1 0x0 NOT PUSH1 0x3 DUP7 SWAP1 SHL SHR NOT AND PUSH1 0x1 DUP6 SWAP1 SHL OR DUP6 SSTORE PUSH2 0x1252 JUMP JUMPDEST PUSH1 0x0 DUP6 DUP2 MSTORE PUSH1 0x20 DUP2 KECCAK256 PUSH1 0x1F NOT DUP7 AND SWAP2 JUMPDEST DUP3 DUP2 LT ISZERO PUSH2 0x12EC JUMPI DUP9 DUP7 ADD MLOAD DUP3 SSTORE SWAP5 DUP5 ADD SWAP5 PUSH1 0x1 SWAP1 SWAP2 ADD SWAP1 DUP5 ADD PUSH2 0x12CD JUMP JUMPDEST POP DUP6 DUP3 LT ISZERO PUSH2 0x130A JUMPI DUP8 DUP6 ADD MLOAD PUSH1 0x0 NOT PUSH1 0x3 DUP9 SWAP1 SHL PUSH1 0xF8 AND SHR NOT AND DUP2 SSTORE JUMPDEST POP POP POP POP POP PUSH1 0x1 SWAP1 DUP2 SHL ADD SWAP1 SSTORE POP JUMP INVALID LOG2 PUSH5 0x6970667358 0x22 SLT KECCAK256 NOT 0xD0 LOG4 EXTCODESIZE 0x22 DUP1 0xAF 0xED 0x24 PUSH28 0x333C825AB7190B9D8D7C2DB0B832D961BF391784581764736F6C6343 STOP ADDMOD EQ STOP CALLER "},"methodIdentifiers":{"admin()":"f851a440","boxOwner(uint256)":"46c151b7","boxPrice()":"a6482858","boxTypes(uint256)":"3a931a1d","boxVerifier()":"16d599da","encryptedNotes(bytes32)":"14107a94","getBoxInfo(uint256)":"79494afe","getMyBoxes(address)":"76482f93","getNoteState(bytes32)":"83091c37","isNullifierUsed(bytes32)":"22dc7b4c","mintBox(uint256)":"537e5ec3","nextBoxId()":"5ebad500","notes(bytes32)":"85de26b7","nullifiers(bytes32)":"2997e86b","openBox(uint256[2],uint256[2][2],uint256[2],bytes32,bytes32,uint256,uint256,bytes32,bytes)":"368ac949","paymentToken()":"3013ce29","registerBox(bytes32,uint256,bytes)":"3155003e","registeredBoxes(uint256)":"987631cf","setBoxPrice(uint256)":"f7dbea3e","withdrawTokens(address)":"49df728c"}}}}}