{"contracts/GamingItemTrade.sol":{"GamingItemTrade":{"abi":[{"inputs":[{"internalType":"address","name":"_tradeVerifier","type":"address"}],"stateMutability":"nonpayable","type":"constructor"},{"anonymous":false,"inputs":[{"indexed":true,"internalType":"uint256","name":"gameId","type":"uint256"},{"indexed":true,"internalType":"uint256","name":"itemId","type":"uint256"},{"indexed":false,"internalType":"bytes32","name":"noteHash","type":"bytes32"}],"name":"ItemRegistered","type":"event"},{"anonymous":false,"inputs":[{"indexed":true,"internalType":"bytes32","name":"oldItemHash","type":"bytes32"},{"indexed":true,"internalType":"bytes32","name":"newItemHash","type":"bytes32"},{"indexed":false,"internalType":"bytes32","name":"nullifier","type":"bytes32"}],"name":"ItemTraded","type":"event"},{"anonymous":false,"inputs":[{"indexed":true,"internalType":"bytes32","name":"noteHash","type":"bytes32"},{"indexed":false,"internalType":"bytes","name":"encryptedNote","type":"bytes"}],"name":"NoteCreated","type":"event"},{"anonymous":false,"inputs":[{"indexed":true,"internalType":"bytes32","name":"noteHash","type":"bytes32"},{"indexed":true,"internalType":"bytes32","name":"nullifier","type":"bytes32"}],"name":"NoteSpent","type":"event"},{"inputs":[{"internalType":"bytes32","name":"","type":"bytes32"}],"name":"encryptedNotes","outputs":[{"internalType":"bytes","name":"","type":"bytes"}],"stateMutability":"view","type":"function"},{"inputs":[{"internalType":"bytes32","name":"noteHash","type":"bytes32"}],"name":"getNoteState","outputs":[{"internalType":"enum NFTNoteBase.NoteState","name":"","type":"uint8"}],"stateMutability":"view","type":"function"},{"inputs":[{"internalType":"bytes32","name":"nullifier","type":"bytes32"}],"name":"isNullifierUsed","outputs":[{"internalType":"bool","name":"","type":"bool"}],"stateMutability":"view","type":"function"},{"inputs":[{"internalType":"bytes32","name":"","type":"bytes32"}],"name":"notes","outputs":[{"internalType":"enum NFTNoteBase.NoteState","name":"","type":"uint8"}],"stateMutability":"view","type":"function"},{"inputs":[{"internalType":"bytes32","name":"","type":"bytes32"}],"name":"nullifiers","outputs":[{"internalType":"bool","name":"","type":"bool"}],"stateMutability":"view","type":"function"},{"inputs":[{"internalType":"bytes32","name":"noteHash","type":"bytes32"},{"internalType":"uint256","name":"gameId","type":"uint256"},{"internalType":"uint256","name":"itemId","type":"uint256"},{"internalType":"bytes","name":"encryptedNote","type":"bytes"}],"name":"registerItem","outputs":[],"stateMutability":"nonpayable","type":"function"},{"inputs":[{"internalType":"uint256","name":"","type":"uint256"},{"internalType":"uint256","name":"","type":"uint256"}],"name":"registeredItems","outputs":[{"internalType":"bool","name":"","type":"bool"}],"stateMutability":"view","type":"function"},{"inputs":[{"internalType":"uint256[2]","name":"a","type":"uint256[2]"},{"internalType":"uint256[2][2]","name":"b","type":"uint256[2][2]"},{"internalType":"uint256[2]","name":"c","type":"uint256[2]"},{"internalType":"bytes32","name":"oldItemHash","type":"bytes32"},{"internalType":"bytes32","name":"newItemHash","type":"bytes32"},{"internalType":"bytes32","name":"paymentNoteHash","type":"bytes32"},{"internalType":"uint256","name":"gameId","type":"uint256"},{"internalType":"bytes32","name":"nullifier","type":"bytes32"},{"internalType":"bytes","name":"encryptedNote","type":"bytes"}],"name":"tradeItem","outputs":[],"stateMutability":"nonpayable","type":"function"},{"inputs":[],"name":"tradeVerifier","outputs":[{"internalType":"contract IGamingItemTradeVerifier","name":"","type":"address"}],"stateMutability":"view","type":"function"}],"evm":{"bytecode":{"linkReferences":{},"object":"608060405234801561001057600080fd5b50604051610d75380380610d7583398101604081905261002f91610054565b600380546001600160a01b0319166001600160a01b0392909216919091179055610084565b60006020828403121561006657600080fd5b81516001600160a01b038116811461007d57600080fd5b9392505050565b610ce2806100936000396000f3fe608060405234801561001057600080fd5b50600436106100935760003560e01c80632b864ff6116100665780632b864ff61461014557806383091c371461017057806385de26b7146101a05780639a4f86e0146101c3578063c045160e146101d857600080fd5b806314107a9414610098578063172b79d9146100c157806322dc7b4c146100ff5780632997e86b14610122575b600080fd5b6100ab6100a6366004610763565b6101eb565b6040516100b8919061077c565b60405180910390f35b6100ef6100cf3660046107ca565b600460209081526000928352604080842090915290825290205460ff1681565b60405190151581526020016100b8565b6100ef61010d366004610763565b60009081526001602052604090205460ff1690565b6100ef610130366004610763565b60016020526000908152604090205460ff1681565b600354610158906001600160a01b031681565b6040516001600160a01b0390911681526020016100b8565b61019361017e366004610763565b60009081526020819052604090205460ff1690565b6040516100b89190610802565b6101936101ae366004610763565b60006020819052908152604090205460ff1681565b6101d66101d1366004610946565b610285565b005b6101d66101e6366004610a33565b6104a0565b6002602052600090815260409020805461020490610a8d565b80601f016020809104026020016040519081016040528092919081815260200182805461023090610a8d565b801561027d5780601f106102525761010080835404028352916020019161027d565b820191906000526020600020905b81548152906001019060200180831161026057829003601f168201915b505050505081565b85600160008281526020819052604090205460ff1660028111156102ab576102ab6107ec565b146103095760405162461bcd60e51b8152602060048201526024808201527f4e6f746520646f6573206e6f74206578697374206f7220616c726561647920736044820152631c195b9d60e21b60648201526084015b60405180910390fd5b600083815260016020526040902054839060ff16156103635760405162461bcd60e51b8152602060048201526016602482015275139d5b1b1a599a595c88185b1c9958591e481d5cd95960521b6044820152606401610300565b6040805160a08101825289815260208101899052808201889052606081018790526080810186905260035491516334baeab960e01b815290916001600160a01b0316906334baeab9906103c0908f908f908f908790600401610af0565b602060405180830381865afa1580156103dd573d6000803e3d6000fd5b505050506040513d601f19601f820116820180604052508101906104019190610b74565b6104435760405162461bcd60e51b815260206004820152601360248201527224b73b30b634b2103a3930b23290383937b7b360691b6044820152606401610300565b61044d8986610579565b6104578885610695565b87897fb8cee0d2c7a124d60f5e6e5a8802172a432d368bed680a5c91fc2848f9ae5e6e8760405161048a91815260200190565b60405180910390a3505050505050505050505050565b600083815260046020908152604080832085845290915290205460ff161561050a5760405162461bcd60e51b815260206004820152601760248201527f4974656d20616c726561647920726567697374657265640000000000000000006044820152606401610300565b60008381526004602090815260408083208584529091529020805460ff191660011790556105388482610695565b81837f810658469964a930b7c6462e2b996cb6ffa3d9354f5e0b5a9618fe215a7fcf998660405161056b91815260200190565b60405180910390a350505050565b600160008381526020819052604090205460ff16600281111561059e5761059e6107ec565b146105dc5760405162461bcd60e51b815260206004820152600e60248201526d139bdd19481b9bdd081d985b1a5960921b6044820152606401610300565b60008181526001602052604090205460ff16156106345760405162461bcd60e51b8152602060048201526016602482015275139d5b1b1a599a595c88185b1c9958591e481d5cd95960521b6044820152606401610300565b600082815260208181526040808320805460ff19908116600217909155848452600192839052818420805490911690921790915551829184917f039fa62302b0f0fccb244fbd909ec86e1a28d4b765b936467c70873d3fcb14979190a35050565b60008281526020819052604081205460ff1660028111156106b8576106b86107ec565b146106fb5760405162461bcd60e51b81526020600482015260136024820152724e6f746520616c72656164792065786973747360681b6044820152606401610300565b600082815260208181526040808320805460ff19166001179055600290915290206107268282610bec565b50817f11d80dbc601487e7d7ccb4dd72ca753222f44df72d69e388df7c549cfebe312682604051610757919061077c565b60405180910390a25050565b60006020828403121561077557600080fd5b5035919050565b600060208083528351808285015260005b818110156107a95785810183015185820160400152820161078d565b506000604082860101526040601f19601f8301168501019250505092915050565b600080604083850312156107dd57600080fd5b50508035926020909101359150565b634e487b7160e01b600052602160045260246000fd5b602081016003831061082457634e487b7160e01b600052602160045260246000fd5b91905290565b634e487b7160e01b600052604160045260246000fd5b6040805190810167ffffffffffffffff811182821017156108635761086361082a565b60405290565b600082601f83011261087a57600080fd5b610882610840565b80604084018581111561089457600080fd5b845b818110156108ae578035845260209384019301610896565b509095945050505050565b600082601f8301126108ca57600080fd5b813567ffffffffffffffff808211156108e5576108e561082a565b604051601f8301601f19908116603f0116810190828211818310171561090d5761090d61082a565b8160405283815286602085880101111561092657600080fd5b836020870160208301376000602085830101528094505050505092915050565b60008060008060008060008060006101c08a8c03121561096557600080fd5b61096f8b8b610869565b98508a605f8b011261098057600080fd5b610988610840565b8060c08c018d81111561099a57600080fd5b60408d015b818110156109c1576109b18f82610869565b845260209093019260400161099f565b50819a506109cf8e82610869565b99505050506101008a013595506101208a013594506101408a013593506101608a013592506101808a013591506101a08a013567ffffffffffffffff811115610a1757600080fd5b610a238c828d016108b9565b9150509295985092959850929598565b60008060008060808587031215610a4957600080fd5b843593506020850135925060408501359150606085013567ffffffffffffffff811115610a7557600080fd5b610a81878288016108b9565b91505092959194509250565b600181811c90821680610aa157607f821691505b602082108103610ac157634e487b7160e01b600052602260045260246000fd5b50919050565b8060005b6002811015610aea578151845260209384019390910190600101610acb565b50505050565b6101a08101610aff8287610ac7565b60408083018660005b6002811015610b2f57610b1c838351610ac7565b9183019160209190910190600101610b08565b50505050610b4060c0830185610ac7565b61010082018360005b6005811015610b68578151835260209283019290910190600101610b49565b50505095945050505050565b600060208284031215610b8657600080fd5b81518015158114610b9657600080fd5b9392505050565b601f821115610be757600081815260208120601f850160051c81016020861015610bc45750805b601f850160051c820191505b81811015610be357828155600101610bd0565b5050505b505050565b815167ffffffffffffffff811115610c0657610c0661082a565b610c1a81610c148454610a8d565b84610b9d565b602080601f831160018114610c4f5760008415610c375750858301515b600019600386901b1c1916600185901b178555610be3565b600085815260208120601f198616915b82811015610c7e57888601518255948401946001909101908401610c5f565b5085821015610c9c5787850151600019600388901b60f8161c191681555b5050505050600190811b0190555056fea264697066735822122094f39088af3fc7f5fe1359b9c1b979adea363cbe6ac7f1b7c652546a081e302564736f6c63430008140033","opcodes":"PUSH1 0x80 PUSH1 0x40 MSTORE CALLVALUE DUP1 ISZERO PUSH2 0x10 JUMPI PUSH1 0x0 DUP1 REVERT JUMPDEST POP PUSH1 0x40 MLOAD PUSH2 0xD75 CODESIZE SUB DUP1 PUSH2 0xD75 DUP4 CODECOPY DUP2 ADD PUSH1 0x40 DUP2 SWAP1 MSTORE PUSH2 0x2F SWAP2 PUSH2 0x54 JUMP JUMPDEST PUSH1 0x3 DUP1 SLOAD PUSH1 0x1 PUSH1 0x1 PUSH1 0xA0 SHL SUB NOT AND PUSH1 0x1 PUSH1 0x1 PUSH1 0xA0 SHL SUB SWAP3 SWAP1 SWAP3 AND SWAP2 SWAP1 SWAP2 OR SWAP1 SSTORE PUSH2 0x84 JUMP JUMPDEST PUSH1 0x0 PUSH1 0x20 DUP3 DUP5 SUB SLT ISZERO PUSH2 0x66 JUMPI PUSH1 0x0 DUP1 REVERT JUMPDEST DUP2 MLOAD PUSH1 0x1 PUSH1 0x1 PUSH1 0xA0 SHL SUB DUP2 AND DUP2 EQ PUSH2 0x7D JUMPI PUSH1 0x0 DUP1 REVERT JUMPDEST SWAP4 SWAP3 POP POP POP JUMP JUMPDEST PUSH2 0xCE2 DUP1 PUSH2 0x93 PUSH1 0x0 CODECOPY PUSH1 0x0 RETURN INVALID PUSH1 0x80 PUSH1 0x40 MSTORE CALLVALUE DUP1 ISZERO PUSH2 0x10 JUMPI PUSH1 0x0 DUP1 REVERT JUMPDEST POP PUSH1 0x4 CALLDATASIZE LT PUSH2 0x93 JUMPI PUSH1 0x0 CALLDATALOAD PUSH1 0xE0 SHR DUP1 PUSH4 0x2B864FF6 GT PUSH2 0x66 JUMPI DUP1 PUSH4 0x2B864FF6 EQ PUSH2 0x145 JUMPI DUP1 PUSH4 0x83091C37 EQ PUSH2 0x170 JUMPI DUP1 PUSH4 0x85DE26B7 EQ PUSH2 0x1A0 JUMPI DUP1 PUSH4 0x9A4F86E0 EQ PUSH2 0x1C3 JUMPI DUP1 PUSH4 0xC045160E EQ PUSH2 0x1D8 JUMPI PUSH1 0x0 DUP1 REVERT JUMPDEST DUP1 PUSH4 0x14107A94 EQ PUSH2 0x98 JUMPI DUP1 PUSH4 0x172B79D9 EQ PUSH2 0xC1 JUMPI DUP1 PUSH4 0x22DC7B4C EQ PUSH2 0xFF JUMPI DUP1 PUSH4 0x2997E86B EQ PUSH2 0x122 JUMPI JUMPDEST PUSH1 0x0 DUP1 REVERT JUMPDEST PUSH2 0xAB PUSH2 0xA6 CALLDATASIZE PUSH1 0x4 PUSH2 0x763 JUMP JUMPDEST PUSH2 0x1EB JUMP JUMPDEST PUSH1 0x40 MLOAD PUSH2 0xB8 SWAP2 SWAP1 PUSH2 0x77C JUMP JUMPDEST PUSH1 0x40 MLOAD DUP1 SWAP2 SUB SWAP1 RETURN JUMPDEST PUSH2 0xEF PUSH2 0xCF CALLDATASIZE PUSH1 0x4 PUSH2 0x7CA JUMP JUMPDEST PUSH1 0x4 PUSH1 0x20 SWAP1 DUP2 MSTORE PUSH1 0x0 SWAP3 DUP4 MSTORE PUSH1 0x40 DUP1 DUP5 KECCAK256 SWAP1 SWAP2 MSTORE SWAP1 DUP3 MSTORE SWAP1 KECCAK256 SLOAD PUSH1 0xFF AND DUP2 JUMP JUMPDEST PUSH1 0x40 MLOAD SWAP1 ISZERO ISZERO DUP2 MSTORE PUSH1 0x20 ADD PUSH2 0xB8 JUMP JUMPDEST PUSH2 0xEF PUSH2 0x10D CALLDATASIZE PUSH1 0x4 PUSH2 0x763 JUMP JUMPDEST PUSH1 0x0 SWAP1 DUP2 MSTORE PUSH1 0x1 PUSH1 0x20 MSTORE PUSH1 0x40 SWAP1 KECCAK256 SLOAD PUSH1 0xFF AND SWAP1 JUMP JUMPDEST PUSH2 0xEF PUSH2 0x130 CALLDATASIZE PUSH1 0x4 PUSH2 0x763 JUMP JUMPDEST PUSH1 0x1 PUSH1 0x20 MSTORE PUSH1 0x0 SWAP1 DUP2 MSTORE PUSH1 0x40 SWAP1 KECCAK256 SLOAD PUSH1 0xFF AND DUP2 JUMP JUMPDEST PUSH1 0x3 SLOAD PUSH2 0x158 SWAP1 PUSH1 0x1 PUSH1 0x1 PUSH1 0xA0 SHL SUB AND DUP2 JUMP JUMPDEST PUSH1 0x40 MLOAD PUSH1 0x1 PUSH1 0x1 PUSH1 0xA0 SHL SUB SWAP1 SWAP2 AND DUP2 MSTORE PUSH1 0x20 ADD PUSH2 0xB8 JUMP JUMPDEST PUSH2 0x193 PUSH2 0x17E CALLDATASIZE PUSH1 0x4 PUSH2 0x763 JUMP JUMPDEST PUSH1 0x0 SWAP1 DUP2 MSTORE PUSH1 0x20 DUP2 SWAP1 MSTORE PUSH1 0x40 SWAP1 KECCAK256 SLOAD PUSH1 0xFF AND SWAP1 JUMP JUMPDEST PUSH1 0x40 MLOAD PUSH2 0xB8 SWAP2 SWAP1 PUSH2 0x802 JUMP JUMPDEST PUSH2 0x193 PUSH2 0x1AE CALLDATASIZE PUSH1 0x4 PUSH2 0x763 JUMP JUMPDEST PUSH1 0x0 PUSH1 0x20 DUP2 SWAP1 MSTORE SWAP1 DUP2 MSTORE PUSH1 0x40 SWAP1 KECCAK256 SLOAD PUSH1 0xFF AND DUP2 JUMP JUMPDEST PUSH2 0x1D6 PUSH2 0x1D1 CALLDATASIZE PUSH1 0x4 PUSH2 0x946 JUMP JUMPDEST PUSH2 0x285 JUMP JUMPDEST STOP JUMPDEST PUSH2 0x1D6 PUSH2 0x1E6 CALLDATASIZE PUSH1 0x4 PUSH2 0xA33 JUMP JUMPDEST PUSH2 0x4A0 JUMP JUMPDEST PUSH1 0x2 PUSH1 0x20 MSTORE PUSH1 0x0 SWAP1 DUP2 MSTORE PUSH1 0x40 SWAP1 KECCAK256 DUP1 SLOAD PUSH2 0x204 SWAP1 PUSH2 0xA8D JUMP JUMPDEST DUP1 PUSH1 0x1F ADD PUSH1 0x20 DUP1 SWAP2 DIV MUL PUSH1 0x20 ADD PUSH1 0x40 MLOAD SWAP1 DUP2 ADD PUSH1 0x40 MSTORE DUP1 SWAP3 SWAP2 SWAP1 DUP2 DUP2 MSTORE PUSH1 0x20 ADD DUP3 DUP1 SLOAD PUSH2 0x230 SWAP1 PUSH2 0xA8D JUMP JUMPDEST DUP1 ISZERO PUSH2 0x27D JUMPI DUP1 PUSH1 0x1F LT PUSH2 0x252 JUMPI PUSH2 0x100 DUP1 DUP4 SLOAD DIV MUL DUP4 MSTORE SWAP2 PUSH1 0x20 ADD SWAP2 PUSH2 0x27D JUMP JUMPDEST DUP3 ADD SWAP2 SWAP1 PUSH1 0x0 MSTORE PUSH1 0x20 PUSH1 0x0 KECCAK256 SWAP1 JUMPDEST DUP2 SLOAD DUP2 MSTORE SWAP1 PUSH1 0x1 ADD SWAP1 PUSH1 0x20 ADD DUP1 DUP4 GT PUSH2 0x260 JUMPI DUP3 SWAP1 SUB PUSH1 0x1F AND DUP3 ADD SWAP2 JUMPDEST POP POP POP POP POP DUP2 JUMP JUMPDEST DUP6 PUSH1 0x1 PUSH1 0x0 DUP3 DUP2 MSTORE PUSH1 0x20 DUP2 SWAP1 MSTORE PUSH1 0x40 SWAP1 KECCAK256 SLOAD PUSH1 0xFF AND PUSH1 0x2 DUP2 GT ISZERO PUSH2 0x2AB JUMPI PUSH2 0x2AB PUSH2 0x7EC JUMP JUMPDEST EQ PUSH2 0x309 JUMPI PUSH1 0x40 MLOAD PUSH3 0x461BCD PUSH1 0xE5 SHL DUP2 MSTORE PUSH1 0x20 PUSH1 0x4 DUP3 ADD MSTORE PUSH1 0x24 DUP1 DUP3 ADD MSTORE PUSH32 0x4E6F746520646F6573206E6F74206578697374206F7220616C72656164792073 PUSH1 0x44 DUP3 ADD MSTORE PUSH4 0x1C195B9D PUSH1 0xE2 SHL PUSH1 0x64 DUP3 ADD MSTORE PUSH1 0x84 ADD JUMPDEST PUSH1 0x40 MLOAD DUP1 SWAP2 SUB SWAP1 REVERT JUMPDEST PUSH1 0x0 DUP4 DUP2 MSTORE PUSH1 0x1 PUSH1 0x20 MSTORE PUSH1 0x40 SWAP1 KECCAK256 SLOAD DUP4 SWAP1 PUSH1 0xFF AND ISZERO PUSH2 0x363 JUMPI PUSH1 0x40 MLOAD PUSH3 0x461BCD PUSH1 0xE5 SHL DUP2 MSTORE PUSH1 0x20 PUSH1 0x4 DUP3 ADD MSTORE PUSH1 0x16 PUSH1 0x24 DUP3 ADD MSTORE PUSH22 0x139D5B1B1A599A595C88185B1C9958591E481D5CD959 PUSH1 0x52 SHL PUSH1 0x44 DUP3 ADD MSTORE PUSH1 0x64 ADD PUSH2 0x300 JUMP JUMPDEST PUSH1 0x40 DUP1 MLOAD PUSH1 0xA0 DUP2 ADD DUP3 MSTORE DUP10 DUP2 MSTORE PUSH1 0x20 DUP2 ADD DUP10 SWAP1 MSTORE DUP1 DUP3 ADD DUP9 SWAP1 MSTORE PUSH1 0x60 DUP2 ADD DUP8 SWAP1 MSTORE PUSH1 0x80 DUP2 ADD DUP7 SWAP1 MSTORE PUSH1 0x3 SLOAD SWAP2 MLOAD PUSH4 0x34BAEAB9 PUSH1 0xE0 SHL DUP2 MSTORE SWAP1 SWAP2 PUSH1 0x1 PUSH1 0x1 PUSH1 0xA0 SHL SUB AND SWAP1 PUSH4 0x34BAEAB9 SWAP1 PUSH2 0x3C0 SWAP1 DUP16 SWAP1 DUP16 SWAP1 DUP16 SWAP1 DUP8 SWAP1 PUSH1 0x4 ADD PUSH2 0xAF0 JUMP JUMPDEST PUSH1 0x20 PUSH1 0x40 MLOAD DUP1 DUP4 SUB DUP2 DUP7 GAS STATICCALL ISZERO DUP1 ISZERO PUSH2 0x3DD JUMPI RETURNDATASIZE PUSH1 0x0 DUP1 RETURNDATACOPY RETURNDATASIZE PUSH1 0x0 REVERT JUMPDEST POP POP POP POP PUSH1 0x40 MLOAD RETURNDATASIZE PUSH1 0x1F NOT PUSH1 0x1F DUP3 ADD AND DUP3 ADD DUP1 PUSH1 0x40 MSTORE POP DUP2 ADD SWAP1 PUSH2 0x401 SWAP2 SWAP1 PUSH2 0xB74 JUMP JUMPDEST PUSH2 0x443 JUMPI PUSH1 0x40 MLOAD PUSH3 0x461BCD PUSH1 0xE5 SHL DUP2 MSTORE PUSH1 0x20 PUSH1 0x4 DUP3 ADD MSTORE PUSH1 0x13 PUSH1 0x24 DUP3 ADD MSTORE PUSH19 0x24B73B30B634B2103A3930B23290383937B7B3 PUSH1 0x69 SHL PUSH1 0x44 DUP3 ADD MSTORE PUSH1 0x64 ADD PUSH2 0x300 JUMP JUMPDEST PUSH2 0x44D DUP10 DUP7 PUSH2 0x579 JUMP JUMPDEST PUSH2 0x457 DUP9 DUP6 PUSH2 0x695 JUMP JUMPDEST DUP8 DUP10 PUSH32 0xB8CEE0D2C7A124D60F5E6E5A8802172A432D368BED680A5C91FC2848F9AE5E6E DUP8 PUSH1 0x40 MLOAD PUSH2 0x48A SWAP2 DUP2 MSTORE PUSH1 0x20 ADD SWAP1 JUMP JUMPDEST PUSH1 0x40 MLOAD DUP1 SWAP2 SUB SWAP1 LOG3 POP POP POP POP POP POP POP POP POP POP POP POP JUMP JUMPDEST PUSH1 0x0 DUP4 DUP2 MSTORE PUSH1 0x4 PUSH1 0x20 SWAP1 DUP2 MSTORE PUSH1 0x40 DUP1 DUP4 KECCAK256 DUP6 DUP5 MSTORE SWAP1 SWAP2 MSTORE SWAP1 KECCAK256 SLOAD PUSH1 0xFF AND ISZERO PUSH2 0x50A JUMPI PUSH1 0x40 MLOAD PUSH3 0x461BCD PUSH1 0xE5 SHL DUP2 MSTORE PUSH1 0x20 PUSH1 0x4 DUP3 ADD MSTORE PUSH1 0x17 PUSH1 0x24 DUP3 ADD MSTORE PUSH32 0x4974656D20616C72656164792072656769737465726564000000000000000000 PUSH1 0x44 DUP3 ADD MSTORE PUSH1 0x64 ADD PUSH2 0x300 JUMP JUMPDEST PUSH1 0x0 DUP4 DUP2 MSTORE PUSH1 0x4 PUSH1 0x20 SWAP1 DUP2 MSTORE PUSH1 0x40 DUP1 DUP4 KECCAK256 DUP6 DUP5 MSTORE SWAP1 SWAP2 MSTORE SWAP1 KECCAK256 DUP1 SLOAD PUSH1 0xFF NOT AND PUSH1 0x1 OR SWAP1 SSTORE PUSH2 0x538 DUP5 DUP3 PUSH2 0x695 JUMP JUMPDEST DUP2 DUP4 PUSH32 0x810658469964A930B7C6462E2B996CB6FFA3D9354F5E0B5A9618FE215A7FCF99 DUP7 PUSH1 0x40 MLOAD PUSH2 0x56B SWAP2 DUP2 MSTORE PUSH1 0x20 ADD SWAP1 JUMP JUMPDEST PUSH1 0x40 MLOAD DUP1 SWAP2 SUB SWAP1 LOG3 POP POP POP POP JUMP JUMPDEST PUSH1 0x1 PUSH1 0x0 DUP4 DUP2 MSTORE PUSH1 0x20 DUP2 SWAP1 MSTORE PUSH1 0x40 SWAP1 KECCAK256 SLOAD PUSH1 0xFF AND PUSH1 0x2 DUP2 GT ISZERO PUSH2 0x59E JUMPI PUSH2 0x59E PUSH2 0x7EC JUMP JUMPDEST EQ PUSH2 0x5DC JUMPI PUSH1 0x40 MLOAD PUSH3 0x461BCD PUSH1 0xE5 SHL DUP2 MSTORE PUSH1 0x20 PUSH1 0x4 DUP3 ADD MSTORE PUSH1 0xE PUSH1 0x24 DUP3 ADD MSTORE PUSH14 0x139BDD19481B9BDD081D985B1A59 PUSH1 0x92 SHL PUSH1 0x44 DUP3 ADD MSTORE PUSH1 0x64 ADD PUSH2 0x300 JUMP JUMPDEST PUSH1 0x0 DUP2 DUP2 MSTORE PUSH1 0x1 PUSH1 0x20 MSTORE PUSH1 0x40 SWAP1 KECCAK256 SLOAD PUSH1 0xFF AND ISZERO PUSH2 0x634 JUMPI PUSH1 0x40 MLOAD PUSH3 0x461BCD PUSH1 0xE5 SHL DUP2 MSTORE PUSH1 0x20 PUSH1 0x4 DUP3 ADD MSTORE PUSH1 0x16 PUSH1 0x24 DUP3 ADD MSTORE PUSH22 0x139D5B1B1A599A595C88185B1C9958591E481D5CD959 PUSH1 0x52 SHL PUSH1 0x44 DUP3 ADD MSTORE PUSH1 0x64 ADD PUSH2 0x300 JUMP JUMPDEST PUSH1 0x0 DUP3 DUP2 MSTORE PUSH1 0x20 DUP2 DUP2 MSTORE PUSH1 0x40 DUP1 DUP4 KECCAK256 DUP1 SLOAD PUSH1 0xFF NOT SWAP1 DUP2 AND PUSH1 0x2 OR SWAP1 SWAP2 SSTORE DUP5 DUP5 MSTORE PUSH1 0x1 SWAP3 DUP4 SWAP1 MSTORE DUP2 DUP5 KECCAK256 DUP1 SLOAD SWAP1 SWAP2 AND SWAP1 SWAP3 OR SWAP1 SWAP2 SSTORE MLOAD DUP3 SWAP2 DUP5 SWAP2 PUSH32 0x39FA62302B0F0FCCB244FBD909EC86E1A28D4B765B936467C70873D3FCB1497 SWAP2 SWAP1 LOG3 POP POP JUMP JUMPDEST PUSH1 0x0 DUP3 DUP2 MSTORE PUSH1 0x20 DUP2 SWAP1 MSTORE PUSH1 0x40 DUP2 KECCAK256 SLOAD PUSH1 0xFF AND PUSH1 0x2 DUP2 GT ISZERO PUSH2 0x6B8 JUMPI PUSH2 0x6B8 PUSH2 0x7EC JUMP JUMPDEST EQ PUSH2 0x6FB JUMPI PUSH1 0x40 MLOAD PUSH3 0x461BCD PUSH1 0xE5 SHL DUP2 MSTORE PUSH1 0x20 PUSH1 0x4 DUP3 ADD MSTORE PUSH1 0x13 PUSH1 0x24 DUP3 ADD MSTORE PUSH19 0x4E6F746520616C726561647920657869737473 PUSH1 0x68 SHL PUSH1 0x44 DUP3 ADD MSTORE PUSH1 0x64 ADD PUSH2 0x300 JUMP JUMPDEST PUSH1 0x0 DUP3 DUP2 MSTORE PUSH1 0x20 DUP2 DUP2 MSTORE PUSH1 0x40 DUP1 DUP4 KECCAK256 DUP1 SLOAD PUSH1 0xFF NOT AND PUSH1 0x1 OR SWAP1 SSTORE PUSH1 0x2 SWAP1 SWAP2 MSTORE SWAP1 KECCAK256 PUSH2 0x726 DUP3 DUP3 PUSH2 0xBEC JUMP JUMPDEST POP DUP2 PUSH32 0x11D80DBC601487E7D7CCB4DD72CA753222F44DF72D69E388DF7C549CFEBE3126 DUP3 PUSH1 0x40 MLOAD PUSH2 0x757 SWAP2 SWAP1 PUSH2 0x77C JUMP JUMPDEST PUSH1 0x40 MLOAD DUP1 SWAP2 SUB SWAP1 LOG2 POP POP JUMP JUMPDEST PUSH1 0x0 PUSH1 0x20 DUP3 DUP5 SUB SLT ISZERO PUSH2 0x775 JUMPI PUSH1 0x0 DUP1 REVERT JUMPDEST POP CALLDATALOAD SWAP2 SWAP1 POP JUMP JUMPDEST PUSH1 0x0 PUSH1 0x20 DUP1 DUP4 MSTORE DUP4 MLOAD DUP1 DUP3 DUP6 ADD MSTORE PUSH1 0x0 JUMPDEST DUP2 DUP2 LT ISZERO PUSH2 0x7A9 JUMPI DUP6 DUP2 ADD DUP4 ADD MLOAD DUP6 DUP3 ADD PUSH1 0x40 ADD MSTORE DUP3 ADD PUSH2 0x78D JUMP JUMPDEST POP PUSH1 0x0 PUSH1 0x40 DUP3 DUP7 ADD ADD MSTORE PUSH1 0x40 PUSH1 0x1F NOT PUSH1 0x1F DUP4 ADD AND DUP6 ADD ADD SWAP3 POP POP POP SWAP3 SWAP2 POP POP JUMP JUMPDEST PUSH1 0x0 DUP1 PUSH1 0x40 DUP4 DUP6 SUB SLT ISZERO PUSH2 0x7DD JUMPI PUSH1 0x0 DUP1 REVERT JUMPDEST POP POP DUP1 CALLDATALOAD SWAP3 PUSH1 0x20 SWAP1 SWAP2 ADD CALLDATALOAD SWAP2 POP JUMP JUMPDEST PUSH4 0x4E487B71 PUSH1 0xE0 SHL PUSH1 0x0 MSTORE PUSH1 0x21 PUSH1 0x4 MSTORE PUSH1 0x24 PUSH1 0x0 REVERT JUMPDEST PUSH1 0x20 DUP2 ADD PUSH1 0x3 DUP4 LT PUSH2 0x824 JUMPI PUSH4 0x4E487B71 PUSH1 0xE0 SHL PUSH1 0x0 MSTORE PUSH1 0x21 PUSH1 0x4 MSTORE PUSH1 0x24 PUSH1 0x0 REVERT JUMPDEST SWAP2 SWAP1 MSTORE SWAP1 JUMP JUMPDEST PUSH4 0x4E487B71 PUSH1 0xE0 SHL PUSH1 0x0 MSTORE PUSH1 0x41 PUSH1 0x4 MSTORE PUSH1 0x24 PUSH1 0x0 REVERT JUMPDEST PUSH1 0x40 DUP1 MLOAD SWAP1 DUP2 ADD PUSH8 0xFFFFFFFFFFFFFFFF DUP2 GT DUP3 DUP3 LT OR ISZERO PUSH2 0x863 JUMPI PUSH2 0x863 PUSH2 0x82A JUMP JUMPDEST PUSH1 0x40 MSTORE SWAP1 JUMP JUMPDEST PUSH1 0x0 DUP3 PUSH1 0x1F DUP4 ADD SLT PUSH2 0x87A JUMPI PUSH1 0x0 DUP1 REVERT JUMPDEST PUSH2 0x882 PUSH2 0x840 JUMP JUMPDEST DUP1 PUSH1 0x40 DUP5 ADD DUP6 DUP2 GT ISZERO PUSH2 0x894 JUMPI PUSH1 0x0 DUP1 REVERT JUMPDEST DUP5 JUMPDEST DUP2 DUP2 LT ISZERO PUSH2 0x8AE JUMPI DUP1 CALLDATALOAD DUP5 MSTORE PUSH1 0x20 SWAP4 DUP5 ADD SWAP4 ADD PUSH2 0x896 JUMP JUMPDEST POP SWAP1 SWAP6 SWAP5 POP POP POP POP POP JUMP JUMPDEST PUSH1 0x0 DUP3 PUSH1 0x1F DUP4 ADD SLT PUSH2 0x8CA JUMPI PUSH1 0x0 DUP1 REVERT JUMPDEST DUP2 CALLDATALOAD PUSH8 0xFFFFFFFFFFFFFFFF DUP1 DUP3 GT ISZERO PUSH2 0x8E5 JUMPI PUSH2 0x8E5 PUSH2 0x82A JUMP JUMPDEST PUSH1 0x40 MLOAD PUSH1 0x1F DUP4 ADD PUSH1 0x1F NOT SWAP1 DUP2 AND PUSH1 0x3F ADD AND DUP2 ADD SWAP1 DUP3 DUP3 GT DUP2 DUP4 LT OR ISZERO PUSH2 0x90D JUMPI PUSH2 0x90D PUSH2 0x82A JUMP JUMPDEST DUP2 PUSH1 0x40 MSTORE DUP4 DUP2 MSTORE DUP7 PUSH1 0x20 DUP6 DUP9 ADD ADD GT ISZERO PUSH2 0x926 JUMPI PUSH1 0x0 DUP1 REVERT JUMPDEST DUP4 PUSH1 0x20 DUP8 ADD PUSH1 0x20 DUP4 ADD CALLDATACOPY PUSH1 0x0 PUSH1 0x20 DUP6 DUP4 ADD ADD MSTORE DUP1 SWAP5 POP POP POP POP POP SWAP3 SWAP2 POP POP JUMP JUMPDEST PUSH1 0x0 DUP1 PUSH1 0x0 DUP1 PUSH1 0x0 DUP1 PUSH1 0x0 DUP1 PUSH1 0x0 PUSH2 0x1C0 DUP11 DUP13 SUB SLT ISZERO PUSH2 0x965 JUMPI PUSH1 0x0 DUP1 REVERT JUMPDEST PUSH2 0x96F DUP12 DUP12 PUSH2 0x869 JUMP JUMPDEST SWAP9 POP DUP11 PUSH1 0x5F DUP12 ADD SLT PUSH2 0x980 JUMPI PUSH1 0x0 DUP1 REVERT JUMPDEST PUSH2 0x988 PUSH2 0x840 JUMP JUMPDEST DUP1 PUSH1 0xC0 DUP13 ADD DUP14 DUP2 GT ISZERO PUSH2 0x99A JUMPI PUSH1 0x0 DUP1 REVERT JUMPDEST PUSH1 0x40 DUP14 ADD JUMPDEST DUP2 DUP2 LT ISZERO PUSH2 0x9C1 JUMPI PUSH2 0x9B1 DUP16 DUP3 PUSH2 0x869 JUMP JUMPDEST DUP5 MSTORE PUSH1 0x20 SWAP1 SWAP4 ADD SWAP3 PUSH1 0x40 ADD PUSH2 0x99F JUMP JUMPDEST POP DUP2 SWAP11 POP PUSH2 0x9CF DUP15 DUP3 PUSH2 0x869 JUMP JUMPDEST SWAP10 POP POP POP POP PUSH2 0x100 DUP11 ADD CALLDATALOAD SWAP6 POP PUSH2 0x120 DUP11 ADD CALLDATALOAD SWAP5 POP PUSH2 0x140 DUP11 ADD CALLDATALOAD SWAP4 POP PUSH2 0x160 DUP11 ADD CALLDATALOAD SWAP3 POP PUSH2 0x180 DUP11 ADD CALLDATALOAD SWAP2 POP PUSH2 0x1A0 DUP11 ADD CALLDATALOAD PUSH8 0xFFFFFFFFFFFFFFFF DUP2 GT ISZERO PUSH2 0xA17 JUMPI PUSH1 0x0 DUP1 REVERT JUMPDEST PUSH2 0xA23 DUP13 DUP3 DUP14 ADD PUSH2 0x8B9 JUMP JUMPDEST SWAP2 POP POP SWAP3 SWAP6 SWAP9 POP SWAP3 SWAP6 SWAP9 POP SWAP3 SWAP6 SWAP9 JUMP JUMPDEST PUSH1 0x0 DUP1 PUSH1 0x0 DUP1 PUSH1 0x80 DUP6 DUP8 SUB SLT ISZERO PUSH2 0xA49 JUMPI PUSH1 0x0 DUP1 REVERT JUMPDEST DUP5 CALLDATALOAD SWAP4 POP PUSH1 0x20 DUP6 ADD CALLDATALOAD SWAP3 POP PUSH1 0x40 DUP6 ADD CALLDATALOAD SWAP2 POP PUSH1 0x60 DUP6 ADD CALLDATALOAD PUSH8 0xFFFFFFFFFFFFFFFF DUP2 GT ISZERO PUSH2 0xA75 JUMPI PUSH1 0x0 DUP1 REVERT JUMPDEST PUSH2 0xA81 DUP8 DUP3 DUP9 ADD PUSH2 0x8B9 JUMP JUMPDEST SWAP2 POP POP SWAP3 SWAP6 SWAP2 SWAP5 POP SWAP3 POP JUMP JUMPDEST PUSH1 0x1 DUP2 DUP2 SHR SWAP1 DUP3 AND DUP1 PUSH2 0xAA1 JUMPI PUSH1 0x7F DUP3 AND SWAP2 POP JUMPDEST PUSH1 0x20 DUP3 LT DUP2 SUB PUSH2 0xAC1 JUMPI PUSH4 0x4E487B71 PUSH1 0xE0 SHL PUSH1 0x0 MSTORE PUSH1 0x22 PUSH1 0x4 MSTORE PUSH1 0x24 PUSH1 0x0 REVERT JUMPDEST POP SWAP2 SWAP1 POP JUMP JUMPDEST DUP1 PUSH1 0x0 JUMPDEST PUSH1 0x2 DUP2 LT ISZERO PUSH2 0xAEA JUMPI DUP2 MLOAD DUP5 MSTORE PUSH1 0x20 SWAP4 DUP5 ADD SWAP4 SWAP1 SWAP2 ADD SWAP1 PUSH1 0x1 ADD PUSH2 0xACB JUMP JUMPDEST POP POP POP POP JUMP JUMPDEST PUSH2 0x1A0 DUP2 ADD PUSH2 0xAFF DUP3 DUP8 PUSH2 0xAC7 JUMP JUMPDEST PUSH1 0x40 DUP1 DUP4 ADD DUP7 PUSH1 0x0 JUMPDEST PUSH1 0x2 DUP2 LT ISZERO PUSH2 0xB2F JUMPI PUSH2 0xB1C DUP4 DUP4 MLOAD PUSH2 0xAC7 JUMP JUMPDEST SWAP2 DUP4 ADD SWAP2 PUSH1 0x20 SWAP2 SWAP1 SWAP2 ADD SWAP1 PUSH1 0x1 ADD PUSH2 0xB08 JUMP JUMPDEST POP POP POP POP PUSH2 0xB40 PUSH1 0xC0 DUP4 ADD DUP6 PUSH2 0xAC7 JUMP JUMPDEST PUSH2 0x100 DUP3 ADD DUP4 PUSH1 0x0 JUMPDEST PUSH1 0x5 DUP2 LT ISZERO PUSH2 0xB68 JUMPI DUP2 MLOAD DUP4 MSTORE PUSH1 0x20 SWAP3 DUP4 ADD SWAP3 SWAP1 SWAP2 ADD SWAP1 PUSH1 0x1 ADD PUSH2 0xB49 JUMP JUMPDEST POP POP POP SWAP6 SWAP5 POP POP POP POP POP JUMP JUMPDEST PUSH1 0x0 PUSH1 0x20 DUP3 DUP5 SUB SLT ISZERO PUSH2 0xB86 JUMPI PUSH1 0x0 DUP1 REVERT JUMPDEST DUP2 MLOAD DUP1 ISZERO ISZERO DUP2 EQ PUSH2 0xB96 JUMPI PUSH1 0x0 DUP1 REVERT JUMPDEST SWAP4 SWAP3 POP POP POP JUMP JUMPDEST PUSH1 0x1F DUP3 GT ISZERO PUSH2 0xBE7 JUMPI PUSH1 0x0 DUP2 DUP2 MSTORE PUSH1 0x20 DUP2 KECCAK256 PUSH1 0x1F DUP6 ADD PUSH1 0x5 SHR DUP2 ADD PUSH1 0x20 DUP7 LT ISZERO PUSH2 0xBC4 JUMPI POP DUP1 JUMPDEST PUSH1 0x1F DUP6 ADD PUSH1 0x5 SHR DUP3 ADD SWAP2 POP JUMPDEST DUP2 DUP2 LT ISZERO PUSH2 0xBE3 JUMPI DUP3 DUP2 SSTORE PUSH1 0x1 ADD PUSH2 0xBD0 JUMP JUMPDEST POP POP POP JUMPDEST POP POP POP JUMP JUMPDEST DUP2 MLOAD PUSH8 0xFFFFFFFFFFFFFFFF DUP2 GT ISZERO PUSH2 0xC06 JUMPI PUSH2 0xC06 PUSH2 0x82A JUMP JUMPDEST PUSH2 0xC1A DUP2 PUSH2 0xC14 DUP5 SLOAD PUSH2 0xA8D JUMP JUMPDEST DUP5 PUSH2 0xB9D JUMP JUMPDEST PUSH1 0x20 DUP1 PUSH1 0x1F DUP4 GT PUSH1 0x1 DUP2 EQ PUSH2 0xC4F JUMPI PUSH1 0x0 DUP5 ISZERO PUSH2 0xC37 JUMPI POP DUP6 DUP4 ADD MLOAD JUMPDEST PUSH1 0x0 NOT PUSH1 0x3 DUP7 SWAP1 SHL SHR NOT AND PUSH1 0x1 DUP6 SWAP1 SHL OR DUP6 SSTORE PUSH2 0xBE3 JUMP JUMPDEST PUSH1 0x0 DUP6 DUP2 MSTORE PUSH1 0x20 DUP2 KECCAK256 PUSH1 0x1F NOT DUP7 AND SWAP2 JUMPDEST DUP3 DUP2 LT ISZERO PUSH2 0xC7E JUMPI DUP9 DUP7 ADD MLOAD DUP3 SSTORE SWAP5 DUP5 ADD SWAP5 PUSH1 0x1 SWAP1 SWAP2 ADD SWAP1 DUP5 ADD PUSH2 0xC5F JUMP JUMPDEST POP DUP6 DUP3 LT ISZERO PUSH2 0xC9C JUMPI DUP8 DUP6 ADD MLOAD PUSH1 0x0 NOT PUSH1 0x3 DUP9 SWAP1 SHL PUSH1 0xF8 AND SHR NOT AND DUP2 SSTORE JUMPDEST POP POP POP POP POP PUSH1 0x1 SWAP1 DUP2 SHL ADD SWAP1 SSTORE POP JUMP INVALID LOG2 PUSH5 0x6970667358 0x22 SLT KECCAK256 SWAP5 RETURN SWAP1 DUP9 0xAF EXTCODEHASH 0xC7 CREATE2 INVALID SGT MSIZE 0xB9 0xC1 0xB9 PUSH26 0xADEA363CBE6AC7F1B7C652546A081E302564736F6C6343000814 STOP CALLER "},"methodIdentifiers":{"encryptedNotes(bytes32)":"14107a94","getNoteState(bytes32)":"83091c37","isNullifierUsed(bytes32)":"22dc7b4c","notes(bytes32)":"85de26b7","nullifiers(bytes32)":"2997e86b","registerItem(bytes32,uint256,uint256,bytes)":"c045160e","registeredItems(uint256,uint256)":"172b79d9","tradeItem(uint256[2],uint256[2][2],uint256[2],bytes32,bytes32,bytes32,uint256,bytes32,bytes)":"9a4f86e0","tradeVerifier()":"2b864ff6"}}}}}