{"contracts/CardDraw.sol":{"CardDraw":{"abi":[{"inputs":[{"internalType":"address","name":"_drawVerifier","type":"address"}],"stateMutability":"nonpayable","type":"constructor"},{"anonymous":false,"inputs":[{"indexed":true,"internalType":"bytes32","name":"deckCommitment","type":"bytes32"},{"indexed":true,"internalType":"bytes32","name":"drawCommitment","type":"bytes32"},{"indexed":false,"internalType":"uint256","name":"drawIndex","type":"uint256"},{"indexed":false,"internalType":"uint256","name":"gameId","type":"uint256"},{"indexed":false,"internalType":"bytes32","name":"playerCommitment","type":"bytes32"}],"name":"CardDrawn","type":"event"},{"anonymous":false,"inputs":[{"indexed":true,"internalType":"uint256","name":"gameId","type":"uint256"},{"indexed":false,"internalType":"bytes32","name":"deckCommitment","type":"bytes32"}],"name":"DeckRegistered","type":"event"},{"anonymous":false,"inputs":[{"indexed":true,"internalType":"bytes32","name":"noteHash","type":"bytes32"},{"indexed":false,"internalType":"bytes","name":"encryptedNote","type":"bytes"}],"name":"NoteCreated","type":"event"},{"anonymous":false,"inputs":[{"indexed":true,"internalType":"bytes32","name":"noteHash","type":"bytes32"},{"indexed":true,"internalType":"bytes32","name":"nullifier","type":"bytes32"}],"name":"NoteSpent","type":"event"},{"inputs":[{"internalType":"uint256[2]","name":"a","type":"uint256[2]"},{"internalType":"uint256[2][2]","name":"b","type":"uint256[2][2]"},{"internalType":"uint256[2]","name":"c","type":"uint256[2]"},{"internalType":"bytes32","name":"deckCommitment","type":"bytes32"},{"internalType":"bytes32","name":"drawCommitment","type":"bytes32"},{"internalType":"uint256","name":"drawIndex","type":"uint256"},{"internalType":"uint256","name":"gameId","type":"uint256"},{"internalType":"bytes32","name":"playerCommitment","type":"bytes32"},{"internalType":"bytes","name":"encryptedCardNote","type":"bytes"}],"name":"drawCard","outputs":[],"stateMutability":"nonpayable","type":"function"},{"inputs":[],"name":"drawVerifier","outputs":[{"internalType":"contract ICardDrawVerifier","name":"","type":"address"}],"stateMutability":"view","type":"function"},{"inputs":[{"internalType":"uint256","name":"","type":"uint256"},{"internalType":"uint256","name":"","type":"uint256"}],"name":"drawnCards","outputs":[{"internalType":"bool","name":"","type":"bool"}],"stateMutability":"view","type":"function"},{"inputs":[{"internalType":"bytes32","name":"","type":"bytes32"}],"name":"encryptedNotes","outputs":[{"internalType":"bytes","name":"","type":"bytes"}],"stateMutability":"view","type":"function"},{"inputs":[{"internalType":"bytes32","name":"noteHash","type":"bytes32"}],"name":"getNoteState","outputs":[{"internalType":"enum NFTNoteBase.NoteState","name":"","type":"uint8"}],"stateMutability":"view","type":"function"},{"inputs":[{"internalType":"bytes32","name":"nullifier","type":"bytes32"}],"name":"isNullifierUsed","outputs":[{"internalType":"bool","name":"","type":"bool"}],"stateMutability":"view","type":"function"},{"inputs":[{"internalType":"bytes32","name":"","type":"bytes32"}],"name":"notes","outputs":[{"internalType":"enum NFTNoteBase.NoteState","name":"","type":"uint8"}],"stateMutability":"view","type":"function"},{"inputs":[{"internalType":"bytes32","name":"","type":"bytes32"}],"name":"nullifiers","outputs":[{"internalType":"bool","name":"","type":"bool"}],"stateMutability":"view","type":"function"},{"inputs":[{"internalType":"bytes32","name":"deckCommitment","type":"bytes32"},{"internalType":"uint256","name":"gameId","type":"uint256"},{"internalType":"bytes","name":"encryptedNote","type":"bytes"}],"name":"registerDeck","outputs":[],"stateMutability":"nonpayable","type":"function"},{"inputs":[{"internalType":"uint256","name":"","type":"uint256"}],"name":"registeredDecks","outputs":[{"internalType":"bytes32","name":"","type":"bytes32"}],"stateMutability":"view","type":"function"}],"evm":{"bytecode":{"linkReferences":{},"object":"608060405234801561001057600080fd5b50604051610cfb380380610cfb83398101604081905261002f91610054565b600380546001600160a01b0319166001600160a01b0392909216919091179055610084565b60006020828403121561006657600080fd5b81516001600160a01b038116811461007d57600080fd5b9392505050565b610c68806100936000396000f3fe608060405234801561001057600080fd5b506004361061009e5760003560e01c80632997e86b116100665780632997e86b1461018257806383091c37146101a557806385de26b7146101d5578063a2bf23cd146101f8578063d9377b4b1461020d57600080fd5b8063058d0c43146100a357806314107a94146100d657806315e124d3146100f6578063225ddfe71461012157806322dc7b4c1461015f575b600080fd5b6100c36100b13660046106f3565b60046020526000908152604090205481565b6040519081526020015b60405180910390f35b6100e96100e43660046106f3565b610220565b6040516100cd919061070c565b600354610109906001600160a01b031681565b6040516001600160a01b0390911681526020016100cd565b61014f61012f36600461075a565b600560209081526000928352604080842090915290825290205460ff1681565b60405190151581526020016100cd565b61014f61016d3660046106f3565b60009081526001602052604090205460ff1690565b61014f6101903660046106f3565b60016020526000908152604090205460ff1681565b6101c86101b33660046106f3565b60009081526020819052604090205460ff1690565b6040516100cd9190610792565b6101c86101e33660046106f3565b60006020819052908152604090205460ff1681565b61020b610206366004610886565b6102ba565b005b61020b61021b366004610926565b610383565b6002602052600090815260409020805461023990610a13565b80601f016020809104026020016040519081016040528092919081815260200182805461026590610a13565b80156102b25780601f10610287576101008083540402835291602001916102b2565b820191906000526020600020905b81548152906001019060200180831161029557829003601f168201915b505050505081565b600082815260046020526040902054156103295760405162461bcd60e51b815260206004820152602560248201527f4465636b20616c7265616479207265676973746572656420666f7220746869736044820152642067616d6560d81b60648201526084015b60405180910390fd5b60008281526004602052604090208390556103448382610625565b817facc901b8a2f1ca82ab2feb78792fd5e8c8710dd19714069957d6361fa01f1e798460405161037691815260200190565b60405180910390a2505050565b60008381526004602052604090205486146103ea5760405162461bcd60e51b815260206004820152602160248201527f4465636b206e6f74207265676973746572656420666f7220746869732067616d6044820152606560f81b6064820152608401610320565b600160008781526020819052604090205460ff16600281111561040f5761040f61077c565b146104525760405162461bcd60e51b8152602060048201526013602482015272111958dac81b9bdd19481b9bdd081d985b1a59606a1b6044820152606401610320565b600083815260056020908152604080832087845290915290205460ff16156104bc5760405162461bcd60e51b815260206004820181905260248201527f4361726420616c726561647920647261776e206174207468697320696e6465786044820152606401610320565b6040805160a08101825287815260208101879052808201869052606081018590526080810184905260035491516334baeab960e01b815290916001600160a01b0316906334baeab990610519908d908d908d908790600401610a76565b602060405180830381865afa158015610536573d6000803e3d6000fd5b505050506040513d601f19601f8201168201806040525081019061055a9190610afa565b6105a65760405162461bcd60e51b815260206004820152601760248201527f496e76616c6964206361726420647261772070726f6f660000000000000000006044820152606401610320565b60008481526005602090815260408083208884529091529020805460ff191660011790556105d48683610625565b6040805186815260208101869052908101849052869088907f25a227fd9a69f97eb467da34f1297902ecf2aa4a6cc393f18ea3ec42fee4ef169060600160405180910390a350505050505050505050565b60008281526020819052604081205460ff1660028111156106485761064861077c565b1461068b5760405162461bcd60e51b81526020600482015260136024820152724e6f746520616c72656164792065786973747360681b6044820152606401610320565b600082815260208181526040808320805460ff19166001179055600290915290206106b68282610b72565b50817f11d80dbc601487e7d7ccb4dd72ca753222f44df72d69e388df7c549cfebe3126826040516106e7919061070c565b60405180910390a25050565b60006020828403121561070557600080fd5b5035919050565b600060208083528351808285015260005b818110156107395785810183015185820160400152820161071d565b506000604082860101526040601f19601f8301168501019250505092915050565b6000806040838503121561076d57600080fd5b50508035926020909101359150565b634e487b7160e01b600052602160045260246000fd5b60208101600383106107b457634e487b7160e01b600052602160045260246000fd5b91905290565b634e487b7160e01b600052604160045260246000fd5b6040805190810167ffffffffffffffff811182821017156107f3576107f36107ba565b60405290565b600082601f83011261080a57600080fd5b813567ffffffffffffffff80821115610825576108256107ba565b604051601f8301601f19908116603f0116810190828211818310171561084d5761084d6107ba565b8160405283815286602085880101111561086657600080fd5b836020870160208301376000602085830101528094505050505092915050565b60008060006060848603121561089b57600080fd5b8335925060208401359150604084013567ffffffffffffffff8111156108c057600080fd5b6108cc868287016107f9565b9150509250925092565b600082601f8301126108e757600080fd5b6108ef6107d0565b80604084018581111561090157600080fd5b845b8181101561091b578035845260209384019301610903565b509095945050505050565b60008060008060008060008060006101c08a8c03121561094557600080fd5b61094f8b8b6108d6565b98508a605f8b011261096057600080fd5b6109686107d0565b8060c08c018d81111561097a57600080fd5b60408d015b818110156109a1576109918f826108d6565b845260209093019260400161097f565b50819a506109af8e826108d6565b99505050506101008a013595506101208a013594506101408a013593506101608a013592506101808a013591506101a08a013567ffffffffffffffff8111156109f757600080fd5b610a038c828d016107f9565b9150509295985092959850929598565b600181811c90821680610a2757607f821691505b602082108103610a4757634e487b7160e01b600052602260045260246000fd5b50919050565b8060005b6002811015610a70578151845260209384019390910190600101610a51565b50505050565b6101a08101610a858287610a4d565b60408083018660005b6002811015610ab557610aa2838351610a4d565b9183019160209190910190600101610a8e565b50505050610ac660c0830185610a4d565b61010082018360005b6005811015610aee578151835260209283019290910190600101610acf565b50505095945050505050565b600060208284031215610b0c57600080fd5b81518015158114610b1c57600080fd5b9392505050565b601f821115610b6d57600081815260208120601f850160051c81016020861015610b4a5750805b601f850160051c820191505b81811015610b6957828155600101610b56565b5050505b505050565b815167ffffffffffffffff811115610b8c57610b8c6107ba565b610ba081610b9a8454610a13565b84610b23565b602080601f831160018114610bd55760008415610bbd5750858301515b600019600386901b1c1916600185901b178555610b69565b600085815260208120601f198616915b82811015610c0457888601518255948401946001909101908401610be5565b5085821015610c225787850151600019600388901b60f8161c191681555b5050505050600190811b0190555056fea26469706673582212207567e59faee16de04a845660a6999aecbfaaab230462112d8bd862b9865e351d64736f6c63430008140033","opcodes":"PUSH1 0x80 PUSH1 0x40 MSTORE CALLVALUE DUP1 ISZERO PUSH2 0x10 JUMPI PUSH1 0x0 DUP1 REVERT JUMPDEST POP PUSH1 0x40 MLOAD PUSH2 0xCFB CODESIZE SUB DUP1 PUSH2 0xCFB DUP4 CODECOPY DUP2 ADD PUSH1 0x40 DUP2 SWAP1 MSTORE PUSH2 0x2F SWAP2 PUSH2 0x54 JUMP JUMPDEST PUSH1 0x3 DUP1 SLOAD PUSH1 0x1 PUSH1 0x1 PUSH1 0xA0 SHL SUB NOT AND PUSH1 0x1 PUSH1 0x1 PUSH1 0xA0 SHL SUB SWAP3 SWAP1 SWAP3 AND SWAP2 SWAP1 SWAP2 OR SWAP1 SSTORE PUSH2 0x84 JUMP JUMPDEST PUSH1 0x0 PUSH1 0x20 DUP3 DUP5 SUB SLT ISZERO PUSH2 0x66 JUMPI PUSH1 0x0 DUP1 REVERT JUMPDEST DUP2 MLOAD PUSH1 0x1 PUSH1 0x1 PUSH1 0xA0 SHL SUB DUP2 AND DUP2 EQ PUSH2 0x7D JUMPI PUSH1 0x0 DUP1 REVERT JUMPDEST SWAP4 SWAP3 POP POP POP JUMP JUMPDEST PUSH2 0xC68 DUP1 PUSH2 0x93 PUSH1 0x0 CODECOPY PUSH1 0x0 RETURN INVALID PUSH1 0x80 PUSH1 0x40 MSTORE CALLVALUE DUP1 ISZERO PUSH2 0x10 JUMPI PUSH1 0x0 DUP1 REVERT JUMPDEST POP PUSH1 0x4 CALLDATASIZE LT PUSH2 0x9E JUMPI PUSH1 0x0 CALLDATALOAD PUSH1 0xE0 SHR DUP1 PUSH4 0x2997E86B GT PUSH2 0x66 JUMPI DUP1 PUSH4 0x2997E86B EQ PUSH2 0x182 JUMPI DUP1 PUSH4 0x83091C37 EQ PUSH2 0x1A5 JUMPI DUP1 PUSH4 0x85DE26B7 EQ PUSH2 0x1D5 JUMPI DUP1 PUSH4 0xA2BF23CD EQ PUSH2 0x1F8 JUMPI DUP1 PUSH4 0xD9377B4B EQ PUSH2 0x20D JUMPI PUSH1 0x0 DUP1 REVERT JUMPDEST DUP1 PUSH4 0x58D0C43 EQ PUSH2 0xA3 JUMPI DUP1 PUSH4 0x14107A94 EQ PUSH2 0xD6 JUMPI DUP1 PUSH4 0x15E124D3 EQ PUSH2 0xF6 JUMPI DUP1 PUSH4 0x225DDFE7 EQ PUSH2 0x121 JUMPI DUP1 PUSH4 0x22DC7B4C EQ PUSH2 0x15F JUMPI JUMPDEST PUSH1 0x0 DUP1 REVERT JUMPDEST PUSH2 0xC3 PUSH2 0xB1 CALLDATASIZE PUSH1 0x4 PUSH2 0x6F3 JUMP JUMPDEST PUSH1 0x4 PUSH1 0x20 MSTORE PUSH1 0x0 SWAP1 DUP2 MSTORE PUSH1 0x40 SWAP1 KECCAK256 SLOAD DUP2 JUMP JUMPDEST PUSH1 0x40 MLOAD SWAP1 DUP2 MSTORE PUSH1 0x20 ADD JUMPDEST PUSH1 0x40 MLOAD DUP1 SWAP2 SUB SWAP1 RETURN JUMPDEST PUSH2 0xE9 PUSH2 0xE4 CALLDATASIZE PUSH1 0x4 PUSH2 0x6F3 JUMP JUMPDEST PUSH2 0x220 JUMP JUMPDEST PUSH1 0x40 MLOAD PUSH2 0xCD SWAP2 SWAP1 PUSH2 0x70C JUMP JUMPDEST PUSH1 0x3 SLOAD PUSH2 0x109 SWAP1 PUSH1 0x1 PUSH1 0x1 PUSH1 0xA0 SHL SUB AND DUP2 JUMP JUMPDEST PUSH1 0x40 MLOAD PUSH1 0x1 PUSH1 0x1 PUSH1 0xA0 SHL SUB SWAP1 SWAP2 AND DUP2 MSTORE PUSH1 0x20 ADD PUSH2 0xCD JUMP JUMPDEST PUSH2 0x14F PUSH2 0x12F CALLDATASIZE PUSH1 0x4 PUSH2 0x75A JUMP JUMPDEST PUSH1 0x5 PUSH1 0x20 SWAP1 DUP2 MSTORE PUSH1 0x0 SWAP3 DUP4 MSTORE PUSH1 0x40 DUP1 DUP5 KECCAK256 SWAP1 SWAP2 MSTORE SWAP1 DUP3 MSTORE SWAP1 KECCAK256 SLOAD PUSH1 0xFF AND DUP2 JUMP JUMPDEST PUSH1 0x40 MLOAD SWAP1 ISZERO ISZERO DUP2 MSTORE PUSH1 0x20 ADD PUSH2 0xCD JUMP JUMPDEST PUSH2 0x14F PUSH2 0x16D CALLDATASIZE PUSH1 0x4 PUSH2 0x6F3 JUMP JUMPDEST PUSH1 0x0 SWAP1 DUP2 MSTORE PUSH1 0x1 PUSH1 0x20 MSTORE PUSH1 0x40 SWAP1 KECCAK256 SLOAD PUSH1 0xFF AND SWAP1 JUMP JUMPDEST PUSH2 0x14F PUSH2 0x190 CALLDATASIZE PUSH1 0x4 PUSH2 0x6F3 JUMP JUMPDEST PUSH1 0x1 PUSH1 0x20 MSTORE PUSH1 0x0 SWAP1 DUP2 MSTORE PUSH1 0x40 SWAP1 KECCAK256 SLOAD PUSH1 0xFF AND DUP2 JUMP JUMPDEST PUSH2 0x1C8 PUSH2 0x1B3 CALLDATASIZE PUSH1 0x4 PUSH2 0x6F3 JUMP JUMPDEST PUSH1 0x0 SWAP1 DUP2 MSTORE PUSH1 0x20 DUP2 SWAP1 MSTORE PUSH1 0x40 SWAP1 KECCAK256 SLOAD PUSH1 0xFF AND SWAP1 JUMP JUMPDEST PUSH1 0x40 MLOAD PUSH2 0xCD SWAP2 SWAP1 PUSH2 0x792 JUMP JUMPDEST PUSH2 0x1C8 PUSH2 0x1E3 CALLDATASIZE PUSH1 0x4 PUSH2 0x6F3 JUMP JUMPDEST PUSH1 0x0 PUSH1 0x20 DUP2 SWAP1 MSTORE SWAP1 DUP2 MSTORE PUSH1 0x40 SWAP1 KECCAK256 SLOAD PUSH1 0xFF AND DUP2 JUMP JUMPDEST PUSH2 0x20B PUSH2 0x206 CALLDATASIZE PUSH1 0x4 PUSH2 0x886 JUMP JUMPDEST PUSH2 0x2BA JUMP JUMPDEST STOP JUMPDEST PUSH2 0x20B PUSH2 0x21B CALLDATASIZE PUSH1 0x4 PUSH2 0x926 JUMP JUMPDEST PUSH2 0x383 JUMP JUMPDEST PUSH1 0x2 PUSH1 0x20 MSTORE PUSH1 0x0 SWAP1 DUP2 MSTORE PUSH1 0x40 SWAP1 KECCAK256 DUP1 SLOAD PUSH2 0x239 SWAP1 PUSH2 0xA13 JUMP JUMPDEST DUP1 PUSH1 0x1F ADD PUSH1 0x20 DUP1 SWAP2 DIV MUL PUSH1 0x20 ADD PUSH1 0x40 MLOAD SWAP1 DUP2 ADD PUSH1 0x40 MSTORE DUP1 SWAP3 SWAP2 SWAP1 DUP2 DUP2 MSTORE PUSH1 0x20 ADD DUP3 DUP1 SLOAD PUSH2 0x265 SWAP1 PUSH2 0xA13 JUMP JUMPDEST DUP1 ISZERO PUSH2 0x2B2 JUMPI DUP1 PUSH1 0x1F LT PUSH2 0x287 JUMPI PUSH2 0x100 DUP1 DUP4 SLOAD DIV MUL DUP4 MSTORE SWAP2 PUSH1 0x20 ADD SWAP2 PUSH2 0x2B2 JUMP JUMPDEST DUP3 ADD SWAP2 SWAP1 PUSH1 0x0 MSTORE PUSH1 0x20 PUSH1 0x0 KECCAK256 SWAP1 JUMPDEST DUP2 SLOAD DUP2 MSTORE SWAP1 PUSH1 0x1 ADD SWAP1 PUSH1 0x20 ADD DUP1 DUP4 GT PUSH2 0x295 JUMPI DUP3 SWAP1 SUB PUSH1 0x1F AND DUP3 ADD SWAP2 JUMPDEST POP POP POP POP POP DUP2 JUMP JUMPDEST PUSH1 0x0 DUP3 DUP2 MSTORE PUSH1 0x4 PUSH1 0x20 MSTORE PUSH1 0x40 SWAP1 KECCAK256 SLOAD ISZERO PUSH2 0x329 JUMPI PUSH1 0x40 MLOAD PUSH3 0x461BCD PUSH1 0xE5 SHL DUP2 MSTORE PUSH1 0x20 PUSH1 0x4 DUP3 ADD MSTORE PUSH1 0x25 PUSH1 0x24 DUP3 ADD MSTORE PUSH32 0x4465636B20616C7265616479207265676973746572656420666F722074686973 PUSH1 0x44 DUP3 ADD MSTORE PUSH5 0x2067616D65 PUSH1 0xD8 SHL PUSH1 0x64 DUP3 ADD MSTORE PUSH1 0x84 ADD JUMPDEST PUSH1 0x40 MLOAD DUP1 SWAP2 SUB SWAP1 REVERT JUMPDEST PUSH1 0x0 DUP3 DUP2 MSTORE PUSH1 0x4 PUSH1 0x20 MSTORE PUSH1 0x40 SWAP1 KECCAK256 DUP4 SWAP1 SSTORE PUSH2 0x344 DUP4 DUP3 PUSH2 0x625 JUMP JUMPDEST DUP2 PUSH32 0xACC901B8A2F1CA82AB2FEB78792FD5E8C8710DD19714069957D6361FA01F1E79 DUP5 PUSH1 0x40 MLOAD PUSH2 0x376 SWAP2 DUP2 MSTORE PUSH1 0x20 ADD SWAP1 JUMP JUMPDEST PUSH1 0x40 MLOAD DUP1 SWAP2 SUB SWAP1 LOG2 POP POP POP JUMP JUMPDEST PUSH1 0x0 DUP4 DUP2 MSTORE PUSH1 0x4 PUSH1 0x20 MSTORE PUSH1 0x40 SWAP1 KECCAK256 SLOAD DUP7 EQ PUSH2 0x3EA JUMPI PUSH1 0x40 MLOAD PUSH3 0x461BCD PUSH1 0xE5 SHL DUP2 MSTORE PUSH1 0x20 PUSH1 0x4 DUP3 ADD MSTORE PUSH1 0x21 PUSH1 0x24 DUP3 ADD MSTORE PUSH32 0x4465636B206E6F74207265676973746572656420666F7220746869732067616D PUSH1 0x44 DUP3 ADD MSTORE PUSH1 0x65 PUSH1 0xF8 SHL PUSH1 0x64 DUP3 ADD MSTORE PUSH1 0x84 ADD PUSH2 0x320 JUMP JUMPDEST PUSH1 0x1 PUSH1 0x0 DUP8 DUP2 MSTORE PUSH1 0x20 DUP2 SWAP1 MSTORE PUSH1 0x40 SWAP1 KECCAK256 SLOAD PUSH1 0xFF AND PUSH1 0x2 DUP2 GT ISZERO PUSH2 0x40F JUMPI PUSH2 0x40F PUSH2 0x77C JUMP JUMPDEST EQ PUSH2 0x452 JUMPI PUSH1 0x40 MLOAD PUSH3 0x461BCD PUSH1 0xE5 SHL DUP2 MSTORE PUSH1 0x20 PUSH1 0x4 DUP3 ADD MSTORE PUSH1 0x13 PUSH1 0x24 DUP3 ADD MSTORE PUSH19 0x111958DAC81B9BDD19481B9BDD081D985B1A59 PUSH1 0x6A SHL PUSH1 0x44 DUP3 ADD MSTORE PUSH1 0x64 ADD PUSH2 0x320 JUMP JUMPDEST PUSH1 0x0 DUP4 DUP2 MSTORE PUSH1 0x5 PUSH1 0x20 SWAP1 DUP2 MSTORE PUSH1 0x40 DUP1 DUP4 KECCAK256 DUP8 DUP5 MSTORE SWAP1 SWAP2 MSTORE SWAP1 KECCAK256 SLOAD PUSH1 0xFF AND ISZERO PUSH2 0x4BC JUMPI PUSH1 0x40 MLOAD PUSH3 0x461BCD PUSH1 0xE5 SHL DUP2 MSTORE PUSH1 0x20 PUSH1 0x4 DUP3 ADD DUP2 SWAP1 MSTORE PUSH1 0x24 DUP3 ADD MSTORE PUSH32 0x4361726420616C726561647920647261776E206174207468697320696E646578 PUSH1 0x44 DUP3 ADD MSTORE PUSH1 0x64 ADD PUSH2 0x320 JUMP JUMPDEST PUSH1 0x40 DUP1 MLOAD PUSH1 0xA0 DUP2 ADD DUP3 MSTORE DUP8 DUP2 MSTORE PUSH1 0x20 DUP2 ADD DUP8 SWAP1 MSTORE DUP1 DUP3 ADD DUP7 SWAP1 MSTORE PUSH1 0x60 DUP2 ADD DUP6 SWAP1 MSTORE PUSH1 0x80 DUP2 ADD DUP5 SWAP1 MSTORE PUSH1 0x3 SLOAD SWAP2 MLOAD PUSH4 0x34BAEAB9 PUSH1 0xE0 SHL DUP2 MSTORE SWAP1 SWAP2 PUSH1 0x1 PUSH1 0x1 PUSH1 0xA0 SHL SUB AND SWAP1 PUSH4 0x34BAEAB9 SWAP1 PUSH2 0x519 SWAP1 DUP14 SWAP1 DUP14 SWAP1 DUP14 SWAP1 DUP8 SWAP1 PUSH1 0x4 ADD PUSH2 0xA76 JUMP JUMPDEST PUSH1 0x20 PUSH1 0x40 MLOAD DUP1 DUP4 SUB DUP2 DUP7 GAS STATICCALL ISZERO DUP1 ISZERO PUSH2 0x536 JUMPI RETURNDATASIZE PUSH1 0x0 DUP1 RETURNDATACOPY RETURNDATASIZE PUSH1 0x0 REVERT JUMPDEST POP POP POP POP PUSH1 0x40 MLOAD RETURNDATASIZE PUSH1 0x1F NOT PUSH1 0x1F DUP3 ADD AND DUP3 ADD DUP1 PUSH1 0x40 MSTORE POP DUP2 ADD SWAP1 PUSH2 0x55A SWAP2 SWAP1 PUSH2 0xAFA JUMP JUMPDEST PUSH2 0x5A6 JUMPI PUSH1 0x40 MLOAD PUSH3 0x461BCD PUSH1 0xE5 SHL DUP2 MSTORE PUSH1 0x20 PUSH1 0x4 DUP3 ADD MSTORE PUSH1 0x17 PUSH1 0x24 DUP3 ADD MSTORE PUSH32 0x496E76616C6964206361726420647261772070726F6F66000000000000000000 PUSH1 0x44 DUP3 ADD MSTORE PUSH1 0x64 ADD PUSH2 0x320 JUMP JUMPDEST PUSH1 0x0 DUP5 DUP2 MSTORE PUSH1 0x5 PUSH1 0x20 SWAP1 DUP2 MSTORE PUSH1 0x40 DUP1 DUP4 KECCAK256 DUP9 DUP5 MSTORE SWAP1 SWAP2 MSTORE SWAP1 KECCAK256 DUP1 SLOAD PUSH1 0xFF NOT AND PUSH1 0x1 OR SWAP1 SSTORE PUSH2 0x5D4 DUP7 DUP4 PUSH2 0x625 JUMP JUMPDEST PUSH1 0x40 DUP1 MLOAD DUP7 DUP2 MSTORE PUSH1 0x20 DUP2 ADD DUP7 SWAP1 MSTORE SWAP1 DUP2 ADD DUP5 SWAP1 MSTORE DUP7 SWAP1 DUP9 SWAP1 PUSH32 0x25A227FD9A69F97EB467DA34F1297902ECF2AA4A6CC393F18EA3EC42FEE4EF16 SWAP1 PUSH1 0x60 ADD PUSH1 0x40 MLOAD DUP1 SWAP2 SUB SWAP1 LOG3 POP POP POP POP POP POP POP POP POP POP JUMP JUMPDEST PUSH1 0x0 DUP3 DUP2 MSTORE PUSH1 0x20 DUP2 SWAP1 MSTORE PUSH1 0x40 DUP2 KECCAK256 SLOAD PUSH1 0xFF AND PUSH1 0x2 DUP2 GT ISZERO PUSH2 0x648 JUMPI PUSH2 0x648 PUSH2 0x77C JUMP JUMPDEST EQ PUSH2 0x68B JUMPI PUSH1 0x40 MLOAD PUSH3 0x461BCD PUSH1 0xE5 SHL DUP2 MSTORE PUSH1 0x20 PUSH1 0x4 DUP3 ADD MSTORE PUSH1 0x13 PUSH1 0x24 DUP3 ADD MSTORE PUSH19 0x4E6F746520616C726561647920657869737473 PUSH1 0x68 SHL PUSH1 0x44 DUP3 ADD MSTORE PUSH1 0x64 ADD PUSH2 0x320 JUMP JUMPDEST PUSH1 0x0 DUP3 DUP2 MSTORE PUSH1 0x20 DUP2 DUP2 MSTORE PUSH1 0x40 DUP1 DUP4 KECCAK256 DUP1 SLOAD PUSH1 0xFF NOT AND PUSH1 0x1 OR SWAP1 SSTORE PUSH1 0x2 SWAP1 SWAP2 MSTORE SWAP1 KECCAK256 PUSH2 0x6B6 DUP3 DUP3 PUSH2 0xB72 JUMP JUMPDEST POP DUP2 PUSH32 0x11D80DBC601487E7D7CCB4DD72CA753222F44DF72D69E388DF7C549CFEBE3126 DUP3 PUSH1 0x40 MLOAD PUSH2 0x6E7 SWAP2 SWAP1 PUSH2 0x70C JUMP JUMPDEST PUSH1 0x40 MLOAD DUP1 SWAP2 SUB SWAP1 LOG2 POP POP JUMP JUMPDEST PUSH1 0x0 PUSH1 0x20 DUP3 DUP5 SUB SLT ISZERO PUSH2 0x705 JUMPI PUSH1 0x0 DUP1 REVERT JUMPDEST POP CALLDATALOAD SWAP2 SWAP1 POP JUMP JUMPDEST PUSH1 0x0 PUSH1 0x20 DUP1 DUP4 MSTORE DUP4 MLOAD DUP1 DUP3 DUP6 ADD MSTORE PUSH1 0x0 JUMPDEST DUP2 DUP2 LT ISZERO PUSH2 0x739 JUMPI DUP6 DUP2 ADD DUP4 ADD MLOAD DUP6 DUP3 ADD PUSH1 0x40 ADD MSTORE DUP3 ADD PUSH2 0x71D JUMP JUMPDEST POP PUSH1 0x0 PUSH1 0x40 DUP3 DUP7 ADD ADD MSTORE PUSH1 0x40 PUSH1 0x1F NOT PUSH1 0x1F DUP4 ADD AND DUP6 ADD ADD SWAP3 POP POP POP SWAP3 SWAP2 POP POP JUMP JUMPDEST PUSH1 0x0 DUP1 PUSH1 0x40 DUP4 DUP6 SUB SLT ISZERO PUSH2 0x76D JUMPI PUSH1 0x0 DUP1 REVERT JUMPDEST POP POP DUP1 CALLDATALOAD SWAP3 PUSH1 0x20 SWAP1 SWAP2 ADD CALLDATALOAD SWAP2 POP JUMP JUMPDEST PUSH4 0x4E487B71 PUSH1 0xE0 SHL PUSH1 0x0 MSTORE PUSH1 0x21 PUSH1 0x4 MSTORE PUSH1 0x24 PUSH1 0x0 REVERT JUMPDEST PUSH1 0x20 DUP2 ADD PUSH1 0x3 DUP4 LT PUSH2 0x7B4 JUMPI PUSH4 0x4E487B71 PUSH1 0xE0 SHL PUSH1 0x0 MSTORE PUSH1 0x21 PUSH1 0x4 MSTORE PUSH1 0x24 PUSH1 0x0 REVERT JUMPDEST SWAP2 SWAP1 MSTORE SWAP1 JUMP JUMPDEST PUSH4 0x4E487B71 PUSH1 0xE0 SHL PUSH1 0x0 MSTORE PUSH1 0x41 PUSH1 0x4 MSTORE PUSH1 0x24 PUSH1 0x0 REVERT JUMPDEST PUSH1 0x40 DUP1 MLOAD SWAP1 DUP2 ADD PUSH8 0xFFFFFFFFFFFFFFFF DUP2 GT DUP3 DUP3 LT OR ISZERO PUSH2 0x7F3 JUMPI PUSH2 0x7F3 PUSH2 0x7BA JUMP JUMPDEST PUSH1 0x40 MSTORE SWAP1 JUMP JUMPDEST PUSH1 0x0 DUP3 PUSH1 0x1F DUP4 ADD SLT PUSH2 0x80A JUMPI PUSH1 0x0 DUP1 REVERT JUMPDEST DUP2 CALLDATALOAD PUSH8 0xFFFFFFFFFFFFFFFF DUP1 DUP3 GT ISZERO PUSH2 0x825 JUMPI PUSH2 0x825 PUSH2 0x7BA JUMP JUMPDEST PUSH1 0x40 MLOAD PUSH1 0x1F DUP4 ADD PUSH1 0x1F NOT SWAP1 DUP2 AND PUSH1 0x3F ADD AND DUP2 ADD SWAP1 DUP3 DUP3 GT DUP2 DUP4 LT OR ISZERO PUSH2 0x84D JUMPI PUSH2 0x84D PUSH2 0x7BA JUMP JUMPDEST DUP2 PUSH1 0x40 MSTORE DUP4 DUP2 MSTORE DUP7 PUSH1 0x20 DUP6 DUP9 ADD ADD GT ISZERO PUSH2 0x866 JUMPI PUSH1 0x0 DUP1 REVERT JUMPDEST DUP4 PUSH1 0x20 DUP8 ADD PUSH1 0x20 DUP4 ADD CALLDATACOPY PUSH1 0x0 PUSH1 0x20 DUP6 DUP4 ADD ADD MSTORE DUP1 SWAP5 POP POP POP POP POP SWAP3 SWAP2 POP POP JUMP JUMPDEST PUSH1 0x0 DUP1 PUSH1 0x0 PUSH1 0x60 DUP5 DUP7 SUB SLT ISZERO PUSH2 0x89B JUMPI PUSH1 0x0 DUP1 REVERT JUMPDEST DUP4 CALLDATALOAD SWAP3 POP PUSH1 0x20 DUP5 ADD CALLDATALOAD SWAP2 POP PUSH1 0x40 DUP5 ADD CALLDATALOAD PUSH8 0xFFFFFFFFFFFFFFFF DUP2 GT ISZERO PUSH2 0x8C0 JUMPI PUSH1 0x0 DUP1 REVERT JUMPDEST PUSH2 0x8CC DUP7 DUP3 DUP8 ADD PUSH2 0x7F9 JUMP JUMPDEST SWAP2 POP POP SWAP3 POP SWAP3 POP SWAP3 JUMP JUMPDEST PUSH1 0x0 DUP3 PUSH1 0x1F DUP4 ADD SLT PUSH2 0x8E7 JUMPI PUSH1 0x0 DUP1 REVERT JUMPDEST PUSH2 0x8EF PUSH2 0x7D0 JUMP JUMPDEST DUP1 PUSH1 0x40 DUP5 ADD DUP6 DUP2 GT ISZERO PUSH2 0x901 JUMPI PUSH1 0x0 DUP1 REVERT JUMPDEST DUP5 JUMPDEST DUP2 DUP2 LT ISZERO PUSH2 0x91B JUMPI DUP1 CALLDATALOAD DUP5 MSTORE PUSH1 0x20 SWAP4 DUP5 ADD SWAP4 ADD PUSH2 0x903 JUMP JUMPDEST POP SWAP1 SWAP6 SWAP5 POP POP POP POP POP JUMP JUMPDEST PUSH1 0x0 DUP1 PUSH1 0x0 DUP1 PUSH1 0x0 DUP1 PUSH1 0x0 DUP1 PUSH1 0x0 PUSH2 0x1C0 DUP11 DUP13 SUB SLT ISZERO PUSH2 0x945 JUMPI PUSH1 0x0 DUP1 REVERT JUMPDEST PUSH2 0x94F DUP12 DUP12 PUSH2 0x8D6 JUMP JUMPDEST SWAP9 POP DUP11 PUSH1 0x5F DUP12 ADD SLT PUSH2 0x960 JUMPI PUSH1 0x0 DUP1 REVERT JUMPDEST PUSH2 0x968 PUSH2 0x7D0 JUMP JUMPDEST DUP1 PUSH1 0xC0 DUP13 ADD DUP14 DUP2 GT ISZERO PUSH2 0x97A JUMPI PUSH1 0x0 DUP1 REVERT JUMPDEST PUSH1 0x40 DUP14 ADD JUMPDEST DUP2 DUP2 LT ISZERO PUSH2 0x9A1 JUMPI PUSH2 0x991 DUP16 DUP3 PUSH2 0x8D6 JUMP JUMPDEST DUP5 MSTORE PUSH1 0x20 SWAP1 SWAP4 ADD SWAP3 PUSH1 0x40 ADD PUSH2 0x97F JUMP JUMPDEST POP DUP2 SWAP11 POP PUSH2 0x9AF DUP15 DUP3 PUSH2 0x8D6 JUMP JUMPDEST SWAP10 POP POP POP POP PUSH2 0x100 DUP11 ADD CALLDATALOAD SWAP6 POP PUSH2 0x120 DUP11 ADD CALLDATALOAD SWAP5 POP PUSH2 0x140 DUP11 ADD CALLDATALOAD SWAP4 POP PUSH2 0x160 DUP11 ADD CALLDATALOAD SWAP3 POP PUSH2 0x180 DUP11 ADD CALLDATALOAD SWAP2 POP PUSH2 0x1A0 DUP11 ADD CALLDATALOAD PUSH8 0xFFFFFFFFFFFFFFFF DUP2 GT ISZERO PUSH2 0x9F7 JUMPI PUSH1 0x0 DUP1 REVERT JUMPDEST PUSH2 0xA03 DUP13 DUP3 DUP14 ADD PUSH2 0x7F9 JUMP JUMPDEST SWAP2 POP POP SWAP3 SWAP6 SWAP9 POP SWAP3 SWAP6 SWAP9 POP SWAP3 SWAP6 SWAP9 JUMP JUMPDEST PUSH1 0x1 DUP2 DUP2 SHR SWAP1 DUP3 AND DUP1 PUSH2 0xA27 JUMPI PUSH1 0x7F DUP3 AND SWAP2 POP JUMPDEST PUSH1 0x20 DUP3 LT DUP2 SUB PUSH2 0xA47 JUMPI PUSH4 0x4E487B71 PUSH1 0xE0 SHL PUSH1 0x0 MSTORE PUSH1 0x22 PUSH1 0x4 MSTORE PUSH1 0x24 PUSH1 0x0 REVERT JUMPDEST POP SWAP2 SWAP1 POP JUMP JUMPDEST DUP1 PUSH1 0x0 JUMPDEST PUSH1 0x2 DUP2 LT ISZERO PUSH2 0xA70 JUMPI DUP2 MLOAD DUP5 MSTORE PUSH1 0x20 SWAP4 DUP5 ADD SWAP4 SWAP1 SWAP2 ADD SWAP1 PUSH1 0x1 ADD PUSH2 0xA51 JUMP JUMPDEST POP POP POP POP JUMP JUMPDEST PUSH2 0x1A0 DUP2 ADD PUSH2 0xA85 DUP3 DUP8 PUSH2 0xA4D JUMP JUMPDEST PUSH1 0x40 DUP1 DUP4 ADD DUP7 PUSH1 0x0 JUMPDEST PUSH1 0x2 DUP2 LT ISZERO PUSH2 0xAB5 JUMPI PUSH2 0xAA2 DUP4 DUP4 MLOAD PUSH2 0xA4D JUMP JUMPDEST SWAP2 DUP4 ADD SWAP2 PUSH1 0x20 SWAP2 SWAP1 SWAP2 ADD SWAP1 PUSH1 0x1 ADD PUSH2 0xA8E JUMP JUMPDEST POP POP POP POP PUSH2 0xAC6 PUSH1 0xC0 DUP4 ADD DUP6 PUSH2 0xA4D JUMP JUMPDEST PUSH2 0x100 DUP3 ADD DUP4 PUSH1 0x0 JUMPDEST PUSH1 0x5 DUP2 LT ISZERO PUSH2 0xAEE JUMPI DUP2 MLOAD DUP4 MSTORE PUSH1 0x20 SWAP3 DUP4 ADD SWAP3 SWAP1 SWAP2 ADD SWAP1 PUSH1 0x1 ADD PUSH2 0xACF JUMP JUMPDEST POP POP POP SWAP6 SWAP5 POP POP POP POP POP JUMP JUMPDEST PUSH1 0x0 PUSH1 0x20 DUP3 DUP5 SUB SLT ISZERO PUSH2 0xB0C JUMPI PUSH1 0x0 DUP1 REVERT JUMPDEST DUP2 MLOAD DUP1 ISZERO ISZERO DUP2 EQ PUSH2 0xB1C JUMPI PUSH1 0x0 DUP1 REVERT JUMPDEST SWAP4 SWAP3 POP POP POP JUMP JUMPDEST PUSH1 0x1F DUP3 GT ISZERO PUSH2 0xB6D JUMPI PUSH1 0x0 DUP2 DUP2 MSTORE PUSH1 0x20 DUP2 KECCAK256 PUSH1 0x1F DUP6 ADD PUSH1 0x5 SHR DUP2 ADD PUSH1 0x20 DUP7 LT ISZERO PUSH2 0xB4A JUMPI POP DUP1 JUMPDEST PUSH1 0x1F DUP6 ADD PUSH1 0x5 SHR DUP3 ADD SWAP2 POP JUMPDEST DUP2 DUP2 LT ISZERO PUSH2 0xB69 JUMPI DUP3 DUP2 SSTORE PUSH1 0x1 ADD PUSH2 0xB56 JUMP JUMPDEST POP POP POP JUMPDEST POP POP POP JUMP JUMPDEST DUP2 MLOAD PUSH8 0xFFFFFFFFFFFFFFFF DUP2 GT ISZERO PUSH2 0xB8C JUMPI PUSH2 0xB8C PUSH2 0x7BA JUMP JUMPDEST PUSH2 0xBA0 DUP2 PUSH2 0xB9A DUP5 SLOAD PUSH2 0xA13 JUMP JUMPDEST DUP5 PUSH2 0xB23 JUMP JUMPDEST PUSH1 0x20 DUP1 PUSH1 0x1F DUP4 GT PUSH1 0x1 DUP2 EQ PUSH2 0xBD5 JUMPI PUSH1 0x0 DUP5 ISZERO PUSH2 0xBBD JUMPI POP DUP6 DUP4 ADD MLOAD JUMPDEST PUSH1 0x0 NOT PUSH1 0x3 DUP7 SWAP1 SHL SHR NOT AND PUSH1 0x1 DUP6 SWAP1 SHL OR DUP6 SSTORE PUSH2 0xB69 JUMP JUMPDEST PUSH1 0x0 DUP6 DUP2 MSTORE PUSH1 0x20 DUP2 KECCAK256 PUSH1 0x1F NOT DUP7 AND SWAP2 JUMPDEST DUP3 DUP2 LT ISZERO PUSH2 0xC04 JUMPI DUP9 DUP7 ADD MLOAD DUP3 SSTORE SWAP5 DUP5 ADD SWAP5 PUSH1 0x1 SWAP1 SWAP2 ADD SWAP1 DUP5 ADD PUSH2 0xBE5 JUMP JUMPDEST POP DUP6 DUP3 LT ISZERO PUSH2 0xC22 JUMPI DUP8 DUP6 ADD MLOAD PUSH1 0x0 NOT PUSH1 0x3 DUP9 SWAP1 SHL PUSH1 0xF8 AND SHR NOT AND DUP2 SSTORE JUMPDEST POP POP POP POP POP PUSH1 0x1 SWAP1 DUP2 SHL ADD SWAP1 SSTORE POP JUMP INVALID LOG2 PUSH5 0x6970667358 0x22 SLT KECCAK256 PUSH22 0x67E59FAEE16DE04A845660A6999AECBFAAAB23046211 0x2D DUP12 0xD8 PUSH3 0xB9865E CALLDATALOAD SAR PUSH5 0x736F6C6343 STOP ADDMOD EQ STOP CALLER "},"methodIdentifiers":{"drawCard(uint256[2],uint256[2][2],uint256[2],bytes32,bytes32,uint256,uint256,bytes32,bytes)":"d9377b4b","drawVerifier()":"15e124d3","drawnCards(uint256,uint256)":"225ddfe7","encryptedNotes(bytes32)":"14107a94","getNoteState(bytes32)":"83091c37","isNullifierUsed(bytes32)":"22dc7b4c","notes(bytes32)":"85de26b7","nullifiers(bytes32)":"2997e86b","registerDeck(bytes32,uint256,bytes)":"a2bf23cd","registeredDecks(uint256)":"058d0c43"}}}}}