{"contracts/verifiers/CardDrawVerifier.sol":{"Groth16Verifier":{"abi":[{"inputs":[{"internalType":"uint256[2]","name":"_pA","type":"uint256[2]"},{"internalType":"uint256[2][2]","name":"_pB","type":"uint256[2][2]"},{"internalType":"uint256[2]","name":"_pC","type":"uint256[2]"},{"internalType":"uint256[5]","name":"_pubSignals","type":"uint256[5]"}],"name":"verifyProof","outputs":[{"internalType":"bool","name":"","type":"bool"}],"stateMutability":"view","type":"function"}],"evm":{"bytecode":{"linkReferences":{},"object":"608060405234801561001057600080fd5b506106d2806100206000396000f3fe608060405234801561001057600080fd5b506004361061002b5760003560e01c806334baeab914610030575b600080fd5b61004361003e366004610636565b610057565b604051901515815260200160405180910390f35b60006105ba565b7f30644e72e131a029b85045b68181585d2833e84879b9709143e1f593f0000001811061008f576000805260206000f35b50565b600060405183815284602082015285604082015260408160608360076107d05a03fa9150816100c5576000805260206000f35b825160408201526020830151606082015260408360808360066107d05a03fa915050806100f6576000805260206000f35b5050505050565b7f27eb70891f3c2a06eeaf9f58ba7548ea92eb35fd1b2430a8dcd58d388347c71885527f077da0885f624c60d78ca04d3061df3167b383a3a94405780984c89e6572fe9060208601526000608086018661019a87357f2a1368c86b6a9187f77f1e9fd94bd1063df4364087ee1b5f5535992084a3ce737f21b5df77a5c7755e1229e9902b4692445ce3db58100bc9b9901bca3a53701db184610092565b6101ea60208801357f025420d601b0271d2012f7a403c957f53830ce0cdc4576c61698b0661a7b46937f0a5921165eced7951ad882c77b14166dad70e74d3037ee146c6614c34fb5f3af84610092565b61023a60408801357f02b0b2fed2efe589f78d8401cf3d17ad1da7594815ad0023962d770a6191e46f7f0c83c829d83eb577b5abd164cd3747e5d6beba61e984f6774b713e8f49055b5f84610092565b61028a60608801357f2f8a57cd31ae4e9df128ba83bcda2d1b15edf46d0040d9a2c71b4170c03e07ee7f0463b5efcb46459e9b26bf9bbb6085ed6eb230348c1caafafc9d5d6095a81c1f84610092565b6102da60808801357f21296eb2515d92403f9ee40d87471634fee45f563c7d8daa8ab7340be22f39d87f051e74bc4feb9753504293666cef2f2b3a93ca50a93bfdd57660cd0ce9a2c8a084610092565b50823581527f30644e72e131a029b85045b68181585d97816a916871ca8d3c208c16d87cfd4760208401357f30644e72e131a029b85045b68181585d97816a916871ca8d3c208c16d87cfd4703066020820152833560408201526020840135606082015260408401356080820152606084013560a08201527f2d4d9aa7e302d9df41749d5507949d05dbea33fbb16c643b22f599a2be6df2e260c08201527f14bedd503c37ceb061d8ec60209fe345ce89830a19230301f076caff004d192660e08201527f0967032fcbf776d1afc985f88877f182d38480a653f2decaa9794cbc3bf3060c6101008201527f0e187847ad4c798374d0d6732bf501847dd68bc0e071241e0213bc7fc13db7ab6101208201527f304cfbd1e08a704a99f5e847d93f8c3caafddec46b7a0d379da69a4d112346a76101408201527f1739c1b1a457a8c7313123d24d2f9192f896b7c63eea05a9d57f06547ad0cec8610160820152600087015161018082015260206000018701516101a08201527f198e9393920d483a7260bfb731fb5d25f1aa493335a9e71297e485b7aef312c26101c08201527f1800deef121f1e76426a00665e5c4479674322d4f75edadd46debd5cd992f6ed6101e08201527f090689d0585ff075ec9e99ad690c3395bc4b313370b38ef355acdadcd122975b6102008201527f12c85ea5db8c6deb4aab71808dcb408fe3d1e7690c43d37b4ce6cc0166fa7daa610220820152843561024082015260208501356102608201527f07413bfab449adb9598a63b3dc7ce01c914fdafda1e7bd0ea9f38ca15f33d7a16102808201527f18864f39e709e6c1f82c8b6e3df91ec08293df7f483ed47df613da0a8400d68d6102a08201527f159b13da3cd6f48aa049a655a7165d7fa85d817fd7d82ecc248c22bd8e9be3486102c08201527f22267702423c40cb3c639e3dcd01d1cec73f8042ee4b508d04dbcbe03f8392476102e08201526020816103008360086107d05a03fa9051169695505050505050565b60405161038081016040526105d2600084013561005e565b6105df602084013561005e565b6105ec604084013561005e565b6105f9606084013561005e565b610606608084013561005e565b610613818486888a6100fd565b90508060005260206000f35b806040810183101561063057600080fd5b92915050565b6000806000806101a080868803121561064e57600080fd5b610658878761061f565b945060c086018781111561066b57600080fd5b60408701945061067b888261061f565b93505086818701111561068d57600080fd5b5092959194509261010001915056fea26469706673582212202b7c1c4382dfbca0e23176ea85db22ef281d84dfad4684a62c588c1502664b8564736f6c63430008140033","opcodes":"PUSH1 0x80 PUSH1 0x40 MSTORE CALLVALUE DUP1 ISZERO PUSH2 0x10 JUMPI PUSH1 0x0 DUP1 REVERT JUMPDEST POP PUSH2 0x6D2 DUP1 PUSH2 0x20 PUSH1 0x0 CODECOPY PUSH1 0x0 RETURN INVALID PUSH1 0x80 PUSH1 0x40 MSTORE CALLVALUE DUP1 ISZERO PUSH2 0x10 JUMPI PUSH1 0x0 DUP1 REVERT JUMPDEST POP PUSH1 0x4 CALLDATASIZE LT PUSH2 0x2B JUMPI PUSH1 0x0 CALLDATALOAD PUSH1 0xE0 SHR DUP1 PUSH4 0x34BAEAB9 EQ PUSH2 0x30 JUMPI JUMPDEST PUSH1 0x0 DUP1 REVERT JUMPDEST PUSH2 0x43 PUSH2 0x3E CALLDATASIZE PUSH1 0x4 PUSH2 0x636 JUMP JUMPDEST PUSH2 0x57 JUMP JUMPDEST PUSH1 0x40 MLOAD SWAP1 ISZERO ISZERO DUP2 MSTORE PUSH1 0x20 ADD PUSH1 0x40 MLOAD DUP1 SWAP2 SUB SWAP1 RETURN JUMPDEST PUSH1 0x0 PUSH2 0x5BA JUMP JUMPDEST PUSH32 0x30644E72E131A029B85045B68181585D2833E84879B9709143E1F593F0000001 DUP2 LT PUSH2 0x8F JUMPI PUSH1 0x0 DUP1 MSTORE PUSH1 0x20 PUSH1 0x0 RETURN JUMPDEST POP JUMP JUMPDEST PUSH1 0x0 PUSH1 0x40 MLOAD DUP4 DUP2 MSTORE DUP5 PUSH1 0x20 DUP3 ADD MSTORE DUP6 PUSH1 0x40 DUP3 ADD MSTORE PUSH1 0x40 DUP2 PUSH1 0x60 DUP4 PUSH1 0x7 PUSH2 0x7D0 GAS SUB STATICCALL SWAP2 POP DUP2 PUSH2 0xC5 JUMPI PUSH1 0x0 DUP1 MSTORE PUSH1 0x20 PUSH1 0x0 RETURN JUMPDEST DUP3 MLOAD PUSH1 0x40 DUP3 ADD MSTORE PUSH1 0x20 DUP4 ADD MLOAD PUSH1 0x60 DUP3 ADD MSTORE PUSH1 0x40 DUP4 PUSH1 0x80 DUP4 PUSH1 0x6 PUSH2 0x7D0 GAS SUB STATICCALL SWAP2 POP POP DUP1 PUSH2 0xF6 JUMPI PUSH1 0x0 DUP1 MSTORE PUSH1 0x20 PUSH1 0x0 RETURN JUMPDEST POP POP POP POP POP JUMP JUMPDEST PUSH32 0x27EB70891F3C2A06EEAF9F58BA7548EA92EB35FD1B2430A8DCD58D388347C718 DUP6 MSTORE PUSH32 0x77DA0885F624C60D78CA04D3061DF3167B383A3A94405780984C89E6572FE90 PUSH1 0x20 DUP7 ADD MSTORE PUSH1 0x0 PUSH1 0x80 DUP7 ADD DUP7 PUSH2 0x19A DUP8 CALLDATALOAD PUSH32 0x2A1368C86B6A9187F77F1E9FD94BD1063DF4364087EE1B5F5535992084A3CE73 PUSH32 0x21B5DF77A5C7755E1229E9902B4692445CE3DB58100BC9B9901BCA3A53701DB1 DUP5 PUSH2 0x92 JUMP JUMPDEST PUSH2 0x1EA PUSH1 0x20 DUP9 ADD CALLDATALOAD PUSH32 0x25420D601B0271D2012F7A403C957F53830CE0CDC4576C61698B0661A7B4693 PUSH32 0xA5921165ECED7951AD882C77B14166DAD70E74D3037EE146C6614C34FB5F3AF DUP5 PUSH2 0x92 JUMP JUMPDEST PUSH2 0x23A PUSH1 0x40 DUP9 ADD CALLDATALOAD PUSH32 0x2B0B2FED2EFE589F78D8401CF3D17AD1DA7594815AD0023962D770A6191E46F PUSH32 0xC83C829D83EB577B5ABD164CD3747E5D6BEBA61E984F6774B713E8F49055B5F DUP5 PUSH2 0x92 JUMP JUMPDEST PUSH2 0x28A PUSH1 0x60 DUP9 ADD CALLDATALOAD PUSH32 0x2F8A57CD31AE4E9DF128BA83BCDA2D1B15EDF46D0040D9A2C71B4170C03E07EE PUSH32 0x463B5EFCB46459E9B26BF9BBB6085ED6EB230348C1CAAFAFC9D5D6095A81C1F DUP5 PUSH2 0x92 JUMP JUMPDEST PUSH2 0x2DA PUSH1 0x80 DUP9 ADD CALLDATALOAD PUSH32 0x21296EB2515D92403F9EE40D87471634FEE45F563C7D8DAA8AB7340BE22F39D8 PUSH32 0x51E74BC4FEB9753504293666CEF2F2B3A93CA50A93BFDD57660CD0CE9A2C8A0 DUP5 PUSH2 0x92 JUMP JUMPDEST POP DUP3 CALLDATALOAD DUP2 MSTORE PUSH32 0x30644E72E131A029B85045B68181585D97816A916871CA8D3C208C16D87CFD47 PUSH1 0x20 DUP5 ADD CALLDATALOAD PUSH32 0x30644E72E131A029B85045B68181585D97816A916871CA8D3C208C16D87CFD47 SUB MOD PUSH1 0x20 DUP3 ADD MSTORE DUP4 CALLDATALOAD PUSH1 0x40 DUP3 ADD MSTORE PUSH1 0x20 DUP5 ADD CALLDATALOAD PUSH1 0x60 DUP3 ADD MSTORE PUSH1 0x40 DUP5 ADD CALLDATALOAD PUSH1 0x80 DUP3 ADD MSTORE PUSH1 0x60 DUP5 ADD CALLDATALOAD PUSH1 0xA0 DUP3 ADD MSTORE PUSH32 0x2D4D9AA7E302D9DF41749D5507949D05DBEA33FBB16C643B22F599A2BE6DF2E2 PUSH1 0xC0 DUP3 ADD MSTORE PUSH32 0x14BEDD503C37CEB061D8EC60209FE345CE89830A19230301F076CAFF004D1926 PUSH1 0xE0 DUP3 ADD MSTORE PUSH32 0x967032FCBF776D1AFC985F88877F182D38480A653F2DECAA9794CBC3BF3060C PUSH2 0x100 DUP3 ADD MSTORE PUSH32 0xE187847AD4C798374D0D6732BF501847DD68BC0E071241E0213BC7FC13DB7AB PUSH2 0x120 DUP3 ADD MSTORE PUSH32 0x304CFBD1E08A704A99F5E847D93F8C3CAAFDDEC46B7A0D379DA69A4D112346A7 PUSH2 0x140 DUP3 ADD MSTORE PUSH32 0x1739C1B1A457A8C7313123D24D2F9192F896B7C63EEA05A9D57F06547AD0CEC8 PUSH2 0x160 DUP3 ADD MSTORE PUSH1 0x0 DUP8 ADD MLOAD PUSH2 0x180 DUP3 ADD MSTORE PUSH1 0x20 PUSH1 0x0 ADD DUP8 ADD MLOAD PUSH2 0x1A0 DUP3 ADD MSTORE PUSH32 0x198E9393920D483A7260BFB731FB5D25F1AA493335A9E71297E485B7AEF312C2 PUSH2 0x1C0 DUP3 ADD MSTORE PUSH32 0x1800DEEF121F1E76426A00665E5C4479674322D4F75EDADD46DEBD5CD992F6ED PUSH2 0x1E0 DUP3 ADD MSTORE PUSH32 0x90689D0585FF075EC9E99AD690C3395BC4B313370B38EF355ACDADCD122975B PUSH2 0x200 DUP3 ADD MSTORE PUSH32 0x12C85EA5DB8C6DEB4AAB71808DCB408FE3D1E7690C43D37B4CE6CC0166FA7DAA PUSH2 0x220 DUP3 ADD MSTORE DUP5 CALLDATALOAD PUSH2 0x240 DUP3 ADD MSTORE PUSH1 0x20 DUP6 ADD CALLDATALOAD PUSH2 0x260 DUP3 ADD MSTORE PUSH32 0x7413BFAB449ADB9598A63B3DC7CE01C914FDAFDA1E7BD0EA9F38CA15F33D7A1 PUSH2 0x280 DUP3 ADD MSTORE PUSH32 0x18864F39E709E6C1F82C8B6E3DF91EC08293DF7F483ED47DF613DA0A8400D68D PUSH2 0x2A0 DUP3 ADD MSTORE PUSH32 0x159B13DA3CD6F48AA049A655A7165D7FA85D817FD7D82ECC248C22BD8E9BE348 PUSH2 0x2C0 DUP3 ADD MSTORE PUSH32 0x22267702423C40CB3C639E3DCD01D1CEC73F8042EE4B508D04DBCBE03F839247 PUSH2 0x2E0 DUP3 ADD MSTORE PUSH1 0x20 DUP2 PUSH2 0x300 DUP4 PUSH1 0x8 PUSH2 0x7D0 GAS SUB STATICCALL SWAP1 MLOAD AND SWAP7 SWAP6 POP POP POP POP POP POP JUMP JUMPDEST PUSH1 0x40 MLOAD PUSH2 0x380 DUP2 ADD PUSH1 0x40 MSTORE PUSH2 0x5D2 PUSH1 0x0 DUP5 ADD CALLDATALOAD PUSH2 0x5E JUMP JUMPDEST PUSH2 0x5DF PUSH1 0x20 DUP5 ADD CALLDATALOAD PUSH2 0x5E JUMP JUMPDEST PUSH2 0x5EC PUSH1 0x40 DUP5 ADD CALLDATALOAD PUSH2 0x5E JUMP JUMPDEST PUSH2 0x5F9 PUSH1 0x60 DUP5 ADD CALLDATALOAD PUSH2 0x5E JUMP JUMPDEST PUSH2 0x606 PUSH1 0x80 DUP5 ADD CALLDATALOAD PUSH2 0x5E JUMP JUMPDEST PUSH2 0x613 DUP2 DUP5 DUP7 DUP9 DUP11 PUSH2 0xFD JUMP JUMPDEST SWAP1 POP DUP1 PUSH1 0x0 MSTORE PUSH1 0x20 PUSH1 0x0 RETURN JUMPDEST DUP1 PUSH1 0x40 DUP2 ADD DUP4 LT ISZERO PUSH2 0x630 JUMPI PUSH1 0x0 DUP1 REVERT JUMPDEST SWAP3 SWAP2 POP POP JUMP JUMPDEST PUSH1 0x0 DUP1 PUSH1 0x0 DUP1 PUSH2 0x1A0 DUP1 DUP7 DUP9 SUB SLT ISZERO PUSH2 0x64E JUMPI PUSH1 0x0 DUP1 REVERT JUMPDEST PUSH2 0x658 DUP8 DUP8 PUSH2 0x61F JUMP JUMPDEST SWAP5 POP PUSH1 0xC0 DUP7 ADD DUP8 DUP2 GT ISZERO PUSH2 0x66B JUMPI PUSH1 0x0 DUP1 REVERT JUMPDEST PUSH1 0x40 DUP8 ADD SWAP5 POP PUSH2 0x67B DUP9 DUP3 PUSH2 0x61F JUMP JUMPDEST SWAP4 POP POP DUP7 DUP2 DUP8 ADD GT ISZERO PUSH2 0x68D JUMPI PUSH1 0x0 DUP1 REVERT JUMPDEST POP SWAP3 SWAP6 SWAP2 SWAP5 POP SWAP3 PUSH2 0x100 ADD SWAP2 POP JUMP INVALID LOG2 PUSH5 0x6970667358 0x22 SLT KECCAK256 0x2B PUSH29 0x1C4382DFBCA0E23176EA85DB22EF281D84DFAD4684A62C588C1502664B DUP6 PUSH5 0x736F6C6343 STOP ADDMOD EQ STOP CALLER "},"methodIdentifiers":{"verifyProof(uint256[2],uint256[2][2],uint256[2],uint256[5])":"34baeab9"}}}}}