{"contracts/test/MockNFTTransferVerifier.sol":{"MockNFTTransferVerifier":{"abi":[{"inputs":[{"internalType":"uint256[2]","name":"","type":"uint256[2]"},{"internalType":"uint256[2][2]","name":"","type":"uint256[2][2]"},{"internalType":"uint256[2]","name":"","type":"uint256[2]"},{"internalType":"uint256[5]","name":"","type":"uint256[5]"}],"name":"verifyProof","outputs":[{"internalType":"bool","name":"","type":"bool"}],"stateMutability":"pure","type":"function"}],"evm":{"bytecode":{"linkReferences":{},"object":"608060405234801561001057600080fd5b50610222806100206000396000f3fe608060405234801561001057600080fd5b506004361061002b5760003560e01c806334baeab914610030575b600080fd5b61004861003e36600461010e565b6001949350505050565b604051901515815260200160405180910390f35b634e487b7160e01b600052604160045260246000fd5b6040805190810167ffffffffffffffff811182821017156100955761009561005c565b60405290565b60405160a0810167ffffffffffffffff811182821017156100955761009561005c565b600082601f8301126100cf57600080fd5b6100d7610072565b8060408401858111156100e957600080fd5b845b818110156101035780358452602093840193016100eb565b509095945050505050565b6000806000806101a080868803121561012657600080fd5b61013087876100be565b9450604087605f88011261014357600080fd5b61014b610072565b8060c089018a81111561015d57600080fd5b838a015b81811015610182576101738c826100be565b84526020909301928401610161565b508197506101908b826100be565b9650505050508661011f8701126101a657600080fd5b6101ae61009b565b9086019080888311156101c057600080fd5b61010088015b838110156101de5780358352602092830192016101c6565b50959894975092955050505056fea2646970667358221220faab4891752291ea58e9c788fced8032caa6cd2544cc7ad4c4fc312bfacbe59a64736f6c63430008140033","opcodes":"PUSH1 0x80 PUSH1 0x40 MSTORE CALLVALUE DUP1 ISZERO PUSH2 0x10 JUMPI PUSH1 0x0 DUP1 REVERT JUMPDEST POP PUSH2 0x222 DUP1 PUSH2 0x20 PUSH1 0x0 CODECOPY PUSH1 0x0 RETURN INVALID PUSH1 0x80 PUSH1 0x40 MSTORE CALLVALUE DUP1 ISZERO PUSH2 0x10 JUMPI PUSH1 0x0 DUP1 REVERT JUMPDEST POP PUSH1 0x4 CALLDATASIZE LT PUSH2 0x2B JUMPI PUSH1 0x0 CALLDATALOAD PUSH1 0xE0 SHR DUP1 PUSH4 0x34BAEAB9 EQ PUSH2 0x30 JUMPI JUMPDEST PUSH1 0x0 DUP1 REVERT JUMPDEST PUSH2 0x48 PUSH2 0x3E CALLDATASIZE PUSH1 0x4 PUSH2 0x10E JUMP JUMPDEST PUSH1 0x1 SWAP5 SWAP4 POP POP POP POP JUMP JUMPDEST PUSH1 0x40 MLOAD SWAP1 ISZERO ISZERO DUP2 MSTORE PUSH1 0x20 ADD PUSH1 0x40 MLOAD DUP1 SWAP2 SUB SWAP1 RETURN JUMPDEST PUSH4 0x4E487B71 PUSH1 0xE0 SHL PUSH1 0x0 MSTORE PUSH1 0x41 PUSH1 0x4 MSTORE PUSH1 0x24 PUSH1 0x0 REVERT JUMPDEST PUSH1 0x40 DUP1 MLOAD SWAP1 DUP2 ADD PUSH8 0xFFFFFFFFFFFFFFFF DUP2 GT DUP3 DUP3 LT OR ISZERO PUSH2 0x95 JUMPI PUSH2 0x95 PUSH2 0x5C JUMP JUMPDEST PUSH1 0x40 MSTORE SWAP1 JUMP JUMPDEST PUSH1 0x40 MLOAD PUSH1 0xA0 DUP2 ADD PUSH8 0xFFFFFFFFFFFFFFFF DUP2 GT DUP3 DUP3 LT OR ISZERO PUSH2 0x95 JUMPI PUSH2 0x95 PUSH2 0x5C JUMP JUMPDEST PUSH1 0x0 DUP3 PUSH1 0x1F DUP4 ADD SLT PUSH2 0xCF JUMPI PUSH1 0x0 DUP1 REVERT JUMPDEST PUSH2 0xD7 PUSH2 0x72 JUMP JUMPDEST DUP1 PUSH1 0x40 DUP5 ADD DUP6 DUP2 GT ISZERO PUSH2 0xE9 JUMPI PUSH1 0x0 DUP1 REVERT JUMPDEST DUP5 JUMPDEST DUP2 DUP2 LT ISZERO PUSH2 0x103 JUMPI DUP1 CALLDATALOAD DUP5 MSTORE PUSH1 0x20 SWAP4 DUP5 ADD SWAP4 ADD PUSH2 0xEB JUMP JUMPDEST POP SWAP1 SWAP6 SWAP5 POP POP POP POP POP JUMP JUMPDEST PUSH1 0x0 DUP1 PUSH1 0x0 DUP1 PUSH2 0x1A0 DUP1 DUP7 DUP9 SUB SLT ISZERO PUSH2 0x126 JUMPI PUSH1 0x0 DUP1 REVERT JUMPDEST PUSH2 0x130 DUP8 DUP8 PUSH2 0xBE JUMP JUMPDEST SWAP5 POP PUSH1 0x40 DUP8 PUSH1 0x5F DUP9 ADD SLT PUSH2 0x143 JUMPI PUSH1 0x0 DUP1 REVERT JUMPDEST PUSH2 0x14B PUSH2 0x72 JUMP JUMPDEST DUP1 PUSH1 0xC0 DUP10 ADD DUP11 DUP2 GT ISZERO PUSH2 0x15D JUMPI PUSH1 0x0 DUP1 REVERT JUMPDEST DUP4 DUP11 ADD JUMPDEST DUP2 DUP2 LT ISZERO PUSH2 0x182 JUMPI PUSH2 0x173 DUP13 DUP3 PUSH2 0xBE JUMP JUMPDEST DUP5 MSTORE PUSH1 0x20 SWAP1 SWAP4 ADD SWAP3 DUP5 ADD PUSH2 0x161 JUMP JUMPDEST POP DUP2 SWAP8 POP PUSH2 0x190 DUP12 DUP3 PUSH2 0xBE JUMP JUMPDEST SWAP7 POP POP POP POP POP DUP7 PUSH2 0x11F DUP8 ADD SLT PUSH2 0x1A6 JUMPI PUSH1 0x0 DUP1 REVERT JUMPDEST PUSH2 0x1AE PUSH2 0x9B JUMP JUMPDEST SWAP1 DUP7 ADD SWAP1 DUP1 DUP9 DUP4 GT ISZERO PUSH2 0x1C0 JUMPI PUSH1 0x0 DUP1 REVERT JUMPDEST PUSH2 0x100 DUP9 ADD JUMPDEST DUP4 DUP2 LT ISZERO PUSH2 0x1DE JUMPI DUP1 CALLDATALOAD DUP4 MSTORE PUSH1 0x20 SWAP3 DUP4 ADD SWAP3 ADD PUSH2 0x1C6 JUMP JUMPDEST POP SWAP6 SWAP9 SWAP5 SWAP8 POP SWAP3 SWAP6 POP POP POP POP JUMP INVALID LOG2 PUSH5 0x6970667358 0x22 SLT KECCAK256 STATICCALL 0xAB BASEFEE SWAP2 PUSH22 0x2291EA58E9C788FCED8032CAA6CD2544CC7AD4C4FC31 0x2B STATICCALL 0xCB 0xE5 SWAP11 PUSH5 0x736F6C6343 STOP ADDMOD EQ STOP CALLER "},"methodIdentifiers":{"verifyProof(uint256[2],uint256[2][2],uint256[2],uint256[5])":"34baeab9"}}}}}