{
  "_format": "hh-sol-artifact-1",
  "contractName": "GamingItemTrade",
  "sourceName": "contracts/GamingItemTrade.sol",
  "abi": [
    {
      "inputs": [
        {
          "internalType": "address",
          "name": "_tradeVerifier",
          "type": "address"
        }
      ],
      "stateMutability": "nonpayable",
      "type": "constructor"
    },
    {
      "anonymous": false,
      "inputs": [
        {
          "indexed": true,
          "internalType": "uint256",
          "name": "gameId",
          "type": "uint256"
        },
        {
          "indexed": true,
          "internalType": "uint256",
          "name": "itemId",
          "type": "uint256"
        },
        {
          "indexed": false,
          "internalType": "bytes32",
          "name": "noteHash",
          "type": "bytes32"
        }
      ],
      "name": "ItemRegistered",
      "type": "event"
    },
    {
      "anonymous": false,
      "inputs": [
        {
          "indexed": true,
          "internalType": "bytes32",
          "name": "oldItemHash",
          "type": "bytes32"
        },
        {
          "indexed": true,
          "internalType": "bytes32",
          "name": "newItemHash",
          "type": "bytes32"
        },
        {
          "indexed": false,
          "internalType": "bytes32",
          "name": "nullifier",
          "type": "bytes32"
        }
      ],
      "name": "ItemTraded",
      "type": "event"
    },
    {
      "anonymous": false,
      "inputs": [
        {
          "indexed": true,
          "internalType": "bytes32",
          "name": "noteHash",
          "type": "bytes32"
        },
        {
          "indexed": false,
          "internalType": "bytes",
          "name": "encryptedNote",
          "type": "bytes"
        }
      ],
      "name": "NoteCreated",
      "type": "event"
    },
    {
      "anonymous": false,
      "inputs": [
        {
          "indexed": true,
          "internalType": "bytes32",
          "name": "noteHash",
          "type": "bytes32"
        },
        {
          "indexed": true,
          "internalType": "bytes32",
          "name": "nullifier",
          "type": "bytes32"
        }
      ],
      "name": "NoteSpent",
      "type": "event"
    },
    {
      "inputs": [
        {
          "internalType": "bytes32",
          "name": "",
          "type": "bytes32"
        }
      ],
      "name": "encryptedNotes",
      "outputs": [
        {
          "internalType": "bytes",
          "name": "",
          "type": "bytes"
        }
      ],
      "stateMutability": "view",
      "type": "function"
    },
    {
      "inputs": [
        {
          "internalType": "bytes32",
          "name": "noteHash",
          "type": "bytes32"
        }
      ],
      "name": "getNoteState",
      "outputs": [
        {
          "internalType": "enum NFTNoteBase.NoteState",
          "name": "",
          "type": "uint8"
        }
      ],
      "stateMutability": "view",
      "type": "function"
    },
    {
      "inputs": [
        {
          "internalType": "bytes32",
          "name": "nullifier",
          "type": "bytes32"
        }
      ],
      "name": "isNullifierUsed",
      "outputs": [
        {
          "internalType": "bool",
          "name": "",
          "type": "bool"
        }
      ],
      "stateMutability": "view",
      "type": "function"
    },
    {
      "inputs": [
        {
          "internalType": "bytes32",
          "name": "",
          "type": "bytes32"
        }
      ],
      "name": "notes",
      "outputs": [
        {
          "internalType": "enum NFTNoteBase.NoteState",
          "name": "",
          "type": "uint8"
        }
      ],
      "stateMutability": "view",
      "type": "function"
    },
    {
      "inputs": [
        {
          "internalType": "bytes32",
          "name": "",
          "type": "bytes32"
        }
      ],
      "name": "nullifiers",
      "outputs": [
        {
          "internalType": "bool",
          "name": "",
          "type": "bool"
        }
      ],
      "stateMutability": "view",
      "type": "function"
    },
    {
      "inputs": [
        {
          "internalType": "bytes32",
          "name": "noteHash",
          "type": "bytes32"
        },
        {
          "internalType": "uint256",
          "name": "gameId",
          "type": "uint256"
        },
        {
          "internalType": "uint256",
          "name": "itemId",
          "type": "uint256"
        },
        {
          "internalType": "bytes",
          "name": "encryptedNote",
          "type": "bytes"
        }
      ],
      "name": "registerItem",
      "outputs": [],
      "stateMutability": "nonpayable",
      "type": "function"
    },
    {
      "inputs": [
        {
          "internalType": "uint256",
          "name": "",
          "type": "uint256"
        },
        {
          "internalType": "uint256",
          "name": "",
          "type": "uint256"
        }
      ],
      "name": "registeredItems",
      "outputs": [
        {
          "internalType": "bool",
          "name": "",
          "type": "bool"
        }
      ],
      "stateMutability": "view",
      "type": "function"
    },
    {
      "inputs": [
        {
          "internalType": "uint256[2]",
          "name": "a",
          "type": "uint256[2]"
        },
        {
          "internalType": "uint256[2][2]",
          "name": "b",
          "type": "uint256[2][2]"
        },
        {
          "internalType": "uint256[2]",
          "name": "c",
          "type": "uint256[2]"
        },
        {
          "internalType": "bytes32",
          "name": "oldItemHash",
          "type": "bytes32"
        },
        {
          "internalType": "bytes32",
          "name": "newItemHash",
          "type": "bytes32"
        },
        {
          "internalType": "bytes32",
          "name": "paymentNoteHash",
          "type": "bytes32"
        },
        {
          "internalType": "uint256",
          "name": "gameId",
          "type": "uint256"
        },
        {
          "internalType": "bytes32",
          "name": "nullifier",
          "type": "bytes32"
        },
        {
          "internalType": "bytes",
          "name": "encryptedNote",
          "type": "bytes"
        }
      ],
      "name": "tradeItem",
      "outputs": [],
      "stateMutability": "nonpayable",
      "type": "function"
    },
    {
      "inputs": [],
      "name": "tradeVerifier",
      "outputs": [
        {
          "internalType": "contract IGamingItemTradeVerifier",
          "name": "",
          "type": "address"
        }
      ],
      "stateMutability": "view",
      "type": "function"
    }
  ],
  "bytecode": "0x608060405234801561001057600080fd5b50604051610d75380380610d7583398101604081905261002f91610054565b600380546001600160a01b0319166001600160a01b0392909216919091179055610084565b60006020828403121561006657600080fd5b81516001600160a01b038116811461007d57600080fd5b9392505050565b610ce2806100936000396000f3fe608060405234801561001057600080fd5b50600436106100935760003560e01c80632b864ff6116100665780632b864ff61461014557806383091c371461017057806385de26b7146101a05780639a4f86e0146101c3578063c045160e146101d857600080fd5b806314107a9414610098578063172b79d9146100c157806322dc7b4c146100ff5780632997e86b14610122575b600080fd5b6100ab6100a6366004610763565b6101eb565b6040516100b8919061077c565b60405180910390f35b6100ef6100cf3660046107ca565b600460209081526000928352604080842090915290825290205460ff1681565b60405190151581526020016100b8565b6100ef61010d366004610763565b60009081526001602052604090205460ff1690565b6100ef610130366004610763565b60016020526000908152604090205460ff1681565b600354610158906001600160a01b031681565b6040516001600160a01b0390911681526020016100b8565b61019361017e366004610763565b60009081526020819052604090205460ff1690565b6040516100b89190610802565b6101936101ae366004610763565b60006020819052908152604090205460ff1681565b6101d66101d1366004610946565b610285565b005b6101d66101e6366004610a33565b6104a0565b6002602052600090815260409020805461020490610a8d565b80601f016020809104026020016040519081016040528092919081815260200182805461023090610a8d565b801561027d5780601f106102525761010080835404028352916020019161027d565b820191906000526020600020905b81548152906001019060200180831161026057829003601f168201915b505050505081565b85600160008281526020819052604090205460ff1660028111156102ab576102ab6107ec565b146103095760405162461bcd60e51b8152602060048201526024808201527f4e6f746520646f6573206e6f74206578697374206f7220616c726561647920736044820152631c195b9d60e21b60648201526084015b60405180910390fd5b600083815260016020526040902054839060ff16156103635760405162461bcd60e51b8152602060048201526016602482015275139d5b1b1a599a595c88185b1c9958591e481d5cd95960521b6044820152606401610300565b6040805160a08101825289815260208101899052808201889052606081018790526080810186905260035491516334baeab960e01b815290916001600160a01b0316906334baeab9906103c0908f908f908f908790600401610af0565b602060405180830381865afa1580156103dd573d6000803e3d6000fd5b505050506040513d601f19601f820116820180604052508101906104019190610b74565b6104435760405162461bcd60e51b815260206004820152601360248201527224b73b30b634b2103a3930b23290383937b7b360691b6044820152606401610300565b61044d8986610579565b6104578885610695565b87897fb8cee0d2c7a124d60f5e6e5a8802172a432d368bed680a5c91fc2848f9ae5e6e8760405161048a91815260200190565b60405180910390a3505050505050505050505050565b600083815260046020908152604080832085845290915290205460ff161561050a5760405162461bcd60e51b815260206004820152601760248201527f4974656d20616c726561647920726567697374657265640000000000000000006044820152606401610300565b60008381526004602090815260408083208584529091529020805460ff191660011790556105388482610695565b81837f810658469964a930b7c6462e2b996cb6ffa3d9354f5e0b5a9618fe215a7fcf998660405161056b91815260200190565b60405180910390a350505050565b600160008381526020819052604090205460ff16600281111561059e5761059e6107ec565b146105dc5760405162461bcd60e51b815260206004820152600e60248201526d139bdd19481b9bdd081d985b1a5960921b6044820152606401610300565b60008181526001602052604090205460ff16156106345760405162461bcd60e51b8152602060048201526016602482015275139d5b1b1a599a595c88185b1c9958591e481d5cd95960521b6044820152606401610300565b600082815260208181526040808320805460ff19908116600217909155848452600192839052818420805490911690921790915551829184917f039fa62302b0f0fccb244fbd909ec86e1a28d4b765b936467c70873d3fcb14979190a35050565b60008281526020819052604081205460ff1660028111156106b8576106b86107ec565b146106fb5760405162461bcd60e51b81526020600482015260136024820152724e6f746520616c72656164792065786973747360681b6044820152606401610300565b600082815260208181526040808320805460ff19166001179055600290915290206107268282610bec565b50817f11d80dbc601487e7d7ccb4dd72ca753222f44df72d69e388df7c549cfebe312682604051610757919061077c565b60405180910390a25050565b60006020828403121561077557600080fd5b5035919050565b600060208083528351808285015260005b818110156107a95785810183015185820160400152820161078d565b506000604082860101526040601f19601f8301168501019250505092915050565b600080604083850312156107dd57600080fd5b50508035926020909101359150565b634e487b7160e01b600052602160045260246000fd5b602081016003831061082457634e487b7160e01b600052602160045260246000fd5b91905290565b634e487b7160e01b600052604160045260246000fd5b6040805190810167ffffffffffffffff811182821017156108635761086361082a565b60405290565b600082601f83011261087a57600080fd5b610882610840565b80604084018581111561089457600080fd5b845b818110156108ae578035845260209384019301610896565b509095945050505050565b600082601f8301126108ca57600080fd5b813567ffffffffffffffff808211156108e5576108e561082a565b604051601f8301601f19908116603f0116810190828211818310171561090d5761090d61082a565b8160405283815286602085880101111561092657600080fd5b836020870160208301376000602085830101528094505050505092915050565b60008060008060008060008060006101c08a8c03121561096557600080fd5b61096f8b8b610869565b98508a605f8b011261098057600080fd5b610988610840565b8060c08c018d81111561099a57600080fd5b60408d015b818110156109c1576109b18f82610869565b845260209093019260400161099f565b50819a506109cf8e82610869565b99505050506101008a013595506101208a013594506101408a013593506101608a013592506101808a013591506101a08a013567ffffffffffffffff811115610a1757600080fd5b610a238c828d016108b9565b9150509295985092959850929598565b60008060008060808587031215610a4957600080fd5b843593506020850135925060408501359150606085013567ffffffffffffffff811115610a7557600080fd5b610a81878288016108b9565b91505092959194509250565b600181811c90821680610aa157607f821691505b602082108103610ac157634e487b7160e01b600052602260045260246000fd5b50919050565b8060005b6002811015610aea578151845260209384019390910190600101610acb565b50505050565b6101a08101610aff8287610ac7565b60408083018660005b6002811015610b2f57610b1c838351610ac7565b9183019160209190910190600101610b08565b50505050610b4060c0830185610ac7565b61010082018360005b6005811015610b68578151835260209283019290910190600101610b49565b50505095945050505050565b600060208284031215610b8657600080fd5b81518015158114610b9657600080fd5b9392505050565b601f821115610be757600081815260208120601f850160051c81016020861015610bc45750805b601f850160051c820191505b81811015610be357828155600101610bd0565b5050505b505050565b815167ffffffffffffffff811115610c0657610c0661082a565b610c1a81610c148454610a8d565b84610b9d565b602080601f831160018114610c4f5760008415610c375750858301515b600019600386901b1c1916600185901b178555610be3565b600085815260208120601f198616915b82811015610c7e57888601518255948401946001909101908401610c5f565b5085821015610c9c5787850151600019600388901b60f8161c191681555b5050505050600190811b0190555056fea2646970667358221220529f5e31a2dfdf2c1fd68416a7f6728b687473fc93c3f090c2c4fe3d2363cdf864736f6c63430008140033",
  "linkReferences": {},
  "deployedLinkReferences": {}
}