{
  "_format": "hh-sol-artifact-1",
  "contractName": "NFTNoteBase",
  "sourceName": "contracts/NFTNoteBase.sol",
  "abi": [
    {
      "anonymous": false,
      "inputs": [
        {
          "indexed": true,
          "internalType": "bytes32",
          "name": "noteHash",
          "type": "bytes32"
        },
        {
          "indexed": false,
          "internalType": "bytes",
          "name": "encryptedNote",
          "type": "bytes"
        }
      ],
      "name": "NoteCreated",
      "type": "event"
    },
    {
      "anonymous": false,
      "inputs": [
        {
          "indexed": true,
          "internalType": "bytes32",
          "name": "noteHash",
          "type": "bytes32"
        },
        {
          "indexed": true,
          "internalType": "bytes32",
          "name": "nullifier",
          "type": "bytes32"
        }
      ],
      "name": "NoteSpent",
      "type": "event"
    },
    {
      "inputs": [
        {
          "internalType": "bytes32",
          "name": "",
          "type": "bytes32"
        }
      ],
      "name": "encryptedNotes",
      "outputs": [
        {
          "internalType": "bytes",
          "name": "",
          "type": "bytes"
        }
      ],
      "stateMutability": "view",
      "type": "function"
    },
    {
      "inputs": [
        {
          "internalType": "bytes32",
          "name": "noteHash",
          "type": "bytes32"
        }
      ],
      "name": "getNoteState",
      "outputs": [
        {
          "internalType": "enum NFTNoteBase.NoteState",
          "name": "",
          "type": "uint8"
        }
      ],
      "stateMutability": "view",
      "type": "function"
    },
    {
      "inputs": [
        {
          "internalType": "bytes32",
          "name": "nullifier",
          "type": "bytes32"
        }
      ],
      "name": "isNullifierUsed",
      "outputs": [
        {
          "internalType": "bool",
          "name": "",
          "type": "bool"
        }
      ],
      "stateMutability": "view",
      "type": "function"
    },
    {
      "inputs": [
        {
          "internalType": "bytes32",
          "name": "",
          "type": "bytes32"
        }
      ],
      "name": "notes",
      "outputs": [
        {
          "internalType": "enum NFTNoteBase.NoteState",
          "name": "",
          "type": "uint8"
        }
      ],
      "stateMutability": "view",
      "type": "function"
    },
    {
      "inputs": [
        {
          "internalType": "bytes32",
          "name": "",
          "type": "bytes32"
        }
      ],
      "name": "nullifiers",
      "outputs": [
        {
          "internalType": "bool",
          "name": "",
          "type": "bool"
        }
      ],
      "stateMutability": "view",
      "type": "function"
    }
  ],
  "bytecode": "0x608060405234801561001057600080fd5b506102c7806100206000396000f3fe608060405234801561001057600080fd5b50600436106100575760003560e01c806314107a941461005c57806322dc7b4c146100855780632997e86b146100b857806383091c37146100db57806385de26b71461010b575b600080fd5b61006f61006a3660046101c8565b61012e565b60405161007c91906101e1565b60405180910390f35b6100a86100933660046101c8565b60009081526001602052604090205460ff1690565b604051901515815260200161007c565b6100a86100c63660046101c8565b60016020526000908152604090205460ff1681565b6100fe6100e93660046101c8565b60009081526020819052604090205460ff1690565b60405161007c919061022f565b6100fe6101193660046101c8565b60006020819052908152604090205460ff1681565b6002602052600090815260409020805461014790610257565b80601f016020809104026020016040519081016040528092919081815260200182805461017390610257565b80156101c05780601f10610195576101008083540402835291602001916101c0565b820191906000526020600020905b8154815290600101906020018083116101a357829003601f168201915b505050505081565b6000602082840312156101da57600080fd5b5035919050565b600060208083528351808285015260005b8181101561020e578581018301518582016040015282016101f2565b506000604082860101526040601f19601f8301168501019250505092915050565b602081016003831061025157634e487b7160e01b600052602160045260246000fd5b91905290565b600181811c9082168061026b57607f821691505b60208210810361028b57634e487b7160e01b600052602260045260246000fd5b5091905056fea26469706673582212207eb68db74828e71c4890d3388baea666cb2e8876dd7f6133aa47a84a973f25ab64736f6c63430008140033",
  "linkReferences": {},
  "deployedLinkReferences": {}
}