{"abi":[{"type":"function","name":"verifyProof","inputs":[{"name":"_pA","type":"uint256[2]","internalType":"uint256[2]"},{"name":"_pB","type":"uint256[2][2]","internalType":"uint256[2][2]"},{"name":"_pC","type":"uint256[2]","internalType":"uint256[2]"},{"name":"_pubSignals","type":"uint256[5]","internalType":"uint256[5]"}],"outputs":[{"name":"","type":"bool","internalType":"bool"}],"stateMutability":"view"}],"bytecode":{"object":"0x608060405234801561001057600080fd5b506106d2806100206000396000f3fe608060405234801561001057600080fd5b506004361061002b5760003560e01c806334baeab914610030575b600080fd5b61004361003e366004610636565b610057565b604051901515815260200160405180910390f35b60006105ba565b7f30644e72e131a029b85045b68181585d2833e84879b9709143e1f593f0000001811061008f576000805260206000f35b50565b600060405183815284602082015285604082015260408160608360076107d05a03fa9150816100c5576000805260206000f35b825160408201526020830151606082015260408360808360066107d05a03fa915050806100f6576000805260206000f35b5050505050565b7f27eb70891f3c2a06eeaf9f58ba7548ea92eb35fd1b2430a8dcd58d388347c71885527f077da0885f624c60d78ca04d3061df3167b383a3a94405780984c89e6572fe9060208601526000608086018661019a87357f2a1368c86b6a9187f77f1e9fd94bd1063df4364087ee1b5f5535992084a3ce737f21b5df77a5c7755e1229e9902b4692445ce3db58100bc9b9901bca3a53701db184610092565b6101ea60208801357f025420d601b0271d2012f7a403c957f53830ce0cdc4576c61698b0661a7b46937f0a5921165eced7951ad882c77b14166dad70e74d3037ee146c6614c34fb5f3af84610092565b61023a60408801357f02b0b2fed2efe589f78d8401cf3d17ad1da7594815ad0023962d770a6191e46f7f0c83c829d83eb577b5abd164cd3747e5d6beba61e984f6774b713e8f49055b5f84610092565b61028a60608801357f2f8a57cd31ae4e9df128ba83bcda2d1b15edf46d0040d9a2c71b4170c03e07ee7f0463b5efcb46459e9b26bf9bbb6085ed6eb230348c1caafafc9d5d6095a81c1f84610092565b6102da60808801357f21296eb2515d92403f9ee40d87471634fee45f563c7d8daa8ab7340be22f39d87f051e74bc4feb9753504293666cef2f2b3a93ca50a93bfdd57660cd0ce9a2c8a084610092565b50823581527f30644e72e131a029b85045b68181585d97816a916871ca8d3c208c16d87cfd4760208401357f30644e72e131a029b85045b68181585d97816a916871ca8d3c208c16d87cfd4703066020820152833560408201526020840135606082015260408401356080820152606084013560a08201527f2d4d9aa7e302d9df41749d5507949d05dbea33fbb16c643b22f599a2be6df2e260c08201527f14bedd503c37ceb061d8ec60209fe345ce89830a19230301f076caff004d192660e08201527f0967032fcbf776d1afc985f88877f182d38480a653f2decaa9794cbc3bf3060c6101008201527f0e187847ad4c798374d0d6732bf501847dd68bc0e071241e0213bc7fc13db7ab6101208201527f304cfbd1e08a704a99f5e847d93f8c3caafddec46b7a0d379da69a4d112346a76101408201527f1739c1b1a457a8c7313123d24d2f9192f896b7c63eea05a9d57f06547ad0cec8610160820152600087015161018082015260206000018701516101a08201527f198e9393920d483a7260bfb731fb5d25f1aa493335a9e71297e485b7aef312c26101c08201527f1800deef121f1e76426a00665e5c4479674322d4f75edadd46debd5cd992f6ed6101e08201527f090689d0585ff075ec9e99ad690c3395bc4b313370b38ef355acdadcd122975b6102008201527f12c85ea5db8c6deb4aab71808dcb408fe3d1e7690c43d37b4ce6cc0166fa7daa610220820152843561024082015260208501356102608201527f07413bfab449adb9598a63b3dc7ce01c914fdafda1e7bd0ea9f38ca15f33d7a16102808201527f18864f39e709e6c1f82c8b6e3df91ec08293df7f483ed47df613da0a8400d68d6102a08201527f159b13da3cd6f48aa049a655a7165d7fa85d817fd7d82ecc248c22bd8e9be3486102c08201527f22267702423c40cb3c639e3dcd01d1cec73f8042ee4b508d04dbcbe03f8392476102e08201526020816103008360086107d05a03fa9051169695505050505050565b60405161038081016040526105d2600084013561005e565b6105df602084013561005e565b6105ec604084013561005e565b6105f9606084013561005e565b610606608084013561005e565b610613818486888a6100fd565b90508060005260206000f35b806040810183101561063057600080fd5b92915050565b6000806000806101a080868803121561064e57600080fd5b610658878761061f565b945060c086018781111561066b57600080fd5b60408701945061067b888261061f565b93505086818701111561068d57600080fd5b5092959194509261010001915056fea26469706673582212205436c4083d9e14e3f6e70f362f00b38179ac355ddb0199b44ca8bd20387086c564736f6c63430008140033","linkReferences":{}},"methodIdentifiers":{"verifyProof(uint256[2],uint256[2][2],uint256[2],uint256[5])":"34baeab9"},"id":9}