{
  "_format": "hh-sol-artifact-1",
  "contractName": "LootBoxOpen",
  "sourceName": "contracts/LootBoxOpen.sol",
  "abi": [
    {
      "inputs": [
        {
          "internalType": "address",
          "name": "_boxVerifier",
          "type": "address"
        },
        {
          "internalType": "address",
          "name": "_paymentToken",
          "type": "address"
        },
        {
          "internalType": "uint256",
          "name": "_boxPrice",
          "type": "uint256"
        }
      ],
      "stateMutability": "nonpayable",
      "type": "constructor"
    },
    {
      "anonymous": false,
      "inputs": [
        {
          "indexed": true,
          "internalType": "address",
          "name": "buyer",
          "type": "address"
        },
        {
          "indexed": true,
          "internalType": "uint256",
          "name": "boxId",
          "type": "uint256"
        },
        {
          "indexed": false,
          "internalType": "uint256",
          "name": "boxType",
          "type": "uint256"
        }
      ],
      "name": "BoxMinted",
      "type": "event"
    },
    {
      "anonymous": false,
      "inputs": [
        {
          "indexed": true,
          "internalType": "bytes32",
          "name": "boxCommitment",
          "type": "bytes32"
        },
        {
          "indexed": true,
          "internalType": "bytes32",
          "name": "outcomeCommitment",
          "type": "bytes32"
        },
        {
          "indexed": false,
          "internalType": "bytes32",
          "name": "nullifier",
          "type": "bytes32"
        },
        {
          "indexed": false,
          "internalType": "uint256",
          "name": "vrfOutput",
          "type": "uint256"
        }
      ],
      "name": "BoxOpened",
      "type": "event"
    },
    {
      "anonymous": false,
      "inputs": [
        {
          "indexed": true,
          "internalType": "uint256",
          "name": "boxId",
          "type": "uint256"
        },
        {
          "indexed": false,
          "internalType": "bytes32",
          "name": "noteHash",
          "type": "bytes32"
        }
      ],
      "name": "BoxRegistered",
      "type": "event"
    },
    {
      "anonymous": false,
      "inputs": [
        {
          "indexed": true,
          "internalType": "bytes32",
          "name": "noteHash",
          "type": "bytes32"
        },
        {
          "indexed": false,
          "internalType": "bytes",
          "name": "encryptedNote",
          "type": "bytes"
        }
      ],
      "name": "NoteCreated",
      "type": "event"
    },
    {
      "anonymous": false,
      "inputs": [
        {
          "indexed": true,
          "internalType": "bytes32",
          "name": "noteHash",
          "type": "bytes32"
        },
        {
          "indexed": true,
          "internalType": "bytes32",
          "name": "nullifier",
          "type": "bytes32"
        }
      ],
      "name": "NoteSpent",
      "type": "event"
    },
    {
      "anonymous": false,
      "inputs": [
        {
          "indexed": false,
          "internalType": "uint256",
          "name": "newPrice",
          "type": "uint256"
        }
      ],
      "name": "PriceUpdated",
      "type": "event"
    },
    {
      "inputs": [],
      "name": "admin",
      "outputs": [
        {
          "internalType": "address",
          "name": "",
          "type": "address"
        }
      ],
      "stateMutability": "view",
      "type": "function"
    },
    {
      "inputs": [
        {
          "internalType": "uint256",
          "name": "",
          "type": "uint256"
        }
      ],
      "name": "boxOwner",
      "outputs": [
        {
          "internalType": "address",
          "name": "",
          "type": "address"
        }
      ],
      "stateMutability": "view",
      "type": "function"
    },
    {
      "inputs": [],
      "name": "boxPrice",
      "outputs": [
        {
          "internalType": "uint256",
          "name": "",
          "type": "uint256"
        }
      ],
      "stateMutability": "view",
      "type": "function"
    },
    {
      "inputs": [
        {
          "internalType": "uint256",
          "name": "",
          "type": "uint256"
        }
      ],
      "name": "boxTypes",
      "outputs": [
        {
          "internalType": "uint256",
          "name": "",
          "type": "uint256"
        }
      ],
      "stateMutability": "view",
      "type": "function"
    },
    {
      "inputs": [],
      "name": "boxVerifier",
      "outputs": [
        {
          "internalType": "contract ILootBoxVerifier",
          "name": "",
          "type": "address"
        }
      ],
      "stateMutability": "view",
      "type": "function"
    },
    {
      "inputs": [
        {
          "internalType": "bytes32",
          "name": "",
          "type": "bytes32"
        }
      ],
      "name": "encryptedNotes",
      "outputs": [
        {
          "internalType": "bytes",
          "name": "",
          "type": "bytes"
        }
      ],
      "stateMutability": "view",
      "type": "function"
    },
    {
      "inputs": [
        {
          "internalType": "uint256",
          "name": "boxId",
          "type": "uint256"
        }
      ],
      "name": "getBoxInfo",
      "outputs": [
        {
          "internalType": "address",
          "name": "owner",
          "type": "address"
        },
        {
          "internalType": "uint256",
          "name": "boxType",
          "type": "uint256"
        },
        {
          "internalType": "bool",
          "name": "registered",
          "type": "bool"
        }
      ],
      "stateMutability": "view",
      "type": "function"
    },
    {
      "inputs": [
        {
          "internalType": "address",
          "name": "user",
          "type": "address"
        }
      ],
      "name": "getMyBoxes",
      "outputs": [
        {
          "internalType": "uint256[]",
          "name": "",
          "type": "uint256[]"
        }
      ],
      "stateMutability": "view",
      "type": "function"
    },
    {
      "inputs": [
        {
          "internalType": "bytes32",
          "name": "noteHash",
          "type": "bytes32"
        }
      ],
      "name": "getNoteState",
      "outputs": [
        {
          "internalType": "enum NFTNoteBase.NoteState",
          "name": "",
          "type": "uint8"
        }
      ],
      "stateMutability": "view",
      "type": "function"
    },
    {
      "inputs": [
        {
          "internalType": "bytes32",
          "name": "nullifier",
          "type": "bytes32"
        }
      ],
      "name": "isNullifierUsed",
      "outputs": [
        {
          "internalType": "bool",
          "name": "",
          "type": "bool"
        }
      ],
      "stateMutability": "view",
      "type": "function"
    },
    {
      "inputs": [
        {
          "internalType": "uint256",
          "name": "boxType",
          "type": "uint256"
        }
      ],
      "name": "mintBox",
      "outputs": [
        {
          "internalType": "uint256",
          "name": "",
          "type": "uint256"
        }
      ],
      "stateMutability": "nonpayable",
      "type": "function"
    },
    {
      "inputs": [],
      "name": "nextBoxId",
      "outputs": [
        {
          "internalType": "uint256",
          "name": "",
          "type": "uint256"
        }
      ],
      "stateMutability": "view",
      "type": "function"
    },
    {
      "inputs": [
        {
          "internalType": "bytes32",
          "name": "",
          "type": "bytes32"
        }
      ],
      "name": "notes",
      "outputs": [
        {
          "internalType": "enum NFTNoteBase.NoteState",
          "name": "",
          "type": "uint8"
        }
      ],
      "stateMutability": "view",
      "type": "function"
    },
    {
      "inputs": [
        {
          "internalType": "bytes32",
          "name": "",
          "type": "bytes32"
        }
      ],
      "name": "nullifiers",
      "outputs": [
        {
          "internalType": "bool",
          "name": "",
          "type": "bool"
        }
      ],
      "stateMutability": "view",
      "type": "function"
    },
    {
      "inputs": [
        {
          "internalType": "uint256[2]",
          "name": "a",
          "type": "uint256[2]"
        },
        {
          "internalType": "uint256[2][2]",
          "name": "b",
          "type": "uint256[2][2]"
        },
        {
          "internalType": "uint256[2]",
          "name": "c",
          "type": "uint256[2]"
        },
        {
          "internalType": "bytes32",
          "name": "boxCommitment",
          "type": "bytes32"
        },
        {
          "internalType": "bytes32",
          "name": "outcomeCommitment",
          "type": "bytes32"
        },
        {
          "internalType": "uint256",
          "name": "vrfOutput",
          "type": "uint256"
        },
        {
          "internalType": "uint256",
          "name": "boxId",
          "type": "uint256"
        },
        {
          "internalType": "bytes32",
          "name": "nullifier",
          "type": "bytes32"
        },
        {
          "internalType": "bytes",
          "name": "encryptedNote",
          "type": "bytes"
        }
      ],
      "name": "openBox",
      "outputs": [],
      "stateMutability": "nonpayable",
      "type": "function"
    },
    {
      "inputs": [],
      "name": "paymentToken",
      "outputs": [
        {
          "internalType": "contract IERC20",
          "name": "",
          "type": "address"
        }
      ],
      "stateMutability": "view",
      "type": "function"
    },
    {
      "inputs": [
        {
          "internalType": "bytes32",
          "name": "noteHash",
          "type": "bytes32"
        },
        {
          "internalType": "uint256",
          "name": "boxId",
          "type": "uint256"
        },
        {
          "internalType": "bytes",
          "name": "encryptedNote",
          "type": "bytes"
        }
      ],
      "name": "registerBox",
      "outputs": [],
      "stateMutability": "nonpayable",
      "type": "function"
    },
    {
      "inputs": [
        {
          "internalType": "uint256",
          "name": "",
          "type": "uint256"
        }
      ],
      "name": "registeredBoxes",
      "outputs": [
        {
          "internalType": "bool",
          "name": "",
          "type": "bool"
        }
      ],
      "stateMutability": "view",
      "type": "function"
    },
    {
      "inputs": [
        {
          "internalType": "uint256",
          "name": "_price",
          "type": "uint256"
        }
      ],
      "name": "setBoxPrice",
      "outputs": [],
      "stateMutability": "nonpayable",
      "type": "function"
    },
    {
      "inputs": [
        {
          "internalType": "address",
          "name": "to",
          "type": "address"
        }
      ],
      "name": "withdrawTokens",
      "outputs": [],
      "stateMutability": "nonpayable",
      "type": "function"
    }
  ],
  "bytecode": "0x6080604052600160075534801561001557600080fd5b5060405161143238038061143283398101604081905261003491610097565b600380546001600160a01b039485166001600160a01b03199182161790915560048054939094169281169290921790925560069190915560058054909116331790556100d3565b80516001600160a01b038116811461009257600080fd5b919050565b6000806000606084860312156100ac57600080fd5b6100b58461007b565b92506100c36020850161007b565b9150604084015190509250925092565b611350806100e26000396000f3fe608060405234801561001057600080fd5b506004361061012c5760003560e01c8063537e5ec3116100ad57806385de26b71161007157806385de26b714610357578063987631cf1461037a578063a64828581461039d578063f7dbea3e146103a6578063f851a440146103b957600080fd5b8063537e5ec3146102805780635ebad5001461029357806376482f931461029c57806379494afe146102bc57806383091c371461032757600080fd5b80633155003e116100f45780633155003e146101ee578063368ac949146102035780633a931a1d1461021657806346c151b71461024457806349df728c1461026d57600080fd5b806314107a941461013157806316d599da1461015a57806322dc7b4c146101855780632997e86b146101b85780633013ce29146101db575b600080fd5b61014461013f366004610d51565b6103cc565b6040516101519190610d6a565b60405180910390f35b60035461016d906001600160a01b031681565b6040516001600160a01b039091168152602001610151565b6101a8610193366004610d51565b60009081526001602052604090205460ff1690565b6040519015158152602001610151565b6101a86101c6366004610d51565b60016020526000908152604090205460ff1681565b60045461016d906001600160a01b031681565b6102016101fc366004610e84565b610466565b005b610201610211366004610f24565b61057b565b610236610224366004610d51565b600a6020526000908152604090205481565b604051908152602001610151565b61016d610252366004610d51565b6009602052600090815260409020546001600160a01b031681565b61020161027b366004611011565b61079d565b61023661028e366004610d51565b61091e565b61023660075481565b6102af6102aa366004611011565b610a79565b6040516101519190611041565b6103006102ca366004610d51565b600090815260096020908152604080832054600a83528184205460089093529220546001600160a01b0390921692909160ff1690565b604080516001600160a01b0390941684526020840192909252151590820152606001610151565b61034a610335366004610d51565b60009081526020819052604090205460ff1690565b604051610151919061109b565b61034a610365366004610d51565b60006020819052908152604090205460ff1681565b6101a8610388366004610d51565b60086020526000908152604090205460ff1681565b61023660065481565b6102016103b4366004610d51565b610ae5565b60055461016d906001600160a01b031681565b600260205260009081526040902080546103e5906110c3565b80601f0160208091040260200160405190810160405280929190818152602001828054610411906110c3565b801561045e5780601f106104335761010080835404028352916020019161045e565b820191906000526020600020905b81548152906001019060200180831161044157829003601f168201915b505050505081565b6000828152600960205260409020546001600160a01b031633146104c15760405162461bcd60e51b815260206004820152600d60248201526c2737ba103137bc1037bbb732b960991b60448201526064015b60405180910390fd5b60008281526008602052604090205460ff16156105195760405162461bcd60e51b8152602060048201526016602482015275109bde08185b1c9958591e481c9959da5cdd195c995960521b60448201526064016104b8565b6000828152600860205260409020805460ff1916600117905561053c8382610b67565b817f3d29ad57fc73dc07b9ccb2a0643dce94386a0c036debb3fd9629380f24d1549d8460405161056e91815260200190565b60405180910390a2505050565b85600160008281526020819052604090205460ff1660028111156105a1576105a1611085565b146105fa5760405162461bcd60e51b8152602060048201526024808201527f4e6f746520646f6573206e6f74206578697374206f7220616c726561647920736044820152631c195b9d60e21b60648201526084016104b8565b600083815260016020526040902054839060ff16156106545760405162461bcd60e51b8152602060048201526016602482015275139d5b1b1a599a595c88185b1c9958591e481d5cd95960521b60448201526064016104b8565b6040805160a08101825289815260208101899052808201889052606081018790526080810186905260035491516334baeab960e01b815290916001600160a01b0316906334baeab9906106b1908f908f908f908790600401611126565b602060405180830381865afa1580156106ce573d6000803e3d6000fd5b505050506040513d601f19601f820116820180604052508101906106f291906111aa565b61073e5760405162461bcd60e51b815260206004820152601960248201527f496e76616c696420626f78206f70656e696e672070726f6f660000000000000060448201526064016104b8565b6107488986610c35565b6107528885610b67565b604080518681526020810189905289918b917f38180a7ab5649602b72ad14b2b983f746cab7252c34493e50c4de8504f8ff18b910160405180910390a3505050505050505050505050565b6005546001600160a01b031633146107e45760405162461bcd60e51b815260206004820152600a60248201526927b7363c9030b236b4b760b11b60448201526064016104b8565b600480546040516370a0823160e01b815230928101929092526000916001600160a01b03909116906370a0823190602401602060405180830381865afa158015610832573d6000803e3d6000fd5b505050506040513d601f19601f8201168201806040525081019061085691906111cc565b9050600081116108a05760405162461bcd60e51b81526020600482015260156024820152744e6f20746f6b656e7320746f20776974686472617760581b60448201526064016104b8565b6004805460405163a9059cbb60e01b81526001600160a01b03858116938201939093526024810184905291169063a9059cbb906044016020604051808303816000875af11580156108f5573d6000803e3d6000fd5b505050506040513d601f19601f8201168201806040525081019061091991906111aa565b505050565b600480546006546040516323b872dd60e01b8152339381019390935230602484015260448301526000916001600160a01b03909116906323b872dd906064016020604051808303816000875af115801561097c573d6000803e3d6000fd5b505050506040513d601f19601f820116820180604052508101906109a091906111aa565b6109dd5760405162461bcd60e51b815260206004820152600e60248201526d14185e5b595b9d0819985a5b195960921b60448201526064016104b8565b60078054600091826109ee836111e5565b90915550600081815260096020908152604080832080546001600160a01b03191633908117909155600a8352818420889055808452600b83528184208054600181018255908552938390209093018490555186815292935083927f72c53221606c87ca0297d0ca75a8e5a8570f1aafd457cf9adb2ad19588fbf3f7910160405180910390a392915050565b6001600160a01b0381166000908152600b6020908152604091829020805483518184028101840190945280845260609392830182828015610ad957602002820191906000526020600020905b815481526020019060010190808311610ac5575b50505050509050919050565b6005546001600160a01b03163314610b2c5760405162461bcd60e51b815260206004820152600a60248201526927b7363c9030b236b4b760b11b60448201526064016104b8565b60068190556040518181527f66cbca4f3c64fecf1dcb9ce094abcf7f68c3450a1d4e3a8e917dd621edb4ebe09060200160405180910390a150565b60008281526020819052604081205460ff166002811115610b8a57610b8a611085565b14610bcd5760405162461bcd60e51b81526020600482015260136024820152724e6f746520616c72656164792065786973747360681b60448201526064016104b8565b600082815260208181526040808320805460ff1916600117905560029091529020610bf8828261125a565b50817f11d80dbc601487e7d7ccb4dd72ca753222f44df72d69e388df7c549cfebe312682604051610c299190610d6a565b60405180910390a25050565b600160008381526020819052604090205460ff166002811115610c5a57610c5a611085565b14610c985760405162461bcd60e51b815260206004820152600e60248201526d139bdd19481b9bdd081d985b1a5960921b60448201526064016104b8565b60008181526001602052604090205460ff1615610cf05760405162461bcd60e51b8152602060048201526016602482015275139d5b1b1a599a595c88185b1c9958591e481d5cd95960521b60448201526064016104b8565b600082815260208181526040808320805460ff19908116600217909155848452600192839052818420805490911690921790915551829184917f039fa62302b0f0fccb244fbd909ec86e1a28d4b765b936467c70873d3fcb14979190a35050565b600060208284031215610d6357600080fd5b5035919050565b600060208083528351808285015260005b81811015610d9757858101830151858201604001528201610d7b565b506000604082860101526040601f19601f8301168501019250505092915050565b634e487b7160e01b600052604160045260246000fd5b6040805190810167ffffffffffffffff81118282101715610df157610df1610db8565b60405290565b600082601f830112610e0857600080fd5b813567ffffffffffffffff80821115610e2357610e23610db8565b604051601f8301601f19908116603f01168101908282118183101715610e4b57610e4b610db8565b81604052838152866020858801011115610e6457600080fd5b836020870160208301376000602085830101528094505050505092915050565b600080600060608486031215610e9957600080fd5b8335925060208401359150604084013567ffffffffffffffff811115610ebe57600080fd5b610eca86828701610df7565b9150509250925092565b600082601f830112610ee557600080fd5b610eed610dce565b806040840185811115610eff57600080fd5b845b81811015610f19578035845260209384019301610f01565b509095945050505050565b60008060008060008060008060006101c08a8c031215610f4357600080fd5b610f4d8b8b610ed4565b98508a605f8b0112610f5e57600080fd5b610f66610dce565b8060c08c018d811115610f7857600080fd5b60408d015b81811015610f9f57610f8f8f82610ed4565b8452602090930192604001610f7d565b50819a50610fad8e82610ed4565b99505050506101008a013595506101208a013594506101408a013593506101608a013592506101808a013591506101a08a013567ffffffffffffffff811115610ff557600080fd5b6110018c828d01610df7565b9150509295985092959850929598565b60006020828403121561102357600080fd5b81356001600160a01b038116811461103a57600080fd5b9392505050565b6020808252825182820181905260009190848201906040850190845b818110156110795783518352928401929184019160010161105d565b50909695505050505050565b634e487b7160e01b600052602160045260246000fd5b60208101600383106110bd57634e487b7160e01b600052602160045260246000fd5b91905290565b600181811c908216806110d757607f821691505b6020821081036110f757634e487b7160e01b600052602260045260246000fd5b50919050565b8060005b6002811015611120578151845260209384019390910190600101611101565b50505050565b6101a0810161113582876110fd565b60408083018660005b6002811015611165576111528383516110fd565b918301916020919091019060010161113e565b5050505061117660c08301856110fd565b61010082018360005b600581101561119e57815183526020928301929091019060010161117f565b50505095945050505050565b6000602082840312156111bc57600080fd5b8151801515811461103a57600080fd5b6000602082840312156111de57600080fd5b5051919050565b60006001820161120557634e487b7160e01b600052601160045260246000fd5b5060010190565b601f82111561091957600081815260208120601f850160051c810160208610156112335750805b601f850160051c820191505b818110156112525782815560010161123f565b505050505050565b815167ffffffffffffffff81111561127457611274610db8565b6112888161128284546110c3565b8461120c565b602080601f8311600181146112bd57600084156112a55750858301515b600019600386901b1c1916600185901b178555611252565b600085815260208120601f198616915b828110156112ec578886015182559484019460019091019084016112cd565b508582101561130a5787850151600019600388901b60f8161c191681555b5050505050600190811b0190555056fea264697066735822122019d0a43b2280afed247b333c825ab7190b9d8d7c2db0b832d961bf391784581764736f6c63430008140033",
  "linkReferences": {},
  "deployedLinkReferences": {}
}