{
  "_format": "hh-sol-artifact-1",
  "contractName": "PrivateNFT",
  "sourceName": "contracts/PrivateNFT.sol",
  "abi": [
    {
      "inputs": [
        {
          "internalType": "address",
          "name": "_transferVerifier",
          "type": "address"
        }
      ],
      "stateMutability": "nonpayable",
      "type": "constructor"
    },
    {
      "anonymous": false,
      "inputs": [
        {
          "indexed": true,
          "internalType": "address",
          "name": "collection",
          "type": "address"
        },
        {
          "indexed": true,
          "internalType": "uint256",
          "name": "nftId",
          "type": "uint256"
        },
        {
          "indexed": false,
          "internalType": "bytes32",
          "name": "noteHash",
          "type": "bytes32"
        }
      ],
      "name": "NFTRegistered",
      "type": "event"
    },
    {
      "anonymous": false,
      "inputs": [
        {
          "indexed": true,
          "internalType": "bytes32",
          "name": "oldNoteHash",
          "type": "bytes32"
        },
        {
          "indexed": true,
          "internalType": "bytes32",
          "name": "newNoteHash",
          "type": "bytes32"
        },
        {
          "indexed": false,
          "internalType": "bytes32",
          "name": "nullifier",
          "type": "bytes32"
        }
      ],
      "name": "NFTTransferred",
      "type": "event"
    },
    {
      "anonymous": false,
      "inputs": [
        {
          "indexed": true,
          "internalType": "bytes32",
          "name": "noteHash",
          "type": "bytes32"
        },
        {
          "indexed": false,
          "internalType": "bytes",
          "name": "encryptedNote",
          "type": "bytes"
        }
      ],
      "name": "NoteCreated",
      "type": "event"
    },
    {
      "anonymous": false,
      "inputs": [
        {
          "indexed": true,
          "internalType": "bytes32",
          "name": "noteHash",
          "type": "bytes32"
        },
        {
          "indexed": true,
          "internalType": "bytes32",
          "name": "nullifier",
          "type": "bytes32"
        }
      ],
      "name": "NoteSpent",
      "type": "event"
    },
    {
      "inputs": [
        {
          "internalType": "bytes32",
          "name": "",
          "type": "bytes32"
        }
      ],
      "name": "encryptedNotes",
      "outputs": [
        {
          "internalType": "bytes",
          "name": "",
          "type": "bytes"
        }
      ],
      "stateMutability": "view",
      "type": "function"
    },
    {
      "inputs": [
        {
          "internalType": "bytes32",
          "name": "noteHash",
          "type": "bytes32"
        }
      ],
      "name": "getNoteState",
      "outputs": [
        {
          "internalType": "enum NFTNoteBase.NoteState",
          "name": "",
          "type": "uint8"
        }
      ],
      "stateMutability": "view",
      "type": "function"
    },
    {
      "inputs": [
        {
          "internalType": "bytes32",
          "name": "nullifier",
          "type": "bytes32"
        }
      ],
      "name": "isNullifierUsed",
      "outputs": [
        {
          "internalType": "bool",
          "name": "",
          "type": "bool"
        }
      ],
      "stateMutability": "view",
      "type": "function"
    },
    {
      "inputs": [
        {
          "internalType": "bytes32",
          "name": "",
          "type": "bytes32"
        }
      ],
      "name": "notes",
      "outputs": [
        {
          "internalType": "enum NFTNoteBase.NoteState",
          "name": "",
          "type": "uint8"
        }
      ],
      "stateMutability": "view",
      "type": "function"
    },
    {
      "inputs": [
        {
          "internalType": "bytes32",
          "name": "",
          "type": "bytes32"
        }
      ],
      "name": "nullifiers",
      "outputs": [
        {
          "internalType": "bool",
          "name": "",
          "type": "bool"
        }
      ],
      "stateMutability": "view",
      "type": "function"
    },
    {
      "inputs": [
        {
          "internalType": "bytes32",
          "name": "noteHash",
          "type": "bytes32"
        },
        {
          "internalType": "address",
          "name": "collection",
          "type": "address"
        },
        {
          "internalType": "uint256",
          "name": "nftId",
          "type": "uint256"
        },
        {
          "internalType": "bytes",
          "name": "encryptedNote",
          "type": "bytes"
        }
      ],
      "name": "registerNFT",
      "outputs": [],
      "stateMutability": "nonpayable",
      "type": "function"
    },
    {
      "inputs": [
        {
          "internalType": "address",
          "name": "",
          "type": "address"
        },
        {
          "internalType": "uint256",
          "name": "",
          "type": "uint256"
        }
      ],
      "name": "registeredNFTs",
      "outputs": [
        {
          "internalType": "bool",
          "name": "",
          "type": "bool"
        }
      ],
      "stateMutability": "view",
      "type": "function"
    },
    {
      "inputs": [
        {
          "internalType": "uint256[2]",
          "name": "a",
          "type": "uint256[2]"
        },
        {
          "internalType": "uint256[2][2]",
          "name": "b",
          "type": "uint256[2][2]"
        },
        {
          "internalType": "uint256[2]",
          "name": "c",
          "type": "uint256[2]"
        },
        {
          "internalType": "bytes32",
          "name": "oldNftHash",
          "type": "bytes32"
        },
        {
          "internalType": "bytes32",
          "name": "newNftHash",
          "type": "bytes32"
        },
        {
          "internalType": "uint256",
          "name": "nftId",
          "type": "uint256"
        },
        {
          "internalType": "address",
          "name": "collectionAddress",
          "type": "address"
        },
        {
          "internalType": "bytes32",
          "name": "nullifier",
          "type": "bytes32"
        },
        {
          "internalType": "bytes",
          "name": "encryptedNote",
          "type": "bytes"
        }
      ],
      "name": "transferNFT",
      "outputs": [],
      "stateMutability": "nonpayable",
      "type": "function"
    },
    {
      "inputs": [],
      "name": "transferVerifier",
      "outputs": [
        {
          "internalType": "contract INFTTransferVerifier",
          "name": "",
          "type": "address"
        }
      ],
      "stateMutability": "view",
      "type": "function"
    }
  ],
  "bytecode": "0x608060405234801561001057600080fd5b50604051610dc1380380610dc183398101604081905261002f91610054565b600380546001600160a01b0319166001600160a01b0392909216919091179055610084565b60006020828403121561006657600080fd5b81516001600160a01b038116811461007d57600080fd5b9392505050565b610d2e806100936000396000f3fe608060405234801561001057600080fd5b50600436106100935760003560e01c806385de26b71161006657806385de26b7146101475780638daed5281461016a578063903a56bc14610195578063b1db6ac9146101aa578063de34e948146101d857600080fd5b806314107a941461009857806322dc7b4c146100c15780632997e86b146100f457806383091c3714610117575b600080fd5b6100ab6100a636600461077d565b6101eb565b6040516100b89190610796565b60405180910390f35b6100e46100cf36600461077d565b60009081526001602052604090205460ff1690565b60405190151581526020016100b8565b6100e461010236600461077d565b60016020526000908152604090205460ff1681565b61013a61012536600461077d565b60009081526020819052604090205460ff1690565b6040516100b891906107fa565b61013a61015536600461077d565b60006020819052908152604090205460ff1681565b60035461017d906001600160a01b031681565b6040516001600160a01b0390911681526020016100b8565b6101a86101a336600461095a565b610285565b005b6100e46101b8366004610a4e565b600460209081526000928352604080842090915290825290205460ff1681565b6101a86101e6366004610a78565b6104a4565b6002602052600090815260409020805461020490610ad9565b80601f016020809104026020016040519081016040528092919081815260200182805461023090610ad9565b801561027d5780601f106102525761010080835404028352916020019161027d565b820191906000526020600020905b81548152906001019060200180831161026057829003601f168201915b505050505081565b85600160008281526020819052604090205460ff1660028111156102ab576102ab6107e4565b146103095760405162461bcd60e51b8152602060048201526024808201527f4e6f746520646f6573206e6f74206578697374206f7220616c726561647920736044820152631c195b9d60e21b60648201526084015b60405180910390fd5b600083815260016020526040902054839060ff16156103635760405162461bcd60e51b8152602060048201526016602482015275139d5b1b1a599a595c88185b1c9958591e481d5cd95960521b6044820152606401610300565b6040805160a081018252898152602081018990528082018890526001600160a01b0380881660608301526080820187905260035492516334baeab960e01b8152919216906334baeab9906103c1908f908f908f908790600401610b3c565b602060405180830381865afa1580156103de573d6000803e3d6000fd5b505050506040513d601f19601f820116820180604052508101906104029190610bc0565b6104475760405162461bcd60e51b815260206004820152601660248201527524b73b30b634b2103a3930b739b332b910383937b7b360511b6044820152606401610300565b6104518986610593565b61045b88856106af565b87897f6b176954d0599c04a858a6df230a43d92a3319995f25ed6215c9a32fcdb0d0568760405161048e91815260200190565b60405180910390a3505050505050505050505050565b6001600160a01b038316600090815260046020908152604080832085845290915290205460ff16156105115760405162461bcd60e51b815260206004820152601660248201527513919508185b1c9958591e481c9959da5cdd195c995960521b6044820152606401610300565b6001600160a01b03831660009081526004602090815260408083208584529091529020805460ff1916600117905561054984826106af565b81836001600160a01b03167f51ac51aaad16df2db93385ac6bf7df8ee1bb7998c11be0ef99d4f09d5c3a59c38660405161058591815260200190565b60405180910390a350505050565b600160008381526020819052604090205460ff1660028111156105b8576105b86107e4565b146105f65760405162461bcd60e51b815260206004820152600e60248201526d139bdd19481b9bdd081d985b1a5960921b6044820152606401610300565b60008181526001602052604090205460ff161561064e5760405162461bcd60e51b8152602060048201526016602482015275139d5b1b1a599a595c88185b1c9958591e481d5cd95960521b6044820152606401610300565b600082815260208181526040808320805460ff19908116600217909155848452600192839052818420805490911690921790915551829184917f039fa62302b0f0fccb244fbd909ec86e1a28d4b765b936467c70873d3fcb14979190a35050565b60008281526020819052604081205460ff1660028111156106d2576106d26107e4565b146107155760405162461bcd60e51b81526020600482015260136024820152724e6f746520616c72656164792065786973747360681b6044820152606401610300565b600082815260208181526040808320805460ff19166001179055600290915290206107408282610c38565b50817f11d80dbc601487e7d7ccb4dd72ca753222f44df72d69e388df7c549cfebe3126826040516107719190610796565b60405180910390a25050565b60006020828403121561078f57600080fd5b5035919050565b600060208083528351808285015260005b818110156107c3578581018301518582016040015282016107a7565b506000604082860101526040601f19601f8301168501019250505092915050565b634e487b7160e01b600052602160045260246000fd5b602081016003831061081c57634e487b7160e01b600052602160045260246000fd5b91905290565b634e487b7160e01b600052604160045260246000fd5b6040805190810167ffffffffffffffff8111828210171561085b5761085b610822565b60405290565b600082601f83011261087257600080fd5b61087a610838565b80604084018581111561088c57600080fd5b845b818110156108a657803584526020938401930161088e565b509095945050505050565b80356001600160a01b03811681146108c857600080fd5b919050565b600082601f8301126108de57600080fd5b813567ffffffffffffffff808211156108f9576108f9610822565b604051601f8301601f19908116603f0116810190828211818310171561092157610921610822565b8160405283815286602085880101111561093a57600080fd5b836020870160208301376000602085830101528094505050505092915050565b60008060008060008060008060006101c08a8c03121561097957600080fd5b6109838b8b610861565b98508a605f8b011261099457600080fd5b61099c610838565b8060c08c018d8111156109ae57600080fd5b60408d015b818110156109d5576109c58f82610861565b84526020909301926040016109b3565b50819a506109e38e82610861565b99505050506101008a013595506101208a013594506101408a01359350610a0d6101608b016108b1565b92506101808a013591506101a08a013567ffffffffffffffff811115610a3257600080fd5b610a3e8c828d016108cd565b9150509295985092959850929598565b60008060408385031215610a6157600080fd5b610a6a836108b1565b946020939093013593505050565b60008060008060808587031215610a8e57600080fd5b84359350610a9e602086016108b1565b925060408501359150606085013567ffffffffffffffff811115610ac157600080fd5b610acd878288016108cd565b91505092959194509250565b600181811c90821680610aed57607f821691505b602082108103610b0d57634e487b7160e01b600052602260045260246000fd5b50919050565b8060005b6002811015610b36578151845260209384019390910190600101610b17565b50505050565b6101a08101610b4b8287610b13565b60408083018660005b6002811015610b7b57610b68838351610b13565b9183019160209190910190600101610b54565b50505050610b8c60c0830185610b13565b61010082018360005b6005811015610bb4578151835260209283019290910190600101610b95565b50505095945050505050565b600060208284031215610bd257600080fd5b81518015158114610be257600080fd5b9392505050565b601f821115610c3357600081815260208120601f850160051c81016020861015610c105750805b601f850160051c820191505b81811015610c2f57828155600101610c1c565b5050505b505050565b815167ffffffffffffffff811115610c5257610c52610822565b610c6681610c608454610ad9565b84610be9565b602080601f831160018114610c9b5760008415610c835750858301515b600019600386901b1c1916600185901b178555610c2f565b600085815260208120601f198616915b82811015610cca57888601518255948401946001909101908401610cab565b5085821015610ce85787850151600019600388901b60f8161c191681555b5050505050600190811b0190555056fea2646970667358221220479667b0e20bfd45251477e94ce09ce94826640789b6d1335a49462beb4ecf1164736f6c63430008140033",
  "linkReferences": {},
  "deployedLinkReferences": {}
}