{"abi":[{"type":"function","name":"verifyProof","inputs":[{"name":"","type":"uint256[2]","internalType":"uint256[2]"},{"name":"","type":"uint256[2][2]","internalType":"uint256[2][2]"},{"name":"","type":"uint256[2]","internalType":"uint256[2]"},{"name":"","type":"uint256[5]","internalType":"uint256[5]"}],"outputs":[{"name":"","type":"bool","internalType":"bool"}],"stateMutability":"pure"}],"bytecode":{"object":"0x608060405234801561001057600080fd5b50610222806100206000396000f3fe608060405234801561001057600080fd5b506004361061002b5760003560e01c806334baeab914610030575b600080fd5b61004861003e36600461010e565b6001949350505050565b604051901515815260200160405180910390f35b634e487b7160e01b600052604160045260246000fd5b6040805190810167ffffffffffffffff811182821017156100955761009561005c565b60405290565b60405160a0810167ffffffffffffffff811182821017156100955761009561005c565b600082601f8301126100cf57600080fd5b6100d7610072565b8060408401858111156100e957600080fd5b845b818110156101035780358452602093840193016100eb565b509095945050505050565b6000806000806101a080868803121561012657600080fd5b61013087876100be565b9450604087605f88011261014357600080fd5b61014b610072565b8060c089018a81111561015d57600080fd5b838a015b81811015610182576101738c826100be565b84526020909301928401610161565b508197506101908b826100be565b9650505050508661011f8701126101a657600080fd5b6101ae61009b565b9086019080888311156101c057600080fd5b61010088015b838110156101de5780358352602092830192016101c6565b50959894975092955050505056fea2646970667358221220ad6fa349ce1e507984223bbdfa7c26083b78f8b5ee14635f7cd1cc3f148e8a9b64736f6c63430008140033","linkReferences":{}},"methodIdentifiers":{"verifyProof(uint256[2],uint256[2][2],uint256[2],uint256[5])":"34baeab9"},"id":8}